:0600000074EF3CF0120059
:08000800046ED8CF05F0E0CF33
:1000100006F00001E9CF0CF0EACF07F0E1CF08F0DD
:10002000E2CF09F0D9CF0AF0DACF0BF0F3CF12F01C
:10003000F4CF13F0FACF14F0F5CF15F0F6CF16F099
:10004000F7CF17F000C00EF001C00FF002C010F0A3
:1000500003C011F0F2AA30EF00F0F2B483EF00F029
:100060009DA036EF00F09EB0D5EF00F0F2A83CEF77
:1000700000F0F2B2E3EF00F0F0A642EF00F0F0B0D3
:10008000FDEF00F00EC000F00FC001F010C002F054
:1000900011C003F00CC0E9FF07C0EAFF078E08C0DB
:1000A000E1FF09C0E2FF0AC0D9FF0BC0DAFF12C0AE
:1000B000F3FF13C0F4FF14C0FAFF15C0F5FF16C01C
:1000C000F6FF17C0F7FF045006C0E0FF05C0D8FFD9
:1000D0001000F76AE20FF66E000EF7220900F550E5
:1000E0001200280C0106F76AF60FF66E000EF722D2
:1000F0000900F5501200424F4C45544552415F50A3
:10010000414741444F0003018B2BD8B48C2B8E2BDD
:100110008E510B0802E28D2B8E6B340ED76E8C0E37
:10012000D66EF294000142EF00F0536F6C69636980
:10013000747564204152502E202020202020000081
:10014000434F4E454354414E444F2E2E2E202020E7
:100150002020202000004572726F7220656E20659D
:100160006C20736F636B65742E200000434F4E4507
:10017000435441444F2020202020202020202020B4
:100180000000444553434F4E45435441444F2020C3
:10019000202020202000444553434F4E45435441E6
:1001A000444F20202020202020000201112B1F2A54
:1001B000892B7C2B8B2B0B0ECF6EDC0ECE6E9E9084
:1001C000000142EF00F0938081A0FDD70201116B86
:1001D000010E0C6F036A0F51160FE96E020E032019
:1001E000EA6E010EEF6E0F2B0F511A0802E1010E9D
:1001F000106FF292000142EF00F0938281A2FDD7CE
:100200000201116B010E0C6F036A0F51160FE96E9C
:10021000020E0320EA6EEF6A0F2B0F511A0802E15B
:10022000010E106FF090000142EF00F00C494E49B2
:100230004349414E444F0000446961733A2575209B
:100240005041474F3A25640052657374616E3A25F8
:10025000752000005449454D504F204445205052D0
:100260005545424100002020484120455850495200
:1002700041444F20202000000C0A202020544F4DE4
:100280004520535520424F4C45544F0A2059204198
:1002900056414E434520504F52204641564F520042
:1002A0000C00202020202020202020202020202082
:1002B0002020202020200000202020253032642013
:1002C0002530326420253032642F253032642F25CA
:1002D0003032642020202000202020253032643A53
:1002E0002530326420253032642F253032642F25AA
:1002F00030326420202020002020205757572E41E4
:1003000043434553412E4D4520202020000020200E
:1003100020202020204143434553412020202020FD
:10032000202000002020202020202020202020200D
:10033000202020202020202000002020486F7261F3
:100340002041637475616C697A61646120200000EA
:10035000454E312D2530384C58000C0A20202020E5
:10036000204249454E56454E49444F00424F544F56
:100370004E5F424F4C45544F0000466F6C696F3AD8
:10038000257300004D415249412054455245534187
:10039000204241455A204D4F4E524F59000052467F
:1003A000433A42414D543937303532383834410AB6
:1003B00000003420706F6E69656E746520313330D3
:1003C000322C20636F6C6F6E69612043656E7472AE
:1003D0006F202043502037323030300A507565622C
:1003E0006C612C20507565626C610A0020202045EC
:1003F00073746163696F6E616D69656E746F20708F
:100400006F72204175746F736572766963696F0AE4
:100410000000253032642F253032642F32302530F1
:10042000326420253032643A253032643A25303245
:1004300064005441524946413A2431392E30302F1C
:1004400031303020486F7261206F204672616363E3
:10045000696F6E20202020202020202020202020B6
:10046000200A0000544F4C4552414E4349413A3511
:10047000206D696E2E206C61207072696D657261ED
:1004800020686F7261202020202020202020202042
:100490002020200A0000486F726172696F733A640D
:1004A0006520373A303020612032313A303068727E
:1004B000732E206465206C756E65732061207669EB
:1004C00065726E65730A000053616261646F207922
:1004D00020646F6D696E676F20646520383A303034
:1004E00020612032303A30306872732E2020202074
:1004F000202020202020200A000020202020434F00
:100500004E545241544F204445205052455354417B
:1005100043494F4E20444520534552564943494F85
:100520005320444520202020200A000020202020A5
:100530002020204553544143494F4E414D49454E9B
:10054000544F20504F52204155544F534552564915
:1005500043494F20202020202020200A0000202076
:10056000202020202020202020202020202020208B
:10057000434C415553554C415320202020202020EE
:10058000202020202020202020202020200A0000C1
:100590005052494D4552412E2D20456C20766568BC
:1005A000ED63756C6F20736572E12072657367751A
:1005B00061726461646F20656E20656C2020200A82
:1005C00000006573746163696F6E616D69656E7457
:1005D0006F2E20536F6C6F20616C20706F7274618E
:1005E000646F72206465206573746520646F637541
:1005F0002D0A00006D656E746F207365206C652098
:10060000686172E120656E747265676120646520BF
:100610006C6120756E696461642C20656E20636175
:10062000736F200A000064652065787472617669D2
:10063000F32064656C206D69736D6F2073652068AD
:100640006172E120656E7472656761206120717569
:1006500069656E20200A00006163726564697465D3
:100660002073752070726F7069656461642E204517
:100670006E206573746520737570756573746F2C67
:10068000656C206D6F6E2D0A0000746F2061207004
:10069000616761722073652063616C63756C617260
:1006A00061206465736465206C617320373A303073
:1006B00020686F7261732020200A000064656C203E
:1006C00064ED6120656E2071756520696E677265E5
:1006D000736F20656C20766568ED63756C6F2068BC
:1006E0006173746120737520686F2D0A0000726158
:1006F0002064652073616C6964612C2073696E20CD
:10070000636172676F2065636F6EF36D69636F205D
:1007100061646963696F6E616C2E2020200A00009D
:10072000456C2070726F766565646F72206E6F2005
:10073000706F6472E120636F62726172206E696E25
:1007400067FA6E207061676F2073696E20656C0AAE
:100750000000636F6E73656E74696D69656E746FAA
:100760002064656C20636F6E73756D69646F7220B1
:100770006F2071756520E9737465206E6F20646564
:100780002D0A000076656E676120646520657374CC
:100790006520636F6E747261746F2E20202020209C
:1007A0002020202020202020202020202020202049
:1007B0002020200A0000534547554E44412E2D204D
:1007C0005365206F746F72676172E16E2063696EAA
:1007D000636F206D696E75746F7320646520746F2C
:1007E0006C652D20200A000072616E6369612073C0
:1007F000F36C6F20656E206C61207072696D65729C
:100800006120686F72612C20656E206C61732068B6
:100810006F7261732020200A000073756273656334
:1008200075656E746573206E6F2068616272E12079
:10083000746F6C6572616E6369612E20456C207007
:10084000726F766565646F72200A000068697A6F5E
:100850002064656C20636F6E6F63696D69656E748B
:100860006F20616C20636F6E73756D69646F7220A9
:100870006C6173207265732D2020200A0000747251
:10088000696363696F6E6573207175652C20656E91
:10089000207375206361736F2C206F706572656EB5
:1008A00020736F62726520656C202020200A000092
:1008B000736572766963696F206F626A65746F2011
:1008C0006465206573746520636F6E747261746F04
:1008D0002E20202020202020202020202020200A20
:1008E0000000544552434552412E2D506172612003
:1008F000656C206361736F20646520726F626F2086
:10090000746F74616C2C656C2070726F76656564B1
:100910006F0A00006F72206375656E746120636FEB
:100920006E20756E2073656775726F207175652016
:10093000637562726520646963686F206576656EB1
:10094000746F2E0A00004355415254412E2D20450C
:100950006C2070726F766565646F72206E6F2073A5
:100960006572E120726573706F6E7361626C6520F1
:10097000706F723A200A0000766568ED63756C6FDF
:10098000287329206162616E646F6E61646F2873E1
:1009900029206DE1732064652033302064ED61739C
:1009A0002C656E2063752D0A0000796F20636173DA
:1009B0006F2073652070726F6365646572E12065F6
:1009C0006E2074E9726D696E6F732064656C2052DD
:1009D00065676C616D656E746F0A00006465204523
:1009E00073746163696F6E616D69656E746F732096
:1009F00050FA626C69636F73206465206C612043F8
:100A000069756461642064652020200A00004DE956
:100A10007869636F2E202020202020202020202095
:100A200020202020202020202020202020202020C6
:100A3000202020202020202020202020200A00000C
:100A40005155494E54412E2D204C6120656E7472D3
:100A500065676120792072656369626F2064656CE7
:100A60002070726573656E746520636F6E2D200A49
:100A70000000747261746F20696D706C696361202D
:100A80006C61206163657074616369F36E206465F5
:100A9000206C6F73206465726563686F73207920C2
:100AA000200A00006F626C69676163696F6E65732D
:100AB000206573746970756C61646F7320656E2056
:100AC000E96C2E2020202020202020202020202003
:100AD0002020200A000053455854412E2D204C61FF
:100AE0002050726F63757261647572ED61204665A6
:100AF000646572616C2064656C20436F6E73756D04
:100B000069646F72200A0000657320636F6D706501
:100B100074656E746520656E206C612076ED6120D1
:100B200061646D696E697374726174697661207055
:100B30006172612072652D0A0000736F6C766572B8
:100B4000206375616C717569657220636F6E747274
:100B50006F766572736961207175652073652073A6
:100B60007573636974652020200A0000736F6272D8
:100B700065206C6120696E74657270726574616362
:100B800069F36E206F2063756D706C696D69656EB9
:100B9000746F2064656C207072652D0A00007365A7
:100BA0006E746520636F6E747261746F2E2053696A
:100BB0006E207065726A756963696F206465206C68
:100BC0006F20616E746572696F722C20200A0000BC
:100BD0006C61732070617274657320736520736F2C
:100BE0006D6574656E2061206C61206A7572697331
:100BF0006469636369F36E206465206C6F73200A17
:100C0000000054726962756E616C657320636F6D6C
:100C1000706574656E74657320656E2050756562CD
:100C20006C612C2072656E756E6369616E646F20F5
:100C3000200A0000657870726573616D656E746579
:100C40002061206375616C7175696572206F7472C3
:100C500061206A757269736469636369F36E2071F8
:100C60007565200A00007075646965726120636FA4
:100C700072726573706F6E6465726C65732C207030
:100C80006F722072617AF36E206465207375732031
:100C9000646F6D692D0A000063696C696F73207061
:100CA000726573656E746573206F206675747572F6
:100CB0006F73206F20706F72206375616C7175693E
:100CC0006572206F7472610A000072617AF36E2E91
:100CD0002020202020202020202020202020202014
:100CE0002020202020202020202020202020202004
:100CF0002020202020202020200A00004465206E93
:100D00006F2065737461722064652061637565721C
:100D1000646F20636F6E206C617320636C61757308
:100D2000756C617320616E7465202D0A0000726914
:100D30006F726573206661766F72206465207265DC
:100D40007469726172207375206175746F6DF376CA
:100D5000696C2E202020202020202020200A000046
:100D60004573746520636F6E747261746F2066756D
:100D700065206170726F6261646F207920726567AF
:100D80006973747261646F20706F72206C61200AE5
:100D9000000050726F63757261647572ED61204678
:100DA00065646572616C2064656C20436F6E737559
:100DB0006D69646F722062616A6F20656C206EFAE3
:100DC0002D0A00006D65726F203C3C4EDA4D455295
:100DD0004F20444520524547495354524F3E3E20F0
:100DE0006465206665636861203C3C464543484134
:100DF0002044450A0000524547495354524F3E3E55
:100E00002E204375616C7175696572207661726917
:100E1000616369F36E2064656C2070726573656E42
:100E200074652020200A0000636F6E747261746F15
:100E300020656E207065726A756963696F206465EC
:100E400020454C20434F4E53554D49444F522C2082
:100E50006672656E7465200A0000616C20636F6EB7
:100E6000747261746F20646520616468657369F3EE
:100E70006E207265676973747261646F2C2073658C
:100E80002074656E6472E120200A0000706F722089
:100E90006E6F207075657374612E202020202020D5
:100EA0002020202020202020202020202020202042
:100EB00020202020202020202020200A0000225155
:100EC00055454A415320414C2054454C45464F4ED0
:100ED0004F3A0000202020202832323229322D348F
:100EE000362D31352D323220454E204C412043499C
:100EF0005544414420444520505545424C41202012
:100F000020200A005920414C202030312D3830302B
:100F10002D3436382D38373232202044454C2020AD
:100F2000494E544552494F52202850524F4645434E
:100F30004F290A00204143434553416175746F6D49
:100F40006174697A6163696F6E206465206573748A
:100F50006163696F6E616D69656E746F730A00001D
:100F60002020207777772E6163636573612E6D652E
:100F7000206175746F6D6174697A6163696F6E4029
:100F80006163636573612E6D6520202020200A0057
:100F90001D688C001D7801001D688C001D77010004
:100FA000090107B102D0899801D08988929807B3C6
:100FB00002D0899401D08984929407B502D0899295
:100FC00001D08982929207B702D0899001D089809E
:100FD0009290000092968986060E006E002EFED733
:100FE0000000929689960001120096948D94C70E87
:100FF000006E002EFED700D00901045303E0969442
:101000008D8402D096948D9400009296899605392D
:10101000066F0F0E061706C907F90001C1DF0901A7
:1010200005510F0B066F076F0001BADF1200090EA2
:10103000EA6EE96AEF500EE00C0E016E006A002EB7
:10104000FED7012EFBD7F70E006E002EFED700D084
:10105000EF2EF2D7120009010151010A000107E049
:10106000030A08E0010A0AE0070A0CE010D00901AF
:10107000026B0FD0400E0901026F0BD0140E090154
:10108000026F07D0540E0901026F03D0000109015D
:10109000026B010E005D022702518009036F046B91
:1010A000056F0001A2DF12000801FF510C0A0001C8
:1010B00005E0060A12E0020A1AE020D00901046BDA
:1010C000010E056F000191DF010E02018C6F020E0F
:1010D0000901006F0001ABDF18D002018C2B010E5B
:1010E0000901006F8CC201F90001B5DF0ED00901C2
:1010F000046B100E056F000178DF07D0010E0901A7
:10110000046FFFC805F9000170DF12000900F552F5
:101110000CE0F6CFFCF8F7CFFDF8F5CFFFF8C4DF11
:10112000FCC8F6FFFDC8F7FFF1D712009388938A39
:1011300043EF3DF0010E02018C6F96948D949296D0
:101140008996230E0901006F000171DF0801F96B18
:10115000F95102080DE3030E0901076F000120DFBA
:10116000050E0901006F000162DF0801F92BF0D7BD
:10117000020E0901076F000113DF0801F96BF95135
:10118000030814E3036AF951000169EC00F0080157
:10119000FA6F0901046B056F000127DF050E0901D5
:1011A000006F000144DF0801F92BE9D7000145EF8A
:1011B0003DF0010E0801F96FF9510E08D8A05DD17C
:1011C000010EF95DF20FD8B0D7D00E0F000140EF3D
:1011D0000AF0080EEA6EFA0EE96E020EE26E8D0E4D
:1011E000E16EE752E6CFEEFFFCE10801C5D0000159
:1011F000080EEA6EFA0EE96E020EE26E990EE16ECC
:10120000E752E6CFEEFFFCE10801B6D00001080E80
:10121000EA6EFA0EE96E020EE26EA50EE16EE7527C
:10122000E6CFEEFFFCE10801A7D00001080EEA6E50
:10123000FA0EE96E020EE26EB10EE16EE752E6CFF3
:10124000EEFFFCE1080198D00001080EEA6EFA0EEC
:10125000E96E020EE26EBD0EE16EE752E6CFEEFFE2
:10126000FCE1080189D00001080EEA6EFA0EE96E71
:10127000020EE26EC90EE16EE752E6CFEEFFFCE130
:1012800008017AD00001080EEA6EFA0EE96E020E2D
:10129000E26ED50EE16EE752E6CFEEFFFCE108010B
:1012A0006BD00001080EEA6EFA0EE96E020EE26ED5
:1012B000E10EE16EE752E6CFEEFFFCE108015CD003
:1012C0000001080EEA6EFA0EE96E020EE26EED0EF5
:1012D000E16EE752E6CFEEFFFCE108014DD00001E0
:1012E000080EEA6EFA0EE96E020EE26EF90EE16E7B
:1012F000E752E6CFEEFFFCE108013ED00001080E08
:10130000EA6EFA0EE96E030EE26E050EE16EE7522A
:10131000E6CFEEFFFCE108012FD00001080EEA6ED7
:10132000FA0EE96E030EE26E110EE16EE752E6CFA1
:10133000EEFFFCE1080120D00001080EEA6EFA0E73
:10134000E96E030EE26E1D0EE16EE752E6CFEEFF90
:10135000FCE1080111D00001080EEA6EFA0EE96EF8
:10136000030EE26E290EE16EE752E6CFEEFFFCE1DE
:10137000080102D000010801416A406A40C01BF028
:10138000415240E1405009083DE3220E4024E96EFD
:10139000000E4120EA6EF9510A0DF3504024090174
:1013A000086F000E4120096FF2CF0AF9F29E09C9B9
:1013B000AAFF08C9A9FFA69CA69EA680A8500ABF9E
:1013C000F28EEF6E220E4024E96E000E4120EA6E8E
:1013D000EFCF06F9FA0E4024E96E080E4120EA6EBE
:1013E000EF50065D03E008010DD00901402AD8B492
:1013F000412A40500A0804E1415202E1010E1B6EED
:101400000801BED71B5237E1416A406AFA0E4024F8
:10141000E96E080E4120EA6EEF522DE0F9510A0DF7
:10142000F35040240901066F000E4120076FFA0EA9
:101430004024E96E080E4120EA6EEFCF08F9F25021
:10144000006EF29E07C9AAFF06C9A9FF08C9A8FF36
:10145000A69CA69EA6840F01550EA76EAA0EA76E87
:10146000A682A6B2FED7A6940050F212402AD8B4A3
:10147000412A0801CBD7F92B9FD6000147EF3DF059
:10148000E824F76AF7369B0FF66E140EF7220A006F
:10149000F550FA6E0800F550F96ED211F0110E12E7
:1014A0002C124A1268128612A412C212E012FE1204
:1014B0001C133A1358130301576B040E586FA30EF5
:1014C000596F5A6B5B6B110E5C6F000149EF3DF079
:1014D000C00E0301536FA80E546F010E556F970E87
:1014E000566FC00E616FA80E626F010E636FFE0E25
:1014F000646F5D695E695F69606B00014BEF3DF091
:10150000C00E0801E36FA80EE46F010EE56F960EA2
:10151000E66F00014DEF3DF0830ED56E340ED76EB1
:101520008C0ED66EF28AC00EF2127CEF0EF09496FC
:101530008B96948894928B8294908B8024EF0CF0FD
:101540000901B16BB151070814E3D890B03702E23A
:101550008B9A01D08B8A949A94968B86948882B8C1
:1015600002D0D89001D0D880B23794968B96B12B08
:10157000E9D7B2C901F00001120094928B92A5C97B
:10158000A7F9A5C9B0F90001DBDF0901B06B0001C3
:10159000D7DF01C0A6F994928B820901A6C901F098
:1015A0000001120094928B920901B0690001C8DF1A
:1015B00094928B8239EF0CF094928B920901AB518B
:1015C0004009AD6FB06F0001BBDFACC9B0F9B8DF47
:1015D00094928B82120094928B920901AA51A009D5
:1015E000AC6FB06F0001ACDFABC9B0F9A9DF94926A
:1015F0008B82120094928B920901AD518009AF6FDA
:10160000B06F00019DDFAEC9B0F99ADF94928B8272
:1016100012001F0E0901AA6F030EAB6F0001DBDF82
:10162000090E0901AB6FA80EAA6F010EAA25E96E7B
:10163000000EAB21EA6EEFCFACF91F0EAD6FACC957
:10164000AEF90001D7DF120094928B9203C905F91D
:1016500003C9B0F9000174DF0901B06B000170DF4C
:101660000901B06B00016CDF01C004F994928B8218
:10167000090104C901F000011200020E0901A96F5D
:10168000140EA86F0001C5DF140E0901AB6FFEC870
:10169000ACF9000191DF080E0901026F016901C96F
:1016A000E9FFEA6EEFCF03F9160EAB6F03C9ACF991
:1016B000000182DF080E0901026F0169010E012598
:1016C000E96E000E0221EA6EEFCF03F9170EAB6F41
:1016D00003C9ACF9000170DF030E0901A96F0A0EFE
:1016E000A86F000196DF0A0E0901036F0001ACDF4D
:1016F00001C001F9000E090101B0010E000AD8B4C1
:1017000002D00001F0D700011200020E0901A96FFA
:10171000140EA86F00017DDF140E0901AB6FFEC827
:10172000ACF9000149DF120E0901AB6F010EAC6F7D
:10173000000142DF030E0901A96F0A0EA86F000124
:1017400068DF0A0E0901036F00017EDF01C001F9A5
:10175000000E090101B0010E000AD8B402D0000148
:10176000F0D7020EA96F140EA86F000152DF120EFF
:101770000901AB6FAC6B00011FDF180E0901036F8D
:10178000000162DF01C0FFF8190E0901036F0001BB
:101790005BDF01C000F9FFC801F0090100C902F0D8
:1017A000000112001F0E0901AA6F0C0EAB6F0001A1
:1017B00012DF0801FE6B0001A8DF02C0FDF801C0C6
:1017C000FCF80801FA51020804E1FA6BFDB1FA2BAA
:1017D0000BD0FD91FAB1FD81FE6BFDC800F9FCC88C
:1017E000FFF800014ADF0801020E0901A96FA86F86
:1017F00000010FDF020E0901036F000125DF01C0A8
:10180000FBF80801FB91FAB1FB81020E0901AB6FF5
:10181000FBC8ACF90001D0DE0801FA5302E0150E56
:1018200001D0120EFE6F040E0901AB6FFEC8ACF9B9
:101830000001C2DE1F0E0901AD6F040EAE6F000184
:10184000D9DE07EF0DF073D61D0E0901A56F00015B
:1018500094DE01C0F9F80801F9A702D00001F4D71D
:10186000F951FF0A010BD8B402D00001EDD70001F5
:1018700099D6010E0901006F000117EC08F0030171
:101880008A6B9381906B8F6B080E0901AB6FAC6B09
:10189000000192DE090E0901AB6FAC6B00018CDE1A
:1018A0000C0E0901AB6FF70EAC6F000185DE0D0E5B
:1018B0000901AB6F1B0EAC6F00017EDE0A0E090141
:1018C000AB6FF70EAC6F000177DE0B0E0901AB6F4B
:1018D0001B0EAC6F000170DE040E0901AB6FF80E39
:1018E000AC6F000169DE050E0901AB6F1B0EAC6F1A
:1018F000000162DE020E0901A96FA86B000189DEFA
:101900000901AB6B0D0EAC6F000156DE020E090132
:10191000AB6F320EAC6F00014FDE030E0901AB6FEF
:10192000400EAC6F000148DE090E0901AB6F3F0E9F
:10193000AC6F000141DE060E0901AB6F120EAC6FF9
:1019400000013ADE070E0901AB6F0C0EAC6F00010F
:1019500033DE0A0E0901AB6FEE0EAC6F00012CDE18
:101960000B0E0901AB6F050EAC6F000125DE030EF7
:101970000901A96F040EA86F00014BDE040E0901D6
:10198000AB6F57C3ACF9000117DE050E0901AB6F51
:1019900058C3ACF9000110DE020E0901AB6F59C348
:1019A000ACF9000109DE030E0901AB6F5AC3ACF9B3
:1019B000000102DE0901AB6B5BC3ACF90001FCDD89
:1019C000010E0901AB6F5CC3ACF90001F5DD120E2D
:1019D0000901A56F0001D1DD01C094F3100E0801CB
:1019E000FE6F010E0901006F0801FF6B000145DE6B
:1019F000140E0801FE6F040E0901006F720E08013B
:101A0000FF6F00013ADE0801FA6B0001CBD61F0E12
:101A10000901AD6F040EAE6F0001ECDD7DEF0EF03D
:101A2000030193930801886989698A698B698C69C4
:101A30008D69916B906B8F6B8E6B00017EEF0EF05A
:101A400009014A514C03F3CF01F0F4CF00F04D03EC
:101A5000F35000264B514C03F3500020026E00015E
:101A60001200FFC889F3FEC888F3FDC887F3FCC8DD
:101A700086F35BEF0EF00901046B056B010E066F38
:101A8000DA6AD96A080E096FFC0E086F090EEA6E51
:101A9000E96A09C9E2FF08C9E1FF06C907F9D89058
:101AA000E550EE02F3500423F4500523072FF7D737
:101AB00004C9DEFF05C904F9056BD8B0052B082B56
:101AC000D8B4092B062B06510508E0E100019FEF71
:101AD0000DF0016A026A006A036A09010E5102E10F
:101AE0000D5118E0100E0F6FD8900B370C370036E1
:101AF00003360E51035C02E10D51005C07E30D510A
:101B0000005ED8A003060E51035ED880013602366F
:101B10000F2FEAD70001120089C3FFF888C3FEF82F
:101B200087C3FDF886C3FCF8410E0901036FC60E9A
:101B3000026F4E0E016F6D0E006F00019CD7390EC3
:101B4000080100240301866F300E08010120030103
:101B5000876F000E080102200301886F000E080144
:101B600003200301896F88C300F089C301F0026A72
:101B7000036A89C3FEF888C3FDF889C30CF988C3DA
:101B80000BF97F0E09010E6F0D690001A2DF00C085
:101B900001F003C002F05CEF0EF00801F96BF9519F
:101BA000220871E309014B6BF9C84AF94D6B240E09
:101BB0004C6F000145DF02C003F001509A0F016E27
:101BC000030E032201C0FAF8080103C0FBF8FAC8AB
:101BD000E9FFFBC8EAFF0A0EEF6E230EFA25E96E55
:101BE000000EFB21EA6EEF90230EFA25E96E000E3F
:101BF000FB21EA6EEF82230EFA25E96E000EFB212F
:101C0000EA6EEF84230EFA25E96E000EFB21EA6EE0
:101C1000EF98230EFA25E96E000EFB21EA6EEF968F
:101C20000F0EFA25E96E000EFB21EA6EEF3C01D0A3
:101C300015D00F0EFA25E96E000EFB21EA6EEFCFEC
:101C4000FCF8FCC84DF9000102EC00F00F0E080191
:101C5000FA25E96E000EFB21EA6EEF68210EFA25E7
:101C6000E96E000EFB21EA6EEC6AED52240EEF6E77
:101C7000100EFA25E96E000EFB21EA6EEC6AED52B9
:101C8000EF6AF92B8CD7D6508627D7508723CE50B2
:101C90008627CF508723CC508627000E8723B2504B
:101CA0008627B3508723FF6BFE6B87C8FDF886C875
:101CB000FCF80001D6D630D702C099F301C098F3E2
:101CC000040E03019927995112080AE2FF0A03E161
:101CD0009851870805E2880E985F130E995BF3D739
:101CE0009951030802E3040E992700017FEF0EF0DB
:101CF0000801926B000110D4A6D592D64ED74FEFB3
:101D00003DF0080E016E0E0E006E002EFED78D9275
:101D100096920E0E006E002EFED7090111378C9C94
:101D2000D8B0958CD8A0959C968284A2FED7012E1F
:101D300001D002D00001E7D70E0E006E002EFED7B4
:101D40008D9296920000958C0E0E006E002EFED79E
:101D50000E0E006E002EFED7968284A2FED7016A78
:101D60000E0E006E002EFED783BC01808D929692DF
:101D70008C9C959C00011200080E0901126F00C096
:101D800013F9958C0E0E006E002EFED7968284A25B
:101D9000FED783BCD88083ACD89001360E0E006E7F
:101DA000002EFED796928D92122FEBD7958C0E0EA9
:101DB000006E002EFED78C9C1351D8A4959C000079
:101DC000968284A2FED70E0E006E002EFED78D9254
:101DD00096920E0E006E002EFED78C9C959C0001F4
:101DE000120012C913F9D89009011333780E131792
:101DF0001331006E00323F0E001600501325146F91
:101E000012510F0B1425016E0001120004009EA850
:101E1000FDD7090113C9ADFF00011200016603D00F
:101E2000026602D007D0022A00C0EEFF012EFCD7C6
:101E3000022EFAD712000FC911F90EC910F911C9F3
:101E400003F0090110C9E9FF11C9EAFFEF5206E0EA
:101E5000102BD8B4112B0001F2D709010E51105DDF
:101E6000006E0F511159036E00C001F00001120005
:101E70000900F6CF0EF9F7CF0FF9F5CF13F9C6DF4A
:101E80000EC9F6FF0FC9F7FF09010D2F01D002D0CF
:101E90000001EED700011200EF520FE0EACF0FF978
:101EA000E9CF0EF9EFCF13F9B1DF0FC9EAFF0EC981
:101EB000E9FFE92AD8B4EA2AEFD712000A0E09018D
:101EC000136F0001A3DF12000900F5520CE0F6CFFA
:101ED0000EF9F7CF0FF9F5CF13F998DF0EC9F6FF1A
:101EE0000FC9F7FFF1D7120009011451016A135D00
:101EF00003E213C900F00CD0006A080E156F133707
:101F000000361451005CD8B0006E0136152FF7D79B
:101F100000011200200E09010EA9300E0F6F0DC92D
:101F200000F00DAF08D0001E002A00C00DF92D0EE4
:101F30000F6F0E8F0E8101500DC913F9640E146FCF
:101F40000001D2DF00C00DF9300E01240901106F2D
:101F50000DC913F90A0E146F0001C6DF300E0024FC
:101F60000901126F300E0124116F0FC900F0300EFD
:101F7000105D04E00E830EBF0E8512D00EB510D09A
:101F80000FC910F90EB304D0300E115D04E00E81BC
:101F90000EBF0E8305D0D8A40E81D8B410C911F994
:101FA0000EB505D00EB307D00EB109D00CD00FC9B5
:101FB00013F900012BDF10C913F9000127DF11C944
:101FC00013F9000123DF12C913F900011FDF12000A
:101FD000020E09010F6F4E0E0E6F00012CDF020E74
:101FE000012409010D6F900EF66E0F0EF76E0001C1
:101FF0006BDF940EF66E0F0EF76E66DF1D0E090195
:10200000136F000103DF480E0901136F0001FEDEAC
:10201000020E0901136F0001F9DE1D0E0901136F95
:102020000001F4DE660E0901136F0001EFDE010E00
:102030000901136F0001EADE1D0E0901136F000193
:10204000E5DE6B0E0901136F0001E0DE490E0901A8
:10205000136F0001DBDE0DC913F9D8DE7B0E090119
:10206000136F0001D3DE410E0901136F0001CEDEB4
:10207000020EEA6E4E0EE96E0FDF6AEF12F0F29C6E
:10208000F29EF2BEFDD7958C0E0E006E002EFED78E
:1020900096820E0E006E002EFED78C9C959C0E0E26
:1020A000006E002EFED78D929692D00E0901116F10
:1020B000000127DE030E0901116F000122DE958C5D
:1020C0000E0E006E002EFED796820E0E006E002EB3
:1020D000FED784A2FED78C9C959C0E0E006E002E1F
:1020E000FED78D929692D10E0901116F000109DE83
:1020F000010E006E41DE01507F0B09010D6F126F62
:1021000000016FDE01C076F2010E006E35DE015077
:102110003F0B09010D6F126F000163DE01C070F209
:10212000010E006E29DE01501F0B09010D6F126FA9
:10213000000157DE01C071F2006A1EDE01C00DF918
:1021400001C012F94EDE01C072F2959C0000968229
:1021500084A2FED70E0E006E002EFED700D0000027
:10216000958C0E0E006E002EFED7C00EF212F29C61
:10217000F29EF2BEFDD7958C0E0E006E002EFED79D
:1021800096820E0E006E002EFED78C9C959C0E0E35
:10219000006E002EFED78D929692D00E0901116F1F
:1021A0000001AFDD0901116B0001ABDD958C0E0E56
:1021B000006E002EFED796820E0E006E002EFED709
:1021C00084A2FED78C9C959C0E0E006E002EFED72E
:1021D0008D929692D10E0901116F000192DD010ED0
:1021E000006ECADD01507F0B09010D6F126F0001F7
:1021F000F8DD01C075F2010E006EBEDD01507F0BEF
:1022000009010D6F126F0001ECDD01C074F2006A6C
:10221000B3DD01503F0B09010D6F126F0001E1DDCD
:1022200001C073F2959C0000968284A2FED70E0E28
:10223000006E002EFED700D00000958C0E0E006EB2
:10224000002EFED7C00EF2121B0E0901136F000103
:10225000DDDD400E0901136F0001D8DD1B0E090101
:10226000136F0001D3DD610E0901136F0001CEDD94
:10227000010E0901136F0001C9DD1B0E0901136F67
:102280000001C4DD330E0901136F0001BFDD280E0C
:102290000901136F0001BADD1B0E0901136F000164
:1022A000B5DD470E0901136F0001B0DD010E090114
:1022B000136F0001ABDD1B0E0901136F0001A6DDDA
:1022C000210E0901136F0001A1DD010E0901136F39
:1022D00000019CDD1D0E0901136F000197DD210E29
:1022E0000901136F000192DD110E0901136F000146
:1022F0008DDD080EEA6EF90EE96E006A026A140EB0
:10230000016E8CDD416A406A09010F6B520E0E6F3F
:10231000000191DD415220E10150405C1DE2F90EC7
:102320004024016E080E4120036E01C00DF9090121
:102330000E6F5C0E4024E96E000E4120EA6EEFCF76
:1023400011F903C0EAFF01C0E9FF11C9EFFF402AFC
:10235000D8B4412ADAD700017A0EF66E030EF76E72
:10236000060E09010D6F000183DD080EEA6EF90EFD
:10237000E96E92DD020EEA6E4E0EE96E080EE26E16
:10238000F90EE16EE752E6CFEEFFFCE10A0E09011D
:10239000136F00013BDD92DD840EF66E030EF76EC7
:1023A00093DD1B0E0901136F000130DD470E09019B
:1023B000136F00012BDD82DD81DD1D0E0901136F1E
:1023C000000124DD210E0901136F00011FDD090149
:1023D000136B00011BDD0A0E0901136F000116DDEE
:1023E0009E0EF66E030EF76E6FDDB20EF66E030EE6
:1023F000F76E6ADDEC0EF66E030EF76E65DD1D0EF0
:102400000901136F000102DD210E0901136F0001A4
:10241000FDDC110E0901136F0001F8DC0A0E090141
:10242000136F0001F3DC70C20DF9010E09010E6F8C
:10243000000170DD2F0E0901136F0001E7DC71C28E
:102440000DF9010E09010E6F000164DD1B0EF66E21
:10245000040EF76E030E09010D6F000109DD72C253
:102460000DF9010E09010E6F000154DD200E090166
:10247000136F0001CBDC73C20DF9010E09010E6F61
:10248000000148DD3A0E0901136F0001BFDC74C280
:102490000DF9010E09010E6F00013CDD3A0E090134
:1024A000136F0001B3DC75C20DF9010E09010E6F47
:1024B000000130DD03DD1D0E0901136F0001A6DCF4
:1024C000210E0901136F0001A1DC0901136B00014A
:1024D0009DDC7ED50A0E0901136F000197DC320ED8
:1024E000F66E040EF76EF0DC640EF66E040EF76EF8
:1024F000EBDC960EF66E040EF76EE6DCC80EF66E9A
:10250000040EF76EE1DC0A0E0901136F00017EDC98
:10251000FA0EF66E040EF76ED7DC2C0EF66E050E74
:10252000F76ED2DC5E0EF66E050EF76ECDDC900E09
:10253000F66E050EF76EC8DCC20EF66E050EF76E6F
:10254000C3DCF40EF66E050EF76EBEDC260EF66EDC
:10255000060EF76EB9DC580EF66E060EF76EB4DC9A
:102560008A0EF66E060EF76EAFDCBC0EF66E060E29
:10257000F76EAADCEE0EF66E060EF76EA5DC200EE8
:10258000F66E070EF76EA0DC520EF66E070EF76EB3
:102590009BDC840EF66E070EF76E96DCB60EF66EBA
:1025A000070EF76E91DCE80EF66E070EF76E8CDC08
:1025B0001A0EF66E080EF76E87DC4C0EF66E080EDD
:1025C000F76E82DC7E0EF66E080EF76E7DDCB00EC6
:1025D000F66E080EF76E78DCE20EF66E080EF76EF9
:1025E00073DC140EF66E090EF76E6EDC460EF66E98
:1025F000090EF76E69DC780EF66E090EF76E64DC74
:10260000AA0EF66E090EF76E5FDCDC0EF66E090E92
:10261000F76E5ADC0E0EF66E0A0EF76E55DC400EA3
:10262000F66E0A0EF76E50DC720EF66E0A0EF76E3C
:102630004BDCA40EF66E0A0EF76E46DCD60EF66E76
:102640000A0EF76E41DC080EF66E0B0EF76E3CDCE0
:102650003A0EF66E0B0EF76E37DC6C0EF66E0B0E46
:10266000F76E32DC9E0EF66E0B0EF76E2DDCD00E82
:10267000F66E0B0EF76E28DC020EF66E0C0EF76E81
:1026800023DC340EF66E0C0EF76E1EDC660EF66E54
:102690000C0EF76E19DC980EF66E0C0EF76E14DC4D
:1026A000CA0EF66E0C0EF76E0FDCFC0EF66E0C0EFC
:1026B000F76E0ADC2E0EF66E0D0EF76E05DC600E60
:1026C000F66E0D0EF76E00DC920EF66E0D0EF76EC6
:1026D00064EC0FF0C40EF66E0D0EF76E64EC0FF0A6
:1026E000F60EF66E0D0EF76E64EC0FF0280EF66E19
:1026F0000E0EF76E64EC0FF05A0EF66E0E0EF76EBD
:1027000064EC0FF08C0EF66E0E0EF76E64EC0FF0AC
:102710000A0E0901136F000106EC0FF00A0E090101
:10272000136F000106EC0FF0BE0EF66E0E0EF76E84
:1027300064EC0FF00A0E0901136F000106EC0FF0B4
:10274000D40EF66E0E0EF76E64EC0FF0040EF66EFD
:102750000F0EF76E64EC0FF00A0E0901136F000103
:1027600006EC0FF0340EF66E0F0EF76E64EC0FF001
:10277000600EF66E0F0EF76E64EC0FF01B0E090183
:10278000136F000106EC0FF04A0E0901136F0001F0
:1027900006EC0FF0FA0E0901136F000106EC0FF0C2
:1027A0000A0E0901136F000106EC0FF05EEC0FF04A
:1027B0001B0E0901136F000106EC0FF06D0E0901ED
:1027C000136F000106EC0FF01200080E016E0E0EE2
:1027D000006E002EFED78A9893980E0E006E002E83
:1027E000FED709010F378A9AD8B0938AD8A0939A56
:1027F000938881A8FED7012E01D002D00001E7D72F
:102800000E0E006E002EFED78A9893980000938AD1
:102810000E0E006E002EFED70E0E006E002EFED79E
:10282000938881A8FED7016A0E0E006E002EFED797
:1028300081BA01808A9893988A9A939A000112002B
:10284000080E09010D6F00C00EF9938A0E0E006E7E
:10285000002EFED7938881A8FED781BAD88081AA9E
:10286000D89001360E0E006E002EFED793988A98EF
:102870000D2FEBD7938A0E0E006E002EFED78A9A8C
:102880000E51D8A4939A0000938881A8FED70E0E0B
:10289000006E002EFED78A9893980E0E006E002EC2
:1028A000FED78A9A939A000193EF14F0938A0E0E42
:1028B000006E002EFED793880E0E006E002EFED7FF
:1028C0008A9A939A0E0E006E002EFED78A989398DD
:1028D000A00E09010F6F000178DF0AC90CF9090188
:1028E0000D6B0AC90FF9000170DF09C90FF96DDF1F
:1028F000938A0E0E006E002EFED793880E0E006E89
:10290000002EFED781A8FED78A9A939A0E0E006EEB
:10291000002EFED78A989398A10E09010F6F00012F
:1029200054DF006A8DD701C00BF9939A0000938899
:1029300081A8FED70E0E006E002EFED700D000003C
:10294000938A0E0E006E002EFED709010BC901F00E
:1029500000011200938A0E0E006E002EFED793889F
:102960000E0E006E002EFED78A9A939A0E0E006EFF
:10297000002EFED78A989398A00E09010F6F0001D0
:1029800024DF0AC90DF909010E6B0AC90FF900010C
:102990001CDF09C90FF919DF0BC90FF916DF939A6C
:1029A0000000938881A8FED70E0E006E002EFED781
:1029B00000D00000938A0E0E006E002EFED7938A80
:1029C0000E0E006E002EFED793880E0E006E002EA7
:1029D000FED78A9A939A0E0E006E002EFED78A9822
:1029E0009398A00E09010F6F0001EFDE015009015D
:1029F0000C9101B00C810CA11ED0938A0E0E006EBA
:102A0000002EFED793880E0E006E002EFED781A8F2
:102A1000FED78A9A939A0E0E006E002EFED78A98E1
:102A20009398A00E0F6F0001D0DE015009010C91A8
:102A300001B00C81E0D7939A0000938881A8FED75B
:102A40000E0E006E002EFED700D00000938A0E0EF0
:102A5000006E002EFED7000112000900F6CFFBF831
:102A6000F7CFFCF8F5CFFFF854EC08F0FBC8F6FF01
:102A7000FCC8F7FF0801FA2F01D002D00001EDD702
:102A8000000112000150FAC813F9640E0901146F15
:102A9000000174EC0FF000C0FAF80150300E08E1AC
:102AA0000801FBA30FD0FBB70DD0FBB9200E04D05B
:102AB0000801FB97FB99FB81012601C0FFF800018B
:102AC00054EC08F0FAC813F90A0E0901146F00015A
:102AD00074EC0FF000C0FAF80150300E08E1080164
:102AE000FBB70BD0FBA109D0FBB9200E00010126DA
:102AF00001C0FFF854EC08F00801300EFA27FAC8BC
:102B0000FFF8000154EC08F01200200E0801FAA9A9
:102B1000300EFB6FF9C800F0F9AF08D0001E002A94
:102B200000C0F9F82D0EFB6FFA8FFA810150F9C839
:102B300013F9640E0901146F000174EC0FF000C06A
:102B4000F9F8300E01240801FC6FF9C813F90A0ED8
:102B50000901146F000174EC0FF0300E002408011D
:102B6000FE6F300E0124FD6FFBC800F0300EFC5DDF
:102B700004E0FA83FABFFA8512D0FBC8FCF8200EF5
:102B8000FB6F300EFD5D04E0FA81FABFFA8307D0D7
:102B9000D8A4FA8104E1FCC8FDF8200EFC6FFAB558
:102BA00005D0FAB308D0FAB10BD00FD0FBC8FFF8AC
:102BB000000154EC08F0FCC8FFF8000154EC08F0E8
:102BC000FDC8FFF8000154EC08F0FEC8FFF8000152
:102BD00054EC08F0D9EF3DF0D0500F0BD0A8000E08
:102BE000D080D082D088D886D888070A07E0080A23
:102BF00006E0010A05E0020A04E003D002D001D099
:102C000000D014EF3EF0030193A101D035D09381A1
:102C1000010E8F5D09014C6F000E030190590901EF
:102C20004D6F4D511A0809E2FF0A03E14C51F708B4
:102C300004E21B0E4D6FF70E4C6F1E0EAD6F400E73
:102C4000AE6F0001FAEC0AF00901A96B0C0EA86F37
:102C5000000109EC0BF00C0E0901AB6F4CC9ACF98B
:102C60000001DCEC0AF00D0E0901AB6F4DC9ACF9A7
:102C70000001DCEC0AF00301000112000901996B6C
:102C8000986B94928B923A0EB06F0001A0EC0AF010
:102C900009019951975D1CE303E19651985D18E293
:102CA00095C903F094C99AF995C99BF9B06B0001D5
:102CB000A0EC0AF09BC9EAFF9AC9E9FF01C0EFFF47
:102CC0000901942BD8B4952B982BD8B4992BE1D724
:102CD00094928B8298C901F099C902F00001120008
:102CE000A6C9A7F9A5C9A8F90901A7C901F0A8C9EA
:102CF00002F000011200010E0901A96F190EA86F60
:102D0000000109EC0BF0190E0901A56F0001BDECE3
:102D10000AF001C017F90901175303E1000E016E13
:102D20008CD0030193B107D000016DDF000E016E5E
:102D3000090183D0030190C392F38FC391F309017A
:102D4000A96BA86B000109EC0BF00901AB6B8FC3F9
:102D5000ACF90001DCEC0AF0010E0901AB6F90C385
:102D6000ACF90001DCEC0AF0090E0901186F030E42
:102D7000176F18C995F9946F976B140E966F000131
:102D80007DDF16C9A6F915C9A5F9AADF02C016F993
:102D900001C015F9090104511A0805E2FF0A19E1F9
:102DA0000351F70816E3090E186F030EE96E18C9F0
:102DB000EAFFEFB00ED008BF0CD007B90AD0065119
:102DC000040805E2FF0A05E10551EE0802E307BF2A
:102DD00001D0FF0004C990F303C98FF3090100C9B2
:102DE00003F0FFC817F900C918F900C9EAFFFFC8C6
:102DF000E9FF090EE26E0F0EE16E060E016EE6CFE0
:102E0000EEFF012EFCD702C903F00151E96E03C0A9
:102E1000EAFFEF68165108080BE1155303E015515E
:102E2000060806E101C9E9FF02C9EAFF15C9EFFF7B
:102E300003019391010E016E090100016DEF2DF068
:102E400009012AC901F02BC903F02AC92CF92BC9A1
:102E50002DF92AC9E9FF2BC9EAFFECCF2FF9ED5272
:102E6000EFCF2EF92FC9A6F92EC9A5F9000138DF39
:102E70002DC9EAFF2CC9E9FF02C0ECFFED5201C0E9
:102E8000EFFF020E09012A25016E000E2B21036EB1
:102E900001C02CF92D6F020E2A25E96E000E2B21A0
:102EA000EA6EECCF2FF9ED52EFCF2EF92FC9A6F92C
:102EB0002EC9A5F9000114DF2DC9EAFF2CC9E9FFCD
:102EC00002C0ECFFED5201C0EFFF060E09012A25FA
:102ED000016E000E2B21036E01C02CF92D6F060E22
:102EE0002A25E96E000E2B21EA6EECCF2FF9ED5268
:102EF000EFCF2EF92FC9A6F92EC9A5F90001F0DEF2
:102F00002DC9EAFF2CC9E9FF02C0ECFFED5201C058
:102F1000EFFF1200090E0901956F0E0E946F976B6B
:102F20001C0E966F0001AADE6EDE090E09012B6FE2
:102F30000E0E2A6F000184DF09010E2D08D00F53F9
:102F400006E11251060803E11351040803E0000EE4
:102F5000016E59D0145102080AE1155308E10DC958
:102F600003F00CC9E9FF0DC9EAFFEF6A16D0142D72
:102F70000BD0155309E10DC903F00CC9E9FF0DC9C8
:102F8000EAFF010EEF6E09D00CC9E9FF0DC9EAFF97
:102F9000020EEF6E000E016E36D00301535109018F
:102FA000265D2FE1030154510901275D2AE1030148
:102FB00055510901285D25E1030156510901295D9B
:102FC00020E10AC9E9FF0BC9EAFF090EE26E160EFD
:102FD000E16E060E016EE6CFEEFF012EFCD7060E67
:102FE0000A25E96E000E0B21EA6E1CC9EFFF1DC910
:102FF000ECFF1EC9ECFF1FC9ECFF010E016E03D0F0
:1030000002D0000E016E000105EF1BF01F0E09013A
:10301000A56F0001BDEC0AF001C087F9000E09019F
:1030200001B6010E000A02E1000E01D0FF0E016E92
:10303000000112009FC98AF3070E0901A0271C0E88
:10304000A123A96B020EA86F000109EC0BF0090E79
:103050000901A36FA00EA26FE96EA3C9EAFFEFCF2B
:10306000A4F9AB6BA4C9ACF90001DCEC0AF0090EC1
:103070000901A36FA00EA26F010EA225E96E000E3A
:10308000A321EA6EEFCFA4F9010EAB6FA4C9ACF98E
:103090000001DCEC0AF0090E0901A36FA00EA26F7B
:1030A000E96EA3C9EAFFEFCFA4F9020EAB6FA4C982
:1030B000ACF90001DCEC0AF0090E0901A36FA00EC7
:1030C000A26F010EA225E96E000EA321EA6EEFCFDA
:1030D000A4F9030EAB6FA4C9ACF90001DCEC0AF053
:1030E000120094928B927A0E0901B06F0001A0EC4D
:1030F0000AF0A9C9B0F9A0EC0AF094928B821200F0
:1031000094928B927A0E0901B06F0001A0EC0AF044
:103110000901ADC903F0AC51D8B4AD07AC07031039
:1031200012E0ABC903F0AAC9E9FFABC9EAFFEFCFD0
:10313000AEF9AEC9B0F90001A0EC0AF00901AA2B62
:10314000D8B4AB2BE6D794928B8200011200090110
:10315000A96B020EA86F000109EC0BF0020E090129
:10316000AB6FF80EAC6F0001DCEC0AF0030E090146
:10317000AB6F1B0EAC6F0001DCEC0AF0060E090110
:10318000A6271C0EA723090EA96FA60EA86FE96E2D
:10319000A9C9EAFFEFCFAAF9060EAB6FAAC9ACF92D
:1031A0000001DCEC0AF0090E0901A96FA60EA86F58
:1031B000010EA825E96E000EA921EA6EEFCFAAF94B
:1031C000070EAB6FAAC9ACF90001DCEC0AF00901EB
:1031D000A96B000186DFA4C9ABF9A3C9AAF909014B
:1031E000AD6B060EAC6F00018BDF030E0901A96FFA
:1031F000570EA86FA9C9ABF9AA6FAD6B060EAC6FDD
:1032000000017EDF080E0901A96F00016ADF0901D4
:10321000A55302E1000E01D0060EA86FA96F0001B0
:1032200060DF12001C0E0901A56F0001BDEC0AF061
:1032300001C092F9000E090101B2010E000A10E06E
:103240001F0EAD6F800EAE6F0001FAEC0AF01F0E7C
:103250000901AA6F800EAB6F0001EBEC0AF00901C7
:103260001C0EAA6F0A0EAB6F0001EBEC0AF01F0EEA
:103270000901AD6F080EAE6F0001FAEC0AF0030110
:1032800094510508D8A4E4D01C0E0901A56F0001D3
:10329000BDEC0AF001C092F9090101500A0BD8A453
:1032A00002D00301F1D71C0EA56F0001BDEC0AF09E
:1032B00001C092F9000E090101B2010E000AD8B452
:1032C000C6D01F0EAA6F080EAB6F0001EBEC0AF020
:1032D0000901A96BA86B000109EC0BF00901A56BB2
:1032E0000001BDEC0AF001C086F9010E0901A56FCD
:1032F0000001BDEC0AF001C087F9060E0901A56FB7
:103300000001BDEC0AF001C088F9070E0901A56FA4
:103310000001BDEC0AF001C089F90901882BD8B47D
:10332000892BAB6B88C9ACF90001DCEC0AF0010E0B
:103330000901AB6F89C9ACF90001DCEC0AF0090E98
:103340000901936F8A0E926F93C995F9946F976BE9
:10335000070E966F000192DC0901916B91510F08E5
:1033600067E31C0EA56F0001BDEC0AF001C092F9E5
:10337000000E090101B2010E000A55E08DAB53D0D9
:103380001F0EAD6F800EAE6F0001FAEC0AF01F0E3B
:103390000901AA6F800EAB6F0001EBEC0AF01C0E66
:1033A0000901AA6F0A0EAB6F0001EBEC0AF01F0EC9
:1033B0000901AD6F080EAE6F0001FAEC0AF01C0EA9
:1033C0000901A56F0001BDEC0AF001C092F90901E5
:1033D00001500A0BD8A402D00001F1D71F0EAA6F2A
:1033E000080EAB6F0001EBEC0AF00901AB6B88C96A
:1033F000ACF90001DCEC0AF0010E0901AB6F89C9E0
:10340000ACF90001DCEC0AF0090E0901936F8A0E99
:10341000926F93C995F9946F976B070E966F0001A1
:103420002DDC03D0090104D000010901912B96D7AE
:10343000AB6B86C9ACF90001DCEC0AF0010E0901A6
:10344000AB6F87C9ACF90001DCEC0AF0090103019C
:1034500000011200010E0901866F0001D7DD01C0D5
:1034600029F90901293D03D0000E016EBBD029C9FD
:103470009FF9A16BA06B0001DDDD09010E6B010E50
:103480000D6F080E106F0F6B060E116F040E126F8A
:103490000C2D0AD0146B010E136F1F69206921696E
:1034A00022692369246911D0146B020E136F0AC9B3
:1034B000E1FF0BC9E2FF090EEA6E1F0EE96E060E70
:1034C000016EE6CFEEFF012EFCD7090EEA6E150E57
:1034D000E96E030EE26E570EE16E060E016EE6CF48
:1034E000EEFF012EFCD756C31EF955C31DF954C378
:1034F0001CF953C31BF9060E0A25E96E000E0B21B9
:10350000EA6EEFCF00F0ECCF01F0ECCF02F0ECCFA1
:1035100003F000501B192A6F01501C192B6F025029
:103520001D192C6F03501E192D6F2A5103015D15B3
:10353000006E09012B5103015E15016E09012C512A
:1035400003015F15026E09012D5103016015036E21
:10355000005206E1015204E1025202E1035209E085
:1035600064C328F963C327F962C326F961C325F947
:1035700018D0060E09010A25E96E000E0B21EA6E2D
:10358000EFCF00F0ECCF01F0ECCF02F0ECCF03F086
:1035900000C025F901C026F902C027F903C028F9A7
:1035A0000301090E09012B6F0D0E2A6F000148DC83
:1035B000090E0901A46F1F0EA36F060EA56FA76B5E
:1035C0001C0EA66F0001C3DD090E0901AB6F0D0EC5
:1035D000AA6FAD6B1C0EAC6F000192DD23DE010EF5
:1035E000016E090100011200000E030193B3010EE8
:1035F000000A000101E02DD0080E09010B6F0A69D5
:10360000090E0D6F0C6F000185D4015201E133D01A
:1036100003EC16F00901095319E1080EEA6E880E51
:10362000E96E080EE26EE168060E016EE6CFEEFF6F
:10363000012EFCD708C991F807C990F806C98FF880
:1036400005C98EF8000117D004D009010301938346
:103650000001080E09010B6F0A690C6B0001FADE0C
:10366000015204E00301939305D00001000E016EA6
:1036700004D003010001010E016E86EF2DF0140E3F
:103680000301912509015E6F000E030192210901DA
:103690005F6F58515E255C6F59515F215D6F5D51C1
:1036A0001A0809E2FF0A03E15C51F70804E2F80E88
:1036B0005C5F1B0E5D5BA96B100EA86F000109EC2F
:1036C0000BF0100E0901AB6F5CC9ACF90001DCEC2A
:1036D0000AF0110E0901AB6F5DC9ACF90001DCEC19
:1036E0000AF0010E09015A5D006E000E5B59036E6F
:1036F00000505C2703505D235D511A0809E2FF0A60
:1037000003E15C51F70804E2F80E5C5F1B0E5D5BA1
:10371000120EAB6F5CC9ACF90001DCEC0AF0130EC1
:103720000901AB6F5DC9ACF90001DCEC0AF01F0EBA
:103730000901AD6F300EAE6F0001FAEC0AF01F0EFA
:103740000901A56F0001BDEC0AF001C05EF9000E91
:10375000090101BA010E000AD8B402D00001EFD766
:10376000160EA56F0001BDEC0AF001C05DF9170E41
:103770000901A56F0001BDEC0AF001C05CF9090167
:103780005CC901F05DC902F000011200140E0301D2
:1037900091250901356F000E030192210901366F51
:1037A00031513525336F32513621346F34511A0877
:1037B00009E2FF0A03E13351F70804E2F80E335F30
:1037C0001B0E345BA96BA86B000109EC0BF009011F
:1037D000AB6B33C9ACF90001DCEC0AF0010E090156
:1037E000AB6F34C9ACF90001DCEC0AF0020E090140
:1037F000AB6F33C9ACF90001DCEC0AF0030E090130
:10380000AB6F34C9ACF90001DCEC0AF01200020E17
:1038100009019F25016E000EA021036E01C0A1F9D0
:10382000A26F020E9F25E96E000EA021EA6EECCF7A
:10383000A4F9ED52EFCFA3F9A4C9A6F9A3C9A5F93C
:10384000000170EC16F0A2C9EAFFA1C9E9FF02C0AD
:10385000ECFFED5201C0EFFF040E09019F25016E40
:10386000000EA021036E01C0A1F9A26F040E9F25D6
:10387000E96E000EA021EA6EECCFA4F9ED52EFCF75
:10388000A3F9A4C9A6F9A3C9A5F9000170EC16F023
:10389000A2C9EAFFA1C9E9FF02C0ECFFED5201C0D5
:1038A000EFFF0A0E09019F25016E000EA021036E95
:1038B00001C0A1F9A26F0A0E9F25E96E000EA0219A
:1038C000EA6EECCFA4F9ED52EFCFA3F9A4C9A6F9A3
:1038D000A3C9A5F9000170EC16F0A2C9EAFFA1C9BD
:1038E000E9FF02C0ECFFED5201C0EFFF1200090E2C
:1038F00009011E6F1D6F956F946F976B140E966F75
:1039000000013EEC16F009010951F00B400803E0FC
:10391000000E016E5DD009510F0B006E00340301E3
:10392000976F9737FC0E97170901596B586B5B6BB4
:1039300097C35AF90001A3DE02C008F901C007F9D4
:103940000901326B97C331F9000120DF09010751EA
:10395000081103E0000E016E3BD0090EA06F9F6FAF
:10396000000155DF0801FF51090100110DE0FFC8FA
:10397000E9FF090100C9EAFF19C9EFFF1AC9ECFF05
:103980001BC9ECFF1CC9ECFF060E0125E96E000EF9
:103990000221EA6E15C9EFFF16C9ECFF17C9ECFF4B
:1039A00018C9ECFF03C9E9FF04C9EAFF12C9EFFF18
:1039B00005C9E9FF06C9EAFF0301975109010B5D3B
:1039C000006E000E0C5900C0EFFFEC6E010E016E90
:1039D0000001A3EF2DF00901976B966B956B946B2B
:1039E000D8908B318D6F8A318C6F89C98FF988C9D6
:1039F0008EF98DC903F08C51D8B48D078C07031054
:103A000017E08FC903F08EC900F0020E8E27D8B0E0
:103A10008F2B00C0E9FF03C0EAFFECCF03F0ED52AB
:103A2000EF50942703509523000E96239723E1D758
:103A30008A51010B006E036A005003100AE08EC920
:103A4000E9FF8FC9EAFFEF509427000E95239623D4
:103A5000972397C993F996C992F995C991F994C991
:103A600090F993C98DF992C98CF98C5302E18D5369
:103A700023E0976B966B9B6B9A6B95C999F994C9E8
:103A800098F9026A036A8C519425946F8D5195219F
:103A9000956F02509A21966F03509B21976F97C99B
:103AA00093F996C992F995C991F994C990F993C976
:103AB0008DF992C98CF9D9D795C903F0031E945199
:103AC000FF0A016E03C002F00001120094928B9273
:103AD0003A0E0901B06F0001A0EC0AF00901B06BC9
:103AE0000001A0EC0AF001C08AF994928B820901CE
:103AF0008AC901F0000112000901865307E18753CA
:103B000005E1FF0E016E026EA1D017D0862D15D0F3
:103B1000875313E10001DADF09018B6B01C08AF9D9
:103B200001C003F0000E006A0006001AFF0E031A1F
:103B300000C001F003C002F089D0A96BA86B00019E
:103B400009EC0BF00901A56B0001BDEC0AF001C006
:103B500088F9010E0901A56F0001BDEC0AF001C052
:103B600089F9100E0901AB6F88C9ACF90001DCECD2
:103B70000AF0110E0901AB6F89C9ACF90001DCEC48
:103B80000AF0090189511B081BE303E18851F7087A
:103B900017E3010E865D006E000E8759036E00501C
:103BA00088270350892389511A0809E2FF0A03E193
:103BB0008851F70804E2F80E885F1B0E895B0AD073
:103BC000010E865D006E000E8759036E0050882737
:103BD00003508923120EAB6F88C9ACF90001DCECED
:103BE0000AF0130E0901AB6F89C9ACF90001DCECD6
:103BF0000AF01F0E0901AD6F300EAE6F0001FAEC36
:103C00000AF01F0E0901A56F0001BDEC0AF001C00A
:103C10008AF9000E090101BA010E000AD8B402D0D7
:103C20000001EFD7160EA56F0001BDEC0AF001C030
:103C300088F9170E0901A56F0001BDEC0AF001C05B
:103C400089F9090188C901F089C902F0000112004F
:103C50000301975109012D252F6F000E2E21306F82
:103C6000326F2FC931F9000191DD120091C992F92B
:103C700090C993F98FC994F98EC995F992C900F04A
:103C800093C901F094C902F095C903F0120009012B
:103C900086C901F087C903F086C988F987C989F9FF
:103CA00086C9E9FF87C9EAFFECCF8BF9ED52EFCF68
:103CB0008AF98BC9A6F98AC9A5F9000170EC16F03A
:103CC00089C9EAFF88C9E9FF02C0ECFFED5201C0D3
:103CD000EFFF020E09018625016E000E8721036E9B
:103CE00001C088F9896F020E8625E96E000E8721D2
:103CF000EA6EECCF8BF9ED52EFCF8AF98BC9A6F9BA
:103D00008AC9A5F9000170EC16F089C9EAFF88C9D3
:103D1000E9FF02C0ECFFED5201C0EFFF040E090104
:103D20008625016E000E8721036E01C088F9896F18
:103D3000040E8625E96E000E8721EA6EEFCF8AF920
:103D4000ECCF8BF9ECCF8CF9ECCF8DF98DC991F9D3
:103D50008CC990F98BC98FF98AC98EF9000186DF69
:103D600089C9EAFF88C9E9FF00C0EFFF01C0ECFF85
:103D700002C0ECFF03C0ECFF080E09018625016EAE
:103D8000000E8721036E01C088F9896F080E862511
:103D9000E96E000E8721EA6EEFCF8AF9ECCF8BF93E
:103DA000ECCF8CF9ECCF8DF98DC991F98CC990F9D4
:103DB0008BC98FF98AC98EF9000158DF89C9EAFFDA
:103DC00088C9E9FF00C0EFFF01C0ECFF02C0ECFFB3
:103DD00003C0ECFF0E0E09018625016E000E87213F
:103DE000036E01C088F9896F0E0E8625E96E000EFC
:103DF0008721EA6EECCF8BF9ED52EFCF8AF98BC9B0
:103E0000A6F98AC9A5F9000170EC16F089C9EAFF84
:103E100088C9E9FF02C0ECFFED5201C0EFFF100EB0
:103E200009018625016E000E8721036E01C088F905
:103E3000896F100E8625E96E000E8721EA6EECCFA1
:103E40008BF9ED52EFCF8AF98BC9A6F98AC9A5F98A
:103E5000000170EC16F089C9EAFF88C9E9FF02C0C9
:103E6000ECFFED5201C0EFFF120E09018625016E35
:103E7000000E8721036E01C088F9896F120E862516
:103E8000E96E000E8721EA6EECCF8BF9ED52EFCF91
:103E90008AF98BC9A6F98AC9A5F9000170EC16F058
:103EA00089C9EAFF88C9E9FF02C0ECFFED5201C0F1
:103EB000EFFF1200FE0E0901336F326B3251220800
:103EC000D8A083D04B6B32C94AF94D6B240E4C6F8E
:103ED000000120EC0DF002C003F001509A0F016EBA
:103EE000030E032201C030F9090103C031F930C9C2
:103EF000E9FF31C9EAFFEF500A0865E00B0E3025F3
:103F0000E96E000E3121EA6EECCF35F9ED52EFCFBC
:103F100034F9020E2C25E96E000E2D21EA6EECCF4D
:103F200003F0ED52EF50345D4EE10350355D4BE14F
:103F300030C9E9FF31C9EAFFEF5202E132C933F972
:103F40000D0E3025E96E000E3121EA6EECCF35F909
:103F5000ED52EFCF34F92CC9E9FF2DC9EAFFECCFC0
:103F600003F0ED52EF50345D2EE10350355D2BE14F
:103F7000070E3025E96E000E3121EA6EEFCF34F9DD
:103F8000ECCF35F9ECCF36F9ECCF37F9060E2E250C
:103F9000E96E000E2F21EA6EEFCF00F0ECCF01F0BA
:103FA000ECCF02F0ECCF03F00050345D0CE1015097
:103FB000355D09E10250365D06E10350375D03E1EE
:103FC00032C901F077D0322B79D73351FE0803E1A3
:103FD000FE0E016E6FD04B6B33C94AF94D6B240E48
:103FE0004C6F000120EC0DF002C003F001509A0F5D
:103FF000016E030E032201C030F9090103C031F93B
:10400000010E3025016E000E3121036E01C034F91E
:10401000356FEA6E01C0E9FF2FC9E2FF2EC9E1FF4B
:104020000A0E016EE6CFEEFF012EFCD70D0E3025F5
:10403000016E000E31212CC9E9FF2DC9EAFFECCF3A
:1040400003F0ED52EFCF36F9EA6E01C0E9FF03C08D
:10405000ECFFED5236C9EFFF230E3025E96E000E5E
:104060003121EA6EEF960F0E3025E96E000E3121F8
:10407000EA6EEF3C01D015D00F0E3025E96E000E30
:104080003121EA6EEFCF34F934C94DF9000102EC69
:1040900000F00F0E09013025E96E000E3121EA6EA5
:1040A000EF68230E3025E96E000E3121EA6EEF82B3
:1040B00033C901F0000173EF29F0F29A8CC34DF976
:1040C0008BC34CF9F28A09014CC901F04DC902F0C9
:1040D000000112000F0E09014A25E96E000E4B2166
:1040E000EA6EEF3C01D01CD00F0E4A25E96E000E9F
:1040F0004B21EA6EEFCF4CF94CC94DF9000102ECAF
:1041000000F00F0E09014A25E96E000E4B21EA6E00
:10411000EF68230E4A25E96E000E4B21EA6EEF820E
:10412000070E4A25E96E000E4B21EA6EEE52EE5262
:10413000EC6AED52EF6AED52EF6AED52EF6A0D0E46
:104140004A25E96E000E4B21EA6EEC6AED52EF6AE9
:10415000230E4A25E96E000E4B21EA6EEFA604D02D
:10416000000103EC16F00901230E4A25E96E000E4A
:104170004B21EA6EEF96210E4A25E96E000E4B2187
:10418000EA6EEC6AED52240EEF6E230E4A25E96EBC
:10419000000E4B21EA6EEF98230E4A25E96E000EC1
:1041A0004B21EA6EEFA006D04AC9E9FF4BC9EAFFEE
:1041B000EF6A06D04AC9E9FF4BC9EAFF0A0EEF6E63
:1041C000100E4A25E96E000E4B21EA6EEC6AED52A4
:1041D000EF6A000112001F0E0901A56F0001BDEC7E
:1041E0000AF001C087F9000E090101B6010E000AAC
:1041F00002E0000E01D0010E016E00011200010E5E
:104200000901A96F190EA86F000109EC0BF0190E36
:104210000901A56F0001BDEC0AF001C086F9090192
:10422000A96B0E0EA86F000109EC0BF00E0E090130
:10423000A56F0001BDEC0AF001C088F90F0E09015D
:10424000A56F0001BDEC0AF001C089F9010E09015A
:10425000A96F190EA86F000109EC0BF0190E0901E6
:10426000A56F0001BDEC0AF001C08AF90901865171
:10427000015CD8B402D00001CAD7A96B0C0EA86F9C
:10428000000109EC0BF00C0E0901A56F0001BDEC5B
:104290000AF001C086F90D0E0901A56F0001BDEC01
:1042A0000AF001C087F909018751895D16E303E12E
:1042B0008851865D12E28651885D006E875189596A
:1042C000036E0050FF0AF80F006E1B0E035600C06D
:1042D00001F003C002F01CD01BD08651885D09E1BB
:1042E0008751895D06E1F70E016E1B0E026E10D03C
:1042F0000FD08851865D8A6F895187598B6F010E67
:104300008A5D006E000E8B59036E00C001F0026ED4
:104310000001CAEF22F0060E09019F25A56F1C0EB1
:10432000A021A66F010EA525A36F000EA621A46FE4
:10433000A96B100EA86F000109EC0BF0100E09011B
:10434000AB6FA3C9ACF90001DCEC0AF0110E090156
:10435000AB6FA4C9ACF90001DCEC0AF0010E090155
:10436000A15D006E000EA259036E0050A3270350FA
:10437000A423120EAB6FA3C9ACF90001DCEC0AF068
:10438000130E0901AB6FA4C9ACF90001DCEC0AF013
:104390001F0E0901AD6F300EAE6F0001FAEC0AF08E
:1043A0001F0E0901A56F0001BDEC0AF001C0A5F9BF
:1043B000000E090101BA010E000AD8B402D00001B2
:1043C000EFD7160EA56F0001BDEC0AF001C0A4F9ED
:1043D000170E0901A56F0001BDEC0AF001C0A3F999
:1043E0000901A3C901F0A4C902F000011200140ED2
:1043F0000301976F450E09018B6F8C6B140E892595
:104400008D6F000E8A218E6F0301952BD8B4962BE9
:1044100096C390F995C38FF90901926B916B640E65
:10442000936F88C994F9966B956B56C39AF955C3E7
:1044300099F954C398F953C397F9060E8625E96E86
:10444000000E8721EA6EEFCF9BF9ECCF9CF9ECCF01
:104450009DF9ECCF9EF9090EA06F8B0E9F6F0001A6
:1044600007EC1CF0090186C901F087C903F086C971
:104470009FF987C9A0F9140E8925A16F000E8A2122
:10448000A26F87C9A4F986C9A3F9A56BA76FA1C9B3
:10449000A6F90001A7EC18F0090E0901A06F8B0E18
:1044A0009F6FA0C9ABF9AA6FAD6B140EAC6F000182
:1044B00080EC18F00901A06B9F6BA26B140EA16F2A
:1044C000000129DF02C096F901C095F98AC39FF95E
:1044D0000901A16B0A0EA06F00011AEC18F0090E79
:1044E0000901A06F950E9F6FA0C9ABF9AA6FAD6BC4
:1044F000020EAC6F000180EC18F08AC39FF909012D
:10450000A16B140EA06F00011AEC18F0000E016EE2
:10451000026E1200010E0901866F00015CDE01527D
:10452000F9E009015D3D08D0010E866F000106EC3F
:1045300018F001C05DF909015D3D01D003D15DC9ED
:104540009FF9A16B140EA06F00011AEC18F051C96D
:1045500063F950C962F953C965F952C964F957C979
:1045600069F956C968F955C967F954C966F95BC94B
:104570006DF95AC96CF959C96BF958C96AF93F0EF6
:1045800009016F156F6FF00E6E156E6F5CC96FF9D4
:10459000000135D602C071F901C070F909017153EB
:1045A00003E17051280805E2280E705F000E715B70
:1045B00002D0716B706B736B726B756B746B090EE1
:1045C000876F620E866F000147EC1EF0140E090122
:1045D0005E27000E5F235CA30FD0040E5E27000E43
:1045E0005F23020E766F040E776F786F796B0F0E74
:1045F0006E1560096E6F04D00F0E6E1550096E6F48
:1046000056C37DF955C37CF954C37BF953C37AF97A
:10461000060E4E25E96E000E4F21EA6EEFCF00F038
:10462000ECCF01F0ECCF02F0ECCF03F000C07EF94C
:1046300001C07FF902C080F903C081F9826B060EC8
:10464000836F5FC985F95EC984F985C9A6F984C9F4
:10465000A5F9000170EC16F002C085F901C084F9DB
:10466000090E0901876F7A0E866F87C989F9886FED
:104670008B6B0C0E8A6F0001EBEC1CF001C072F921
:104680000901721F02C073F9731F73C961F972C9FE
:1046900060F94FC987F94EC986F9060E886F5FC960
:1046A0008AF95EC989F90001A2DE090E0901876F46
:1046B000620E866F87C9ABF9AA6FAD6B140EAC6F33
:1046C000000180EC18F009015CA30ED0090E876F81
:1046D000760E866F87C9ABF9AA6FAD6B040EAC6F0F
:1046E000000180EC18F009015DC99FF9A16B140E5F
:1046F000A06F00011AEC18F05FC987F95EC986F94E
:104700007CEC1DF002C061F901C060F95DC99FF940
:104710000901A16B240EA06F00011AEC18F061C909
:10472000A9F971EC18F060C9A9F971EC18F05DC92C
:104730009FF90901A16BA06B00011AEC18F012ECB3
:1047400019F009010001120009014B6B2CC94AF94B
:104750004D6B240E4C6F000120EC0DF002C003F0F5
:1047600001509A0F016E030E032201C043F90901A3
:1047700003C044F9456B1E0E4325E96E000E44212B
:10478000EA6EEF6A1F0E4325016E000E4421036E90
:1047900001C04AF94B6F000190DC4BC9EAFF4AC9DE
:1047A000E9FF02C0ECFFED5201C0EFFF210E09014D
:1047B0004325E96E000E4421EA6EEC6AED52240EA8
:1047C000EF6E0D0E2F25E96E000E3021EA6EEFA47C
:1047D0001ED0000103EC16F0090143C901F044C9E1
:1047E00003F043C94AF944C94BF9230E4325E96E46
:1047F000000E4421EA6EEFA002D0000E01D0010E9F
:104800004BC9EAFF4AC9E9FFEF6EB8EF28F0160E70
:104810004325E96E000E4421EA6EEFCF37F9ECCF65
:1048200038F9ECCF39F9ECCF3AF90E0E2F25E96EB5
:10483000000E3021EA6EECCF03F0ED52EFCF4AF9D3
:1048400003C04BF94C6B4D6B080E2F25E96E000E23
:104850003021EA6EEFCF00F0ECCF01F0ECCF02F0A8
:10486000ECCF03F00050375D006E01503859016EF7
:1048700002503959026E03503A59036E00504A5F94
:1048800001504B5B02504C5B03504D5B100E4325B7
:10489000E96E000E4421EA6EECCF03F0ED52EFCF4B
:1048A00000F003C001F0026A036A00504A5D466FDF
:1048B00001504B59476F02504C59486F03504D59A6
:1048C000496F49AF0AD0140E4325E96E000E44210A
:1048D000EA6EEC6AED52EF6A0AD0140E4325E96ED7
:1048E000000E4421EA6E33C9EFFF34C9ECFF43C91F
:1048F000E9FF44C9EAFFEF2CB5D00D0E2F25E96E74
:10490000000E3021EA6EEFB212D0000103EC16F077
:104910000D0E09012F25E96E000E3021EA6EEFA879
:1049200004D0040E456F7DEF28F0B8EF28F01A0E82
:104930004325016E000E442101C04AF94B6F040E5D
:104940002F25E96E000E3021EA6EEFCF4CF9ECCF47
:104950004DF9ECCF4EF9ECCF4FF931514C27325194
:104960004D23000E4E234F23010E4C25006E000EEA
:104970004D21016E000E4E21026E000E4F214BC9DB
:10498000EAFF4AC9E9FF00C0EFFF01C0ECFF02C027
:10499000ECFFEC6E1A0E4325E96E000E4421EA6E20
:1049A000EFCF33F9ECCF34F9ECCF35F9ECCF36F962
:1049B0000D0E2F25E96E000E3021EA6EEFB80DD0F6
:1049C00043C9E9FF44C9EAFF020EEF6E000103ECA0
:1049D00016F0120E0901456F90D343C9E9FF44C98F
:1049E000EAFF030EEF6E100E456F140E4325016EA5
:1049F000000E4421036E4B6F0E0E2F25E96E000E44
:104A00003021EA6EECCF03F0ED52EFCF4CF94BC9F9
:104A1000EAFF01C0E9FF03C0ECFFED524CC9EFFF14
:104A2000315132111AE0230E4325E96E000E442164
:104A3000EA6EEF86120E4325E96E000E4421EA6EFF
:104A400032C9ECFFED5231C9EFFF230E4325E96E69
:104A5000000E4421EA6EEF8404D0000103EC16F04E
:104A600009014BD343C9E9FF44C9EAFFEF52D8A477
:104A7000BAD0000103EC16F00D0E09012F25E96EE6
:104A8000000E3021EA6EEFB203D0040E456F35D32D
:104A90001A0E4325016E000E442101C04AF94B6FE6
:104AA000040E2F25E96E000E3021EA6EEFCF4CF98F
:104AB000ECCF4DF9ECCF4EF9ECCF4FF931514C27FB
:104AC00032514D23000E4E234F23010E4C25006E14
:104AD000000E4D21016E000E4E21026E000E4F2180
:104AE0004BC9EAFF4AC9E9FF00C0EFFF01C0ECFF74
:104AF00002C0ECFFEC6E140E4325016E000E442143
:104B0000036E4B6F0E0E2F25E96E000E3021EA6EFC
:104B1000ECCF03F0ED52EFCF4CF94BC9EAFF01C0E7
:104B2000E9FF03C0ECFFED524CC9EFFF010E432536
:104B3000016E000E4421036E01C04AF94B6FEA6E0C
:104B400001C0E9FF2EC9E2FF2DC9E1FF0A0E016E87
:104B5000E6CFEEFF012EFCD70D0E4325016E000EB1
:104B600044212FC9E9FF30C9EAFFECCF03F0ED5231
:104B7000EFCF4CF9EA6E01C0E9FF03C0ECFFED5244
:104B80004CC9EFFF43C9E9FF44C9EAFF020EEF6ECB
:104B9000160E4325E96E000E4421EA6EEFCF37F979
:104BA000ECCF38F9ECCF39F9ECCF3AF9160E4325B2
:104BB000E96E000E4421EA6E010EEE26000EEE2292
:104BC000EE22ED221A0E4325E96E000E4421EA6E14
:104BD000EFCF33F9ECCF34F9ECCF35F9ECCF36F930
:104BE000120E456F8AD21A0E4325E96E000E44213B
:104BF000EA6EEFCF3BF9ECCF3CF9ECCF3DF9ECCFCF
:104C00003EF9160E4325E96E000E4421EA6EEFCF01
:104C10003FF9ECCF40F9ECCF41F9ECCF42F9040E6B
:104C20002F25E96E000E3021EA6EEFCF33F9ECCF7D
:104C300034F9ECCF35F9ECCF36F9026A036A315119
:104C40003327325134230250352303503623160EB6
:104C50004325E96E000E4421EA6EEFCF37F9ECCF21
:104C600038F9ECCF39F9ECCF3AF9040E2F25E96E7B
:104C7000000E3021EA6EEFCF4AF9ECCF4BF9ECCFC2
:104C80004CF9ECCF4DF93B514A5DD8A428D23C51A8
:104C90004B5DD8A424D23D514C5DD8A420D23E51C6
:104CA0004D5DD8A41CD243C9E9FF44C9EAFFEF50C7
:104CB000020843E10D0E2F25E96E000E3021EA6E49
:104CC000EFA836D01A0E4325E96E000E4421EA6E95
:104CD00033C9EFFF34C9ECFF35C9ECFF36C9ECFF2F
:104CE00043C9E9FF44C9EAFF030EEF6E31513211A7
:104CF0001AE0230E4325E96E000E4421EA6EEF868A
:104D0000120E4325E96E000E4421EA6E32C9ECFF13
:104D1000ED5231C9EFFF230E4325E96E000E442109
:104D2000EA6EEF8404D0000103EC16F0090104D010
:104D3000000103EC16F00901D1D11A0E4325E96EEA
:104D4000000E4421EA6E33C9EFFF34C9ECFF35C9C8
:104D5000ECFF36C9ECFF43C9E9FF44C9EAFFEF5055
:104D60000308D8A4D4D00D0E2F25E96E000E3021F3
:104D7000EA6EEFA82DD0230E4325E96E000E4421E4
:104D8000EA6EEFB225D00F0E4325E96E000E4421E6
:104D9000EA6EEF3C01D01CD00F0E4325E96E000EE9
:104DA0004421EA6EEFCF4AF94AC94DF9000102ECFD
:104DB00000F00F0E09014325E96E000E4421EA6E52
:104DC000EF68230E4325E96E000E4421EA6EEF8260
:104DD0000D0E2F25E96E000E3021EA6EEFA04BD0AC
:104DE000110E456F160E4325E96E000E4421EA6E42
:104DF000EFCF37F9ECCF38F9ECCF39F9ECCF3AF9FE
:104E0000160E4325E96E000E4421EA6E010EEE26D1
:104E1000000EEE22EE22ED221A0E4325E96E000E60
:104E20004421EA6E010EEF24006E000EEC20016EAC
:104E3000000EEC20026E000EEC20ED52ED52ED5211
:104E400000C0EFFF01C0ECFF02C0ECFFEC6E1A0ED9
:104E50004325E96E000E4421EA6EEFCF33F9ECCF23
:104E600034F9ECCF35F9ECCF36F943C9E9FF44C941
:104E7000EAFF090EEF6E3151321144E0230E432553
:104E8000E96E000E4421EA6EEFB61BD0230E4325D7
:104E9000E96E000E4421EA6EEF86120E4325E96E9C
:104EA000000E4421EA6E32C9ECFFED5231C9EFFF2A
:104EB000230E4325E96E000E4421EA6EEF844589F6
:104EC00020D0160E4325E96E000E4421EA6E3FC93C
:104ED000EFFF40C9ECFF41C9ECFF42C9ECFF1A0EDD
:104EE0004325E96E000E4421EA6E3BC9EFFF3CC941
:104EF000ECFF3DC9ECFF3EC9ECFF000103EC16F0EE
:104F0000090104D0000103EC16F00901E7D043C900
:104F1000E9FF44C9EAFFEF50090815E1000103EC7D
:104F200016F00D0E09012F25E96E000E3021EA6EF4
:104F3000EFA808D044C94BF943C94AF900016AEC0B
:104F400020F00901CBD043C9E9FF44C9EAFFEF5083
:104F5000040862E1000103EC16F00D0E09012F2593
:104F6000E96E000E3021EA6EEFA045D0100E456FBD
:104F70001A0E4325E96E000E4421EA6E010EEF245D
:104F8000006E000EEC20016E000EEC20026E000E92
:104F9000EC20ED52ED52ED5200C0EFFF01C0ECFFEE
:104FA00002C0ECFFEC6E1A0E4325E96E000E4421A0
:104FB000EA6EEFCF33F9ECCF34F9ECCF35F9ECCF23
:104FC00036F90D0E2F25E96E000E3021EA6EEFA89E
:104FD00009D044C94BF943C94AF900016AEC20F0F1
:104FE00008D0090143C9E9FF44C9EAFF060EEF6E84
:104FF000000110D009010D0E2F25E96E000E3021A1
:10500000EA6EEFA806D043C9E9FF44C9EAFF050EDE
:10501000EF6E000162D0090143C9E9FF44C9EAFF0C
:10502000EF50050840E1000103EC16F00D0E0901F8
:105030002F25E96E000E3021EA6EEFA033D0100E5E
:10504000456F1A0E4325E96E000E4421EA6E010EEB
:10505000EF24006E000EEC20016E000EEC20026EBC
:10506000000EEC20ED52ED52ED5200C0EFFF01C0FA
:10507000ECFF02C0ECFFEC6E1A0E4325E96E000E49
:105080004421EA6EEFCF33F9ECCF34F9ECCF35F9A8
:10509000ECCF36F944C94BF943C94AF900016AEC2F
:1050A00020F009011BD043C9E9FF44C9EAFFEF50D2
:1050B000060814E1000103EC16F00D0E09012F257E
:1050C000E96E000E3021EA6EEFA808D044C94BF912
:1050D00043C94AF900016AEC20F009010ED0000131
:1050E00003EC16F0100E0901456F3EC936F93DC9B3
:1050F00035F93CC934F93BC933F9455339E0020E5F
:105100002F25E96E000E3021EA6EECCF4BF9ED52FF
:10511000EFCF4AF92FC9E9FF30C9EAFFECCF4DF9CB
:10512000ED52EFCF4CF92EC94FF92DC94EF94BC9AD
:1051300051F94AC950F94DC953F94CC952F93AC904
:1051400057F939C956F938C955F937C954F936C923
:105150005BF935C95AF934C959F933C958F945C900
:105160005CF95D695F6B5E6B00018AEC22F00901FE
:1051700000018AEF29F0060E0801FF25E96E000EF6
:1051800009010021EA6EEFCF00F0ECCF01F0ECCF87
:1051900002F0ECCF03F000C019F901C01AF902C007
:1051A0001BF903C01CF901C9E9FF02C9EAFFEFCFEF
:1051B00000F0ECCF01F0ECCF02F0ECCF03F000C038
:1051C0001DF901C01EF902C01FF903C020F9216BAF
:1051D000060E226F04C924F903C923F924C9A6F9CC
:1051E00023C9A5F9000170EC16F002C024F901C032
:1051F00023F9090E09012C6F190E2B6F2CC989F99F
:10520000886F8B6B0C0E8A6F0001EBEC1CF001C0F9
:1052100026F90901261F02C027F9271F04C987F9AB
:1052200003C986F900017CEC1DF002C029F901C018
:1052300028F909012951265D03E12851275D07E07E
:10524000000103EC16F0010E016E6BD009012E6B0C
:105250002D6B000128EC1EF0090E09012C6F050EC4
:105260002B6F2CC995F9946F976B140E966F0001F4
:105270003EEC16F0090E0901876F050E866F0001DE
:1052800047EC1EF0090111390F0B006E0036003695
:10529000FC0E00160050EC0F2A6F2A51035D2B6F95
:1052A000000E04592C6F140E2B5D036F000E2C5949
:1052B000046F11390F0B006E00342B6F2B37FC0E6F
:1052C0002B172E6B2BC92DF9000128EC1EF0090EAF
:1052D00009012D6F050E2C6F00C92FF9FFC82EF99B
:1052E00000015AEF1FF001C025F909012551FE0800
:1052F00013E025C92CF900C92EF9FFC82DF9090EB4
:10530000306F050E2F6F04C932F903C931F900015E
:10531000A4EF23F004D00901000103EC16F0010E04
:10532000016ED1EF2DF0040E09015725016E000E1C
:105330005821036E01C059F95A6F040E5725E96EC2
:10534000000E5821EA6EECCF5CF9ED52EFCF5BF91D
:105350005CC9A6F95BC9A5F9000170EC16F05AC941
:10536000EAFF59C9E9FF02C0ECFFED5201C0EFFFAF
:10537000060E09015725016E000E5821036E01C06B
:1053800059F95A6F060E5725E96E000E5821EA6E3C
:10539000ECCF5CF9ED52EFCF5BF95CC9A6F95BC9C4
:1053A000A5F9000170EC16F05AC9EAFF59C9E9FFE6
:1053B00002C0ECFFED5201C0EFFF020E09015725BC
:1053C000016E000E5821036E01C059F95A6F020E8A
:1053D0005725E96E000E5821EA6EECCF5CF9ED52CC
:1053E000EFCF5BF95CC9A6F95BC9A5F9000170ECC8
:1053F00016F05AC9EAFF59C9E9FF02C0ECFFED52A5
:1054000001C0EFFF1200090E0901586F0B0E576F14
:1054100058C995F9946F976B080E966F00013EEC92
:1054200016F00901566B556B06C903F005C9E9FF73
:1054300006C9EAFFEFCF57F9596B140E586F5B6B33
:1054400057C95AF900013FEC1BF002C054F901C0E2
:1054500053F9090105C9E9FF06C9EAFF080EEF5C27
:10546000EF6E06C903F005C9E9FF06C9EAFFEFCFF1
:1054700057F904C995F903C994F9976B57C996F977
:1054800000013EEC16F0090E0901586F0B0E576F24
:10549000000149DF090101C9E9FF02C9EAFF0BC99F
:1054A000EFFF07C9E9FF08C9EAFF10C9ECFFED5299
:1054B0000FC9EFFF09C9E9FF0AC9EAFF12C9ECFFEA
:1054C000ED5211C9EFFF5551535D03E15651545D43
:1054D00002E0000E01D0010E016E0001FCEF2DF084
:1054E000010E0901866F000106EC18F001C053F9A6
:1054F0000901533D01D079D053C99FF9A16B140E16
:10550000A06F00011AEC18F0036A09010451080F9A
:10551000516F000E0320526F0A6B01C909F90C6B21
:105520000B6B06C90EF905C90DF908C910F907C9B1
:105530000FF9090EEA6E110EE96E03C9E2FF02C906
:10554000E1FF0451016E04E0E6CFEEFF012EFCD72F
:10555000090E586F576F0001E6DE080E0901042599
:10556000556B546F00C987F9FFC886F9010E886F23
:1055700055C98AF954C989F90001F7EC21F0090EDF
:105580000901556F546FAB6FAA6F52C9ADF951C97C
:10559000ACF9000180EC18F00901A06B140E9F6FAC
:1055A00052C9A2F951C9A1F900018BEC21F002C046
:1055B0000CF901C00BF953C99FF90901A16B160E33
:1055C000A06F00011AEC18F0090E0901556F0B0EBF
:1055D000546F55C9ABF9AA6FAD6B020EAC6F0001E9
:1055E00080EC18F012EC19F0090100012AEF2EF0FE
:1055F00009010A6B0801FF6BFF512208D8A03BD2BA
:1056000009014B6BFFC84AF94D6B240E4C6F00012A
:1056100020EC0DF002C003F001509A0F016E030E52
:10562000032201C004F9090103C005F9230E042572
:10563000E96E000E0521EA6EEFB608D0230E0425B0
:10564000E96E000E0521EA6EEFA801D011D204C95F
:10565000E9FF05C9EAFFEF500A0810E004C9E9FFB5
:1056600005C9EAFFEF520BE1230E0425E96E000E97
:105670000521EA6EEF50010B010801E1F9D104C9DF
:10568000E9FF05C9EAFFEF5003080BE1230E0425EB
:10569000E96E000E0521EA6EEF50010B010801E1F1
:1056A000E7D100015DEC20F002C003F901C002F96E
:1056B0001F0E09010425E96E000E0521EA6EECCFEC
:1056C00003F0ED52EFCF01F00351035C04E305E179
:1056D0000150025D02E3000E01D0010E036A0310C7
:1056E0001BE01F0E0425E96E000E0521EA6EECCFCB
:1056F00003F0ED52EF50FF080B6FFF0E03540C6FD9
:1057000002510B2703510C23010E0B25016E000ED5
:105710000C21036E015010D01F0E0425E96E000EFF
:105720000521EA6EECCF03F0ED52EF50025D006E02
:1057300003500359036E0050006F03C001F9210E9E
:105740000425E96E000E0521EA6EECCF03F0ED5260
:10575000EFCF01F00151035C05E303E10051015C6F
:1057600001E386D1010E866F0001EBEC20F00152BF
:1057700001E181D11F0E09010425016E000E0521F2
:10578000036E01C00BF90C6F00015DEC20F00CC939
:10579000EAFF0BC9E9FF02C0ECFFED5201C0EFFFC9
:1057A000210E09010425E96E000E0521EA6ED8904C
:1057B000EF34026EEC34036E0250ED52EF6E03C014
:1057C000ECFF1E0E0425E96E000E0521EA6EEF2A9D
:1057D00004C9E9FF05C9EAFF010EEF5CF70FD8B075
:1057E000C7D0090F00013EEF2DF0020E09010A6F2C
:1057F000BFD01E0E09010425E96E000E0521EA6ED8
:10580000EF50030803E3120E0A6F16D0230E04258F
:10581000E96E000E0521EA6EEFA006D004C9E9FF8B
:1058200005C9EAFFEF6A08D0020E0A6F04C9E9FF52
:1058300005C9EAFF010EEF6E9BD01E0E090104257B
:10584000E96E000E0521EA6EEF50030821E30F0E0A
:105850000425E96E000E0521EA6EEF3C01D013D05D
:105860000F0E0425E96E000E0521EA6EEFCF0BF94D
:105870000BC99FF9A16BA06B00011AEC18F012EC98
:1058800019F004D00901100E0A6F000128D0090197
:105890000F0E0425E96E000E0521EA6EEF3C01D0E3
:1058A00015D00F0E0425E96E000E0521EA6EEFCF2C
:1058B0000BF90BC94DF9000102EC00F00F0E0901C4
:1058C0000425E96E000E0521EA6EEF68110E0A6FDD
:1058D00004C9E9FF05C9EAFF040EEF6E00010901E2
:1058E00047D01E0E09010425E96E000E0521EA6E5F
:1058F000EF50030803E3010E0A6F08D005C94BF906
:1059000004C94AF900016AEC20F0090131D005C947
:105910004BF904C94AF96AEC20F0090129D005C9FC
:105920004BF904C94AF96AEC20F0090121D0010EB3
:1059300009010A6F04C9E9FF05C9EAFF090EEF6E04
:1059400017D01E0E09010425E96E000E0521EA6E2E
:10595000EF50030803E3010E0A6F08D005C94BF9A5
:1059600004C94AF900016AEC20F0090101D00901DB
:105970000A53D8B47DD00AA90FD0160E0425E96EBB
:10598000000E0521EA6EEFCF06F9ECCF07F9ECCF58
:1059900008F9ECCF09F91AD0160E0425E96E000EAD
:1059A0000521EA6EEFCF06F9ECCF07F9ECCF08F945
:1059B000ECCF09F9160E0425E96E000E0521EA6EFA
:1059C000010EEE26000EEE22EE22ED22010E04253F
:1059D000016E000E0521036E01C00BF90C6F0B0E5A
:1059E0000425E96E000E0521EA6EECCF0EF9ED52AA
:1059F000EFCF0DF90D0E0425E96E000E0521EA6EBC
:105A0000ECCF10F9ED52EFCF0FF91A0E0425E96E25
:105A1000000E0521EA6EEFCF11F9ECCF12F9ECCFB1
:105A200013F9ECCF14F903C04FF901C04EF90EC9B8
:105A300051F90DC950F910C953F90FC952F909C9E3
:105A400057F908C956F907C955F906C954F914C9CF
:105A50005BF913C95AF912C959F911C958F90AC998
:105A60005CF95D695F6B5E6B00018AEC22F00901F5
:105A70000801FF2BC1D5000134EF2EF0E824F76AAE
:105A8000F736970FF66E5A0EF7220A00F550FA6EA7
:105A90000800F550F96EEA57F2573A58E2580E5995
:105AA0000E591E592E5942590801FE91FE919251EC
:105AB000F90FD8B0D5D0070F000135EF2EF0080E42
:105AC0000901006F930E0801FF6F080E0901026FB4
:105AD000FD0E016F00017BEF16F0015203E108019A
