:0600000094EF35F0120040
:08000800046ED8CF05F0E0CF33
:1000100006F00001E9CF0CF0EACF07F0E1CF08F0DD
:10002000E2CF09F0D9CF0AF0DACF0BF0F3CF12F01C
:10003000F4CF13F0FACF14F0F5CF15F0F6CF16F099
:10004000F7CF17F000C00EF001C00FF002C010F0A3
:1000500003C011F0F2AA30EF00F0F2B483EF00F029
:100060009DA036EF00F09EB0D5EF00F0F2A83CEF77
:1000700000F0F2B2E3EF00F0F0A642EF00F0F0B0D3
:10008000FDEF00F00EC000F00FC001F010C002F054
:1000900011C003F00CC0E9FF07C0EAFF078E08C0DB
:1000A000E1FF09C0E2FF0AC0D9FF0BC0DAFF12C0AE
:1000B000F3FF13C0F4FF14C0FAFF15C0F5FF16C01C
:1000C000F6FF17C0F7FF045006C0E0FF05C0D8FFD9
:1000D0001000F76AE20FF66E000EF7220900F550E5
:1000E0001200280C0106F76AF60FF66E000EF722D2
:1000F0000900F5501200424F4C45544552415F50A3
:10010000414741444F0003018B2BD8B48C2B8E2BDD
:100110008E510B0802E28D2B8E6B340ED76E8C0E37
:10012000D66EF294000142EF00F0536F6C69636980
:10013000747564204152502E202020202020000081
:10014000434F4E454354414E444F2E2E2E202020E7
:100150002020202000004572726F7220656E20659D
:100160006C20736F636B65742E200000434F4E4507
:10017000435441444F2020202020202020202020B4
:100180000000444553434F4E45435441444F2020C3
:10019000202020202000444553434F4E45435441E6
:1001A000444F20202020202020000201112B1F2A54
:1001B000892B7C2B8B2B0B0ECF6EDC0ECE6E9E9084
:1001C000000142EF00F0938081A0FDD70201116B86
:1001D000010E0C6F036A0F51160FE96E020E032019
:1001E000EA6E010EEF6E0F2B0F511A0802E1010E9D
:1001F000106FF292000142EF00F0938281A2FDD7CE
:100200000201116B010E0C6F036A0F51160FE96E9C
:10021000020E0320EA6EEF6A0F2B0F511A0802E15B
:10022000010E106FF090000142EF00F00C494E49B2
:100230004349414E444F0000446961733A2575209B
:100240005041474F3A25640052657374616E3A25F8
:10025000752000005449454D504F204445205052D0
:100260005545424100002020484120455850495200
:1002700041444F20202000000C0A202020544F4DE4
:100280004520535520424F4C45544F0A2059204198
:1002900056414E434520504F52204641564F520042
:1002A0000C00202020202020202020202020202082
:1002B0002020202020200000202020253032642013
:1002C0002530326420253032642F253032642F25CA
:1002D0003032642020202000202020253032643A53
:1002E0002530326420253032642F253032642F25AA
:1002F00030326420202020002020205757572E41E4
:1003000043434553412E4D4520202020000020200E
:1003100020202020204143434553412020202020FD
:10032000202000002020202020202020202020200D
:10033000202020202020202000002020486F7261F3
:100340002041637475616C697A61646120200000EA
:10035000454E312D2530384C58000C0A20202020E5
:10036000204249454E56454E49444F00424F544F56
:100370004E5F424F4C45544F0000466F6C696F3AD8
:1003800025730000504C415A4120434F4D45524384
:1003900049414C2034207920313300005246433A01
:1003A00042414D543937303532383834410A000033
:1003B0003420706F6E69656E746520313330322C75
:1003C00020636F6C6F6E69612043656E74726F207D
:1003D0002043502037323030300A507565626C61EE
:1003E0002C20507565626C610A00253032642F251F
:1003F0003032642F32302530326420253032643A76
:10040000253032643A253032640054415249464125
:100410003A24313720486F7261206F204672616341
:1004200063696F6E202020202020202020202020A3
:100430002020202020202020200A0000544F4C455E
:1004400052414E4349413A35206D696E2E206C6110
:10045000207072696D65726120686F726120202062
:1004600020202020202020202020200A0000486F6B
:10047000726172696F733A646520373A3030206177
:100480002032313A30306872732E206465206C75EA
:100490006E6573206120766965726E65730A00006F
:1004A00053616261646F202020646520383A3030E7
:1004B00020612032303A30306872732E20202020A4
:1004C0002020202020202020202020202020200A42
:1004D0000000446F6D696E676F2020646520383AB4
:1004E000303020612031393A30306872732E20204C
:1004F00020202020202020202020202020202020FC
:10050000200A000022414343455341222061757473
:100510006F6D6174697A6163696F6E20000077772F
:10052000772E6163636573612E6D6520206175743C
:100530006F6D6174697A6163696F6E406163636551
:1005400073612E6D65001D688C001D7701001D68AC
:100550008C001D770100090107B102D0899801D0F4
:100560008988929807B302D0899401D089849294A3
:1005700007B502D0899201D08982929207B702D042
:10058000899001D089809290000092968986060E0B
:10059000006E002EFED70000929689960001120090
:1005A00096948D94C70E006E002EFED700D00901E0
:1005B000045303E096948D8402D096948D940000A9
:1005C000929689960539066F0F0E061706C907F928
:1005D0000001C1DF090105510F0B066F076F000114
:1005E000BADF1200090EEA6EE96AEF500EE00C0E57
:1005F000016E006A002EFED7012EFBD7F70E006EAB
:10060000002EFED700D0EF2EF2D7120009010151C3
:10061000010A000107E0030A08E0010A0AE0070AEC
:100620000CE010D00901026B0FD0400E0901026FDF
:100630000BD0140E0901026F07D0540E0901026F8E
:1006400003D000010901026B010E005D0227025177
:100650008009036F046B056F0001A2DF120008011F
:10066000FF510C0A000105E0060A12E0020A1AE036
:1006700020D00901046B010E056F000191DF010E0E
:1006800002018C6F020E0901006F0001ABDF18D070
:1006900002018C2B010E0901006F8CC201F90001CF
:1006A000B5DF0ED00901046B100E056F000178DF75
:1006B00007D0010E0901046FFFC805F9000170DFC2
:1006C00012000900F5520CE0F6CFFCF8F7CFFDF868
:1006D000F5CFFFF8C4DFFCC8F6FFFDC8F7FFF1D780
:1006E00012009388938A63EF36F0010E02018C6F3B
:1006F00096948D9492968996230E0901006F0001BD
:1007000071DF0801F96BF95102080DE3030E0901CD
:10071000076F000120DF050E0901006F000162DF95
:100720000801F92BF0D7020E0901076F000113DF52
:100730000801F96BF951030813E3036AF951000149
:10074000C8DC0801FA6F0901046B056F000128DF9E
:10075000050E0901006F000145DF0801F92BEAD7FA
:10076000000165EF36F0010E0801F96FF9510E082E
:10077000D8A05DD1010EF95DF20FD8B0D7D00E0F21
:1007800000011AEF05F0080EEA6EFA0EE96E020E8D
:10079000E26E8D0EE16EE752E6CFEEFFFCE108015E
:1007A000C5D00001080EEA6EFA0EE96E020EE26E86
:1007B000990EE16EE752E6CFEEFFFCE10801B6D0FC
:1007C0000001080EEA6EFA0EE96E020EE26EA50E48
:1007D000E16EE752E6CFEEFFFCE10801A7D0000191
:1007E000080EEA6EFA0EE96E020EE26EB10EE16ECE
:1007F000E752E6CFEEFFFCE1080198D00001080EB9
:10080000EA6EFA0EE96E020EE26EBD0EE16EE7527E
:10081000E6CFEEFFFCE1080189D00001080EEA6E88
:10082000FA0EE96E020EE26EC90EE16EE752E6CFF5
:10083000EEFFFCE108017AD00001080EEA6EFA0E24
:10084000E96E020EE26ED50EE16EE752E6CFEEFFE4
:10085000FCE108016BD00001080EEA6EFA0EE96EA9
:10086000020EE26EE10EE16EE752E6CFEEFFFCE132
:1008700008015CD00001080EEA6EFA0EE96E020E65
:10088000E26EED0EE16EE752E6CFEEFFFCE108010D
:100890004DD00001080EEA6EFA0EE96E020EE26E0D
:1008A000F90EE16EE752E6CFEEFFFCE108013ED023
:1008B0000001080EEA6EFA0EE96E030EE26E050EF6
:1008C000E16EE752E6CFEEFFFCE108012FD0000118
:1008D000080EEA6EFA0EE96E030EE26E110EE16E7C
:1008E000E752E6CFEEFFFCE1080120D00001080E40
:1008F000EA6EFA0EE96E030EE26E1D0EE16EE7522D
:10090000E6CFEEFFFCE1080111D00001080EEA6E0F
:10091000FA0EE96E030EE26E290EE16EE752E6CFA3
:10092000EEFFFCE1080102D000010801416A406AC3
:1009300040C01BF0415240E1405009083DE3220E07
:100940004024E96E000E4120EA6EF9510A0DF35081
:1009500040240901086F000E4120096FF2CF0AF907
:10096000F29E09C9AAFF08C9A9FFA69CA69EA68057
:10097000A8500ABFF28EEF6E220E4024E96E000EE0
:100980004120EA6EEFCF06F9FA0E4024E96E080E18
:100990004120EA6EEF50065D03E008010DD0090129
:1009A000402AD8B4412A40500A0804E1415202E1E9
:1009B000010E1B6E0801BED71B5237E1416A406A27
:1009C000FA0E4024E96E080E4120EA6EEF522DE047
:1009D000F9510A0DF35040240901066F000E412021
:1009E000076FFA0E4024E96E080E4120EA6EEFCF41
:1009F00008F9F250006EF29E07C9AAFF06C9A9FFC6
:100A000008C9A8FFA69CA69EA6840F01550EA76E36
:100A1000AA0EA76EA682A6B2FED7A6940050F21226
:100A2000402AD8B4412A0801CBD7F92B9FD6000120
:100A300067EF36F0E824F76AF7364F0FF66E0A0EC6
:100A4000F7220A00F550FA6E0800F550F96E860795
:100A5000A407C207E007FE071C083A0858087608F2
:100A60009408B208D008EE080C090301576B040E75
:100A7000586FA30E596F5A6B5B6B110E5C6F0001C0
:100A800069EF36F0C00E0301536FA80E546F010ECC
:100A9000556F970E566FC00E616FA80E626F010EF4
:100AA000636FFE0E646F5D695E695F69606B000174
:100AB0006BEF36F0C00E0801E36FA80EE46F010E75
:100AC000E56F960EE66F00016DEF36F0830ED56E82
:100AD000340ED76E8C0ED66EF28AC00EF2124EEF26
:100AE00009F094968B96948894928B8294908B8044
:100AF000F8EF06F00901B16BB151070814E3D89083
:100B0000B03702E28B9A01D08B8A949A94968B86A6
:100B1000948882B802D0D89001D0D880B237949609
:100B20008B96B12BE9D7B2C901F000011200949263
:100B30008B92A5C9A7F9A5C9B0F90001DBDF0901AE
:100B4000B06B0001D7DF01C0A6F994928B82090136
:100B5000A6C901F00001120094928B920901B069BC
:100B60000001C8DF94928B820DEF07F094928B9274
:100B70000901AB514009AD6FB06F0001BBDFACC9DB
:100B8000B0F9B8DF94928B82120094928B92090193
:100B9000AA51A009AC6FB06F0001ACDFABC9B0F9CE
:100BA000A9DF94928B82120094928B920901AD512D
:100BB0008009AF6FB06F00019DDFAEC9B0F99ADF59
:100BC00094928B8212001F0E0901AA6F030EAB6F65
:100BD0000001DBDF090E0901AB6FA80EAA6F010E41
:100BE000AA25E96E000EAB21EA6EEFCFAEF91F0E1B
:100BF000AD6F0001D9DF120094928B9203C905F901
:100C000003C9B0F9000176DF0901B06B000172DFA2
:100C10000901B06B00016EDF01C004F994928B8270
:100C2000090104C901F000011200020E0901A96FB7
:100C3000140EA86F0001C7DF140E0901AB6FFEC8C8
:100C4000ACF9000193DF080E0901026F016901C9C7
:100C5000E9FFEA6EEFCFACF9160EAB6F000186DF4D
:100C6000080E0901026F0169010E0125E96E000EEF
:100C70000221EA6EEFCFACF9170EAB6F000176DF01
:100C8000030E0901A96F0A0EA86F00019CDF0A0E6E
:100C90000901036F0001B0DF01C001F9000E090175
:100CA00001B0010E000AD8B402D00001F0D7000153
:100CB0001200020E0901A96F140EA86F000183DF54
:100CC000140E0901AB6FFEC8ACF900014FDF120E24
:100CD0000901AB6F010EAC6F000148DF030E090183
:100CE000A96F0A0EA86F00016EDF0A0E0901036FDB
:100CF000000182DF01C001F9000E090101B0010EFF
:100D0000000AD8B402D00001F0D7020EA96F140E69
:100D1000A86F000158DF120E0901AB6FAC6B000128
:100D200025DF180E0901036F000166DF01C0FFF81F
:100D3000190E0901036F00015FDF01C000F9FFC850
:100D400001F0090100C902F0000112001F0E0901A3
:100D5000AA6F0C0EAB6F000118DF0801FE6B0001DB
:100D6000A8DF02C0FDF801C0FCF80801FA51020832
:100D700004E1FA6BFDB1FA2B0BD0FD91FAB1FD81C4
:100D8000FE6BFDC800F9FCC8FFF800014EDF08014A
:100D9000020E0901A96FA86F000115DF020E0901FB
:100DA000036F000129DF01C0FBF80801FB91FAB1D4
:100DB000FB81020E0901AB6FFBC8ACF90001D6DE66
:100DC0000801FA5302E0150E01D0120EFE6F040E58
:100DD0000901AB6FFEC8ACF90001C8DE1F0E0901A6
:100DE000AD6F040EAE6F0001DFDEDBEF07F079D6EA
:100DF0001D0E0901A56F00019ADE01C0F9F8080176
:100E0000F9A702D00001F4D7F951FF0A010BD8B4B9
:100E100002D00001EDD700019FD6010E0901006F3D
:100E20000001F2EC02F003018A6B9381906B8F6BEF
:100E3000080E0901AB6FAC6B000198DE090E0901C9
:100E4000AB6FAC6B000192DE0C0E0901AB6FF70EBD
:100E5000AC6F00018BDE0D0E0901AB6F1B0EAC6F8A
:100E6000000184DE0A0E0901AB6FF70EAC6F0001C2
:100E70007DDE0B0E0901AB6F1B0EAC6F000176DE41
:100E8000040E0901AB6FF80EAC6F00016FDE050EAA
:100E90000901AB6F1B0EAC6F000168DE020E090189
:100EA000A96FA86B00018FDE0901AB6B0D0EAC6F53
:100EB00000015CDE020E0901AB6F320EAC6F000167
:100EC00055DE030E0901AB6F400EAC6F00014EDE24
:100ED000090E0901AB6F3F0EAC6F000147DE060E35
:100EE0000901AB6F120EAC6F000140DE070E090165
:100EF000AB6F0C0EAC6F000139DE0A0E0901AB6F4F
:100F0000EE0EAC6F000132DE0B0E0901AB6F050E69
:100F1000AC6F00012BDE030E0901A96F040EA86F50
:100F2000000151DE040E0901AB6F57C3ACF900019B
:100F30001DDE050E0901AB6F58C3ACF9000116DECA
:100F4000020E0901AB6F59C3ACF900010FDE030EAD
:100F50000901AB6F5AC3ACF9000108DE0901AB6BA4
:100F60005BC3ACF9000102DE010E0901AB6F5CC38B
:100F7000ACF90001FBDD120E0901A56F0001D7DD00
:100F800001C094F3100E0801FE6F010E0901006FFD
:100F90000801FF6B000149DE140E0801FE6F040E0C
:100FA0000901006F720E0801FF6F00013EDE0801AB
:100FB000FA6B0001CBD61F0E0901AD6F040EAE6FA8
:100FC0000001F2DD4FEF09F00301939308018869F6
:100FD00089698A698B698C698D69916B906B8F6B5C
:100FE0008E6B000150EF09F009014A514C03F3CF19
:100FF00001F0F4CF00F04D03F35000264B514C03A9
:10100000F3500020026E00011200FFC889F3FEC8F1
:1010100088F3FDC887F3FCC886F32DEF09F00901BA
:10102000046B056B010E066FDA6AD96A080E096F48
:10103000FC0E086F090EEA6EE96A09C9E2FF08C9E9
:10104000E1FF06C907F9D890E550EE02F3500423FA
:10105000F4500523072FF7D704C9DEFF05C904F9AB
:10106000056BD8B0052B082BD8B4092B062B0651DD
:101070000508E0E1000173EF08F0016A026A006A06
:10108000036A09010E5102E10D5118E0100E0F6FB5
:10109000D8900B370C37003603360E51035C02E153
:1010A0000D51005C07E30D51005ED8A003060E5100
:1010B000035ED880013602360F2FEAD700011200F6
:1010C00089C3FFF888C3FEF887C3FDF886C3FCF820
:1010D000410E0901036FC60E026F4E0E016F6D0EB9
:1010E000006F00019CD7390E080100240301866FB0
:1010F000300E080101200301876F000E0801022055
:101100000301886F000E080103200301896F88C363
:1011100000F089C301F0026A036A01C0FEF800C052
:10112000FDF801C00CF900C00BF97F0E09010E6F2C
:101130000D690001A2DF00C001F003C002F02EEF34
:1011400009F00801F96BF95122086FE309014B6BB3
:10115000F9C84AF94D6B240E4C6F000145DF02C0FF
:1011600003F001509A0F016E030E032201C0FAF83A
:10117000080103C0FBF8FAC8E9FFFBC8EAFF0A0E42
:10118000EF6E230EFA25E96E000EFB21EA6EEF905A
:10119000230EFA25E96E000EFB21EA6EEF82230E84
:1011A000FA25E96E000EFB21EA6EEF84230EFA2584
:1011B000E96E000EFB21EA6EEF98230EFA25E96E28
:1011C000000EFB21EA6EEF960F0EFA25E96E000E77
:1011D000FB21EA6EEF3C01D013D00F0EFA25E96E29
:1011E000000EFB21EA6EEFCF4DF9000102EC00F09A
:1011F0000F0E0801FA25E96E000EFB21EA6EEF687A
:10120000210EFA25E96E000EFB21EA6EEC6AED5222
:10121000240EEF6E100EFA25E96E000EFB21EA6E29
:10122000EC6AED52EF6AF92B8ED7D6508627D7504D
:101230008723CE508627CF508723CC508627000E99
:101240008723B2508627B3508723FF6BFE6B87C876
:10125000FDF886C8FCF80001D8D632D702C099F351
:1012600001C098F3040E03019927995112080AE26C
:10127000FF0A03E19851870805E2880E985F130E74
:10128000995BF3D79951030802E3040E99270001F3
:1012900051EF09F00801926B000118D4A8D594D63B
:1012A00050D76FEF36F0080E016E0E0E006E002E56
:1012B000FED78A9893980E0E006E002EFED7090175
:1012C0000F378A9AD8B0938AD8A0939A938881A826
:1012D000FED7012E01D002D00001E7D70E0E006E1E
:1012E000002EFED78A9893980000938A0E0E006E07
:1012F000002EFED70E0E006E002EFED7938881A81A
:10130000FED7016A0E0E006E002EFED781BA018054
:101310008A9893988A9A939A00011200080E0901FC
:101320000D6F00C00EF9938A0E0E006E002EFED7D0
:10133000938881A8FED781BAD88081AAD890013637
:101340000E0E006E002EFED793988A980D2FEBD7C5
:10135000938A0E0E006E002EFED78A9A0E51D8A4E4
:10136000939A0000938881A8FED70E0E006E002E7F
:10137000FED78A9893980E0E006E002EFED78A9A9A
:10138000939A000101EF0AF0938A0E0E006E002E70
:10139000FED793880E0E006E002EFED78A9A939A7F
:1013A0000E0E006E002EFED78A989398A00E0901AB
:1013B0000F6F000178DF0AC90CF909010D6B0AC92A
:1013C0000FF9000170DF09C90FF96DDF938A0E0E66
:1013D000006E002EFED793880E0E006E002EFED7F4
:1013E00081A8FED78A9A939A0E0E006E002EFED721
:1013F0008A989398A10E09010F6F000154DF006ACB
:101400008DD701C00BF9939A0000938881A8FED76D
:101410000E0E006E002EFED700D00000938A0E0E36
:10142000006E002EFED709010BC901F00001120069
:10143000938A0E0E006E002EFED793880E0E006E5D
:10144000002EFED78A9A939A0E0E006E002EFED7BB
:101450008A989398A00E09010F6F000124DF0AC932
:101460000DF909010E6B0AC90FF900011CDF09C94A
:101470000FF919DF0BC90FF916DF939A0000938853
:1014800081A8FED70E0E006E002EFED700D0000001
:10149000938A0E0E006E002EFED7938A0E0E006EFB
:1014A000002EFED793880E0E006E002EFED78A9A6D
:1014B000939A0E0E006E002EFED78A989398A00E77
:1014C00009010F6F0001EFDE015009010C9101B01D
:1014D0000C810CA11ED0938A0E0E006E002EFED73A
:1014E00093880E0E006E002EFED781A8FED78A9A32
:1014F000939A0E0E006E002EFED78A989398A00E37
:101500000F6F0001D0DE015009010C9101B00C8178
:10151000E0D7939A0000938881A8FED70E0E006E44
:10152000002EFED700D00000938A0E0E006E002E13
:10153000FED7000112000900F6CFFBF8F7CFFCF848
:10154000F5CFFFF82FEC03F0FBC8F6FFFCC8F7FF60
:101550000801FA2F01D002D00001EDD700011200DE
:1015600009011451016A135D03E213C900F00CD0A4
:10157000006A080E156F133700361451005CD8B09E
:10158000006E0136152FF7D7000112000150FAC87E
:1015900013F9640E0901146F0001E2DF00C0FAF8CC
:1015A0000150300E08E10801FBA30FD0FBB70DD0AE
:1015B000FBB9200E04D00801FB97FB99FB810126A3
:1015C00001C0FFF800012FEC03F0FAC813F90A0E6E
:1015D0000901146F0001C4DF00C0FAF80150300E99
:1015E00008E10801FBB70BD0FBA109D0FBB9200E25
:1015F0000001012601C0FFF82FEC03F00801300EB6
:10160000FA27FAC8FFF800012FEC03F01200200EB1
:101610000801FAA9300EFB6FF9C800F000AE08D03F
:10162000001E002A00C0F9F82D0EFB6FFA8FFA8118
:101630000150F9C813F9640E0901146F000190DF1D
:1016400000C0F9F8300E01240801FC6FF9C813F945
:101650000A0E0901146F000183DF300E0024080117
:10166000FE6F300E0124FD6FFBC800F0300EFC5DF4
:1016700004E0FA83FABFFA8512D0FBC8FCF8200E0A
:10168000FB6F300EFD5D04E0FA81FABFFA8307D0EC
:10169000D8A4FA8104E1FCC8FDF8200EFC6FFAB56D
:1016A00005D0FAB308D0FAB10BD00FD0FBC8FFF8C1
:1016B00000012FEC03F0FCC8FFF800012FEC03F051
:1016C000FDC8FFF800012FEC03F0FEC8FFF8000191
:1016D0002FEC03F0F7EF36F0D0500F0BD0A8000E30
:1016E000D080D082D088D886D888070A07E0080A38
:1016F00006E0010A05E0020A04E003D002D001D0AE
:1017000000D032EF37F0030193A101D035D093819F
:10171000010E8F5D09014C6F000E03019059090104
:101720004D6F4D511A0809E2FF0A03E14C51F708C9
:1017300004E21B0E4D6FF70E4C6F1E0EAD6F400E88
:10174000AE6F0001D4EC05F00901A96B0C0EA86F77
:101750000001E3EC05F00C0E0901AB6F4CC9ACF9CC
:101760000001B6EC05F00D0E0901AB6F4DC9ACF9E7
:101770000001B6EC05F00301000112000901996BAC
:10178000986B94928B923A0EB06F00017AEC05F050
:1017900009019951975D1AE303E19651985D16E2AC
:1017A00095C99BF994C99AF9B06B00017AEC05F0E0
:1017B0009BC9EAFF9AC9E9FF01C0EFFF0901942B19
:1017C000D8B4952B982BD8B4992BE3D794928B82CD
:1017D00098C901F099C902F000011200A6C9A7F941
:1017E000A5C9A8F90901A7C901F0A8C902F000011B
:1017F0001200010E0901A96F190EA86F0001E3EC98
:1018000005F0190E0901A56F000197EC05F001C064
:1018100017F90901175303E1000E016E90D003017F
:1018200093B107D000016FDF000E016E090187D070
:10183000030190C392F38FC391F30901A96BA86BC5
:101840000001E3EC05F00901AB6B8FC3ACF90001BB
:10185000B6EC05F0010E0901AB6F90C3ACF90001C5
:10186000B6EC05F0090E0901186F030E176F18C9C1
:1018700095F9946F976B140E966F00017FDF16C970
:10188000A6F915C9A5F9AADF02C016F901C015F914
:10189000090104511A0805E2FF0A19E10351F7088A
:1018A00016E3090E186F030EE96E18C9EAFFEFB0D0
:1018B0000ED008BF0CD007B90AD00651040805E2C3
:1018C000FF0A05E10551EE0802E307BF01D0FF0062
:1018D00004C990F303C98FF3FFC801F0090100C9DF
:1018E00003F001C017F903C018F903C0EAFF01C0F3
:1018F000E9FF090EE26E0F0EE16E060E016EE6CFF5
:10190000EEFF012EFCD702C903F001C9E9FF03C0B5
:10191000EAFFEF68165108080DE1155303E0155171
:10192000060808E102C903F001C9E9FF03C0EAFFA4
:1019300015C9EFFF03019391010E016E090100012A
:101940006DEF22F009012AC901F02BC92DF901C060
:101950002CF92AC9E9FF2BC9EAFFECCFA6F9ED5211
:10196000EFCFA5F900013ADF2DC9EAFF2CC9E9FF45
:1019700002C0ECFFED5201C0EFFF020E09012A2563
:10198000016E000E2B21036E01C02CF92D6F020E8B
:101990002A25E96E000E2B21EA6EECCFA6F9ED5256
:1019A000EFCFA5F900011ADF2DC9EAFF2CC9E9FF25
:1019B00002C0ECFFED5201C0EFFF060E09012A251F
:1019C000016E000E2B21036E01C02CF92D6F060E47
:1019D0002A25E96E000E2B21EA6EECCFA6F9ED5216
:1019E000EFCFA5F90001FADE2DC9EAFF2CC9E9FF06
:1019F00002C0ECFFED5201C0EFFF1200090E090119
:101A0000956F0E0E946F976B1C0E966F0001B6DEED
:101A10007ADE090E09012B6F0E0E2A6F000192DF8C
:101A200009010E2D08D00F5306E11251060803E1FB
:101A30001351040803E0000E016E5BD0145102083C
:101A40000AE1155308E10DC903F00CC9E9FF03C011
:101A5000EAFFEF6A18D0142D0BD0155309E10DC918
:101A600003F00CC9E9FF03C0EAFF010EEF6E0BD0D3
:101A70000DC903F00CC9E9FF03C0EAFF020EEF6EC7
:101A8000000E016E36D0030153510901265D2FE18E
:101A9000030154510901275D2AE103015551090150
:101AA000285D25E1030156510901295D20E10AC99C
:101AB000E9FF0BC9EAFF090EE26E160EE16E060E93
:101AC000016EE6CFEEFF012EFCD7060E0A25E96E69
:101AD000000E0B21EA6E1CC9EFFF1DC9ECFF1EC9E9
:101AE000ECFF1FC9ECFF010E016E03D002D0000E07
:101AF000016E000169EF10F01F0E0901A56F0001D2
:101B000097EC05F001C087F9000E090101B6010E3E
:101B1000000A02E1000E01D0FF0E016E000112006A
:101B20009FC98AF3070E0901A0271C0EA123A96BE8
:101B3000020EA86F0001E3EC05F0090E0901A36F86
:101B4000A00EA26FE96EA3C9EAFFEFCFACF9AB6BB1
:101B50000001B6EC05F0090E0901A36FA00EA26FFB
:101B6000010EA225E96E000EA321EA6EEFCFACF9BB
:101B7000010EAB6F0001B6EC05F0090E0901A36F71
:101B8000A00EA26FE96EA3C9EAFFEFCFACF9020E77
:101B9000AB6F0001B6EC05F0090E0901A36FA00EB2
:101BA000A26F010EA225E96E000EA321EA6EEFCF0F
:101BB000ACF9030EAB6F0001B6EC05F01200949285
:101BC0008B927A0E0901B06F00017AEC05F0AAC978
:101BD000B0F97AEC05F094928B82120094928B9279
:101BE0007A0E0901B06F00017AEC05F00901ADC968
:101BF00003F0AC51D8B4AD07AC07031010E0ABC98B
:101C000003F0AAC9E9FF03C0EAFFEFCFB0F9000172
:101C10007AEC05F00901AA2BD8B4AB2BE8D7949243
:101C20008B82000112000901A96B020EA86F00014E
:101C3000E3EC05F0020E0901AB6FF80EAC6F00018A
:101C4000B6EC05F0030E0901AB6F1B0EAC6F000183
:101C5000B6EC05F0060E0901A6271C0EA723090EF7
:101C6000A96FA60EA86FE96EA9C9EAFFEFCFACF97C
:101C7000060EAB6F0001B6EC05F0090E0901A96F65
:101C8000A60EA86F010EA825E96E000EA921EA6E26
:101C9000EFCFACF9070EAB6F0001B6EC05F0090110
:101CA000AA6B00018CDFA4C9ABF9A3C9AAF9090189
:101CB000AD6B060EAC6F000191DF030E0901A96F39
:101CC000570EA86FA9C9ABF9AA6FAD6B060EAC6F22
:101CD000000184DF080E0901AA6F000170DF09010D
:101CE000A55303E1036A000E02D0036A060EA86F33
:101CF00003C0A9F9AA6F000162DF12001C0E0901DE
:101D0000A56F000197EC05F001C092F9000E0901E2
:101D100001B2010E000A10E01F0EAD6F800EAE6F13
:101D20000001D4EC05F01F0E0901AA6F800EAB6F05
:101D30000001C5EC05F009011C0EAA6F0A0EAB6F7D
:101D40000001C5EC05F01F0E0901AD6F080EAE6F66
:101D50000001D4EC05F0030194510508D8A4E4D0A7
:101D60001C0E0901A56F000197EC05F001C092F966
:101D7000090101500A0BD8A402D00301F1D71C0EAF
:101D8000A56F000197EC05F001C092F9000E090162
:101D900001B2010E000AD8B4C6D01F0EAA6F080EF9
:101DA000AB6F0001C5EC05F00901A96BA86B000140
:101DB000E3EC05F00901A56B000197EC05F001C00B
:101DC00086F9010E0901A56F000197EC05F001C02D
:101DD00087F9060E0901A56F000197EC05F001C017
:101DE00088F9070E0901A56F000197EC05F001C005
:101DF00089F90901882BD8B4892BAB6B88C9ACF958
:101E00000001B6EC05F0010E0901AB6F89C9ACF910
:101E10000001B6EC05F0090E0901936F8A0E926F6E
:101E200093C995F9946F976B070E966F0001A6DC26
:101E30000901916B91510F0867E31C0EA56F00011A
:101E400097EC05F001C092F9000E090101B2010EF4
:101E5000000A55E08DAB53D01F0EAD6F800EAE6FF4
:101E60000001D4EC05F01F0E0901AA6F800EAB6FC4
:101E70000001C5EC05F01C0E0901AA6F0A0EAB6F3C
:101E80000001C5EC05F01F0E0901AD6F080EAE6F25
:101E90000001D4EC05F01C0E0901A56F000197ECC0
:101EA00005F001C092F9090101500A0BD8A402D033
:101EB0000001F1D71F0EAA6F080EAB6F0001C5EC31
:101EC00005F00901AB6B88C9ACF90001B6EC05F06F
:101ED000010E0901AB6F89C9ACF90001B6EC05F040
:101EE000090E0901936F8A0E926F93C995F9946F49
:101EF000976B070E966F000141DC03D0090104D0F7
:101F000000010901912B96D7AB6B86C9ACF9000192
:101F1000B6EC05F0010E0901AB6F87C9ACF9000101
:101F2000B6EC05F00901030100011200010E0901E0
:101F3000866F0001E1DD01C029F90901293D03D0C7
:101F4000000E016EB3D029C99FF9A16BA06B0001EF
:101F5000E7DD09010E6B010E0D6F080E106F0F6BA0
:101F6000060E116F040E126F0C2D0AD0146B010EA9
:101F7000136F1F692069216922692369246911D0BF
:101F8000146B020E136F0AC9E1FF0BC9E2FF090EC1
:101F9000EA6E1F0EE96E060E016EE6CFEEFF012E11
:101FA000FCD7090EEA6E150EE96E030EE26E570EAF
:101FB000E16E060E016EE6CFEEFF012EFCD756C392
:101FC0001EF955C31DF954C31CF953C31BF9060E62
:101FD0000A25E96E000E0B21EA6EEFCF00F0ECCF80
:101FE00001F0ECCF02F0ECCF03F000501B192A6F88
:101FF00001501C192B6F02501D192C6F03501E1914
:102000002D6F2A5103015D15006E09012B5103014B
:102010005E15016E09012C5103015F15026E090165
:102020002D5103016015036E005206E1015204E1D7
:10203000025202E1035209E064C328F963C327F99D
:1020400062C326F961C325F910D0060E09010A25DD
:10205000E96E000E0B21EA6EEFCF25F9ECCF26F9E1
:10206000ECCF27F9ECCF28F90301090E09012B6FFA
:102070000D0E2A6F000166DC090E0901A46F1F0E08
:10208000A36F060EA56FA76B1C0EA66F0001CBDD1C
:10209000090E0901AB6F0D0EAA6FAD6B1C0EAC6F74
:1020A00000019CDD2BDE010E016E09010001120012
:1020B000000E030193B3010E000A000101E02DD0D0
:1020C000080E09010B6F0A69090E0D6F0C6F0001F4
:1020D00095D4015201E133D083EC0BF0090109538F
:1020E00019E1080EEA6E880EE96E080EE26EE168EC
:1020F000060E016EE6CFEEFF012EFCD708C991F85F
:1021000007C990F806C98FF805C98EF8000117D0E5
:1021100004D00901030193830001080E09010B6F2C
:102120000A690C6B000102DF015204E00301939382
:1021300005D00001000E016E04D003010001010E64
:10214000016E86EF22F0140E0301912509015E6FE6
:10215000000E0301922109015F6F58515E255C6FEB
:1021600059515F215D6F5D511A0809E2FF0A03E1D1
:102170005C51F70804E2F80E5C5F1B0E5D5BA96B17
:10218000100EA86F0001E3EC05F0100E0901AB6F13
:102190005CC9ACF90001B6EC05F0110E0901AB6F9A
:1021A0005DC9ACF90001B6EC05F0010E09015A5DFC
:1021B000006E000E5B59036E00505C2703505D23D8
:1021C0005D511A0809E2FF0A03E15C51F70804E2D5
:1021D000F80E5C5F1B0E5D5B120EAB6F5CC9ACF959
:1021E0000001B6EC05F0130E0901AB6F5DC9ACF947
:1021F0000001B6EC05F01F0E0901AD6F300EAE6F99
:102200000001D4EC05F01F0E0901A56F000197EC49
:1022100005F001C05EF9000E090101BA010E000AC5
:10222000D8B402D00001EFD7160EA56F000197ECCD
:1022300005F001C05DF9170E0901A56F000197ECCB
:1022400005F001C05CF909015CC901F05DC902F04B
:1022500000011200140E030191250901356F000ED3
:10226000030192210901366F31513525336F325107
:102270003621346F34511A0809E2FF0A03E1335161
:10228000F70804E2F80E335F1B0E345BA96BA86BF2
:102290000001E3EC05F00901AB6B33C9ACF90001B7
:1022A000B6EC05F0010E0901AB6F34C9ACF90001C1
:1022B000B6EC05F0020E0901AB6F33C9ACF90001B1
:1022C000B6EC05F0030E0901AB6F34C9ACF900019F
:1022D000B6EC05F01200020E09019F25016E000EFA
:1022E000A021036E01C0A1F9A26F020E9F25E96E25
:1022F000000EA021EA6EECCFA6F9ED52EFCFA5F9C2
:102300000001EEEC0BF0A2C9EAFFA1C9E9FF02C08F
:10231000ECFFED5201C0EFFF040E09019F25016E95
:10232000000EA021036E01C0A1F9A26F040E9F252B
:10233000E96E000EA021EA6EECCFA6F9ED52EFCFC8
:10234000A5F90001EEEC0BF0A2C9EAFFA1C9E9FF73
:1023500002C0ECFFED5201C0EFFF0A0E09019F25FC
:10236000016E000EA021036E01C0A1F9A26F0A0E3A
:102370009F25E96E000EA021EA6EECCFA6F9ED5282
:10238000EFCFA5F90001EEEC0BF0A2C9EAFFA1C95D
:10239000E9FF02C0ECFFED5201C0EFFF1200090E91
:1023A00009011E6F1D6F956F946F976B140E966FDA
:1023B0000001BEEC0BF009010951F00B400803E0ED
:1023C000000E016E61D009510F0B006E0034030145
:1023D000976F9737FC0E97170901596B586B5B6B1A
:1023E00097C35AF90001AFDE02C008F901C007F92E
:1023F0000901326B97C331F900012CDF0901075144
:10240000081103E0000E016E3FD0090EA06F9F6F10
:10241000000161DF0801FF51090100110DE0FFC853
:10242000E9FF090100C9EAFF19C9EFFF1AC9ECFF6A
:102430001BC9ECFF1CC9ECFF060E0125E96E000E5E
:102440000221EA6E15C9EFFF16C9ECFF17C9ECFFB0
:1024500018C9ECFF04C903F003C9E9FF03C0EAFF90
:1024600012C9EFFF06C903F005C9E9FF03C0EAFF7F
:102470000301975109010B5D006E000E0C5900C05D
:10248000EFFFEC6E010E016E0001A3EF22F00901D7
:10249000976B966B956B946BD8908B318D6F8A315F
:1024A0008C6F89C98FF988C98EF98DC903F08C5159
:1024B000D8B48D078C07031017E08FC903F08EC9BD
:1024C00000F0020E8E27D8B08F2B00C0E9FF03C0AA
:1024D000EAFFECCF03F0ED52EF5094270350952321
:1024E000000E96239723E1D78A51010B006E036AF1
:1024F000005003100CE08FC903F08EC9E9FF03C040
:10250000EAFFEF509427000E95239623972397C94F
:1025100093F996C992F995C991F994C990F993C91B
:102520008DF992C98CF98C5302E18D5327E0976B9A
:10253000966B9B6B9A6B95C999F994C998F98CC95C
:1025400000F08DC901F0026A036A00509425946F6F
:1025500001509521956F02509A21966F03509B214F
:10256000976F97C993F996C992F995C991F994C94A
:1025700090F993C98DF992C98CF9D5D795C903F013
:10258000031E9451FF0A016E03C002F00001120005
:1025900094928B923A0E0901B06F00017AEC05F02B
:1025A0000901B06B00017AEC05F001C08AF9949240
:1025B0008B8209018AC901F00001120009018653CA
:1025C00007E1875305E1FF0E016E026EA1D017D01F
:1025D000862D15D0875313E10001DADF09018B6BDB
:1025E00001C08AF901C003F0000E006A0006001A5B
:1025F000FF0E031A00C001F003C002F089D0A96BDE
:10260000A86B0001E3EC05F00901A56B000197EC54
:1026100005F001C088F9010E0901A56F000197ECD2
:1026200005F001C089F9100E0901AB6F88C9ACF93A
:102630000001B6EC05F0110E0901AB6F89C9ACF9C8
:102640000001B6EC05F0090189511B081BE303E109
:102650008851F70817E3010E865D006E000E87595A
:10266000036E005088270350892389511A0809E214
:10267000FF0A03E18851F70804E2F80E885F1B0E99
:10268000895B0AD0010E865D006E000E8759036ECD
:102690000050882703508923120EAB6F88C9ACF90C
:1026A0000001B6EC05F0130E0901AB6F89C9ACF956
:1026B0000001B6EC05F01F0E0901AD6F300EAE6FD4
:1026C0000001D4EC05F01F0E0901A56F000197EC85
:1026D00005F001C08AF9000E090101BA010E000AD5
:1026E000D8B402D00001EFD7160EA56F000197EC09
:1026F00005F001C088F9170E0901A56F000197ECDC
:1027000005F001C089F9090188C901F089C902F001
:10271000000112000301975109012D252F6F000EB2
:102720002E21306F326F2FC931F9000193DD120075
:1027300091C992F990C993F98FC994F98EC995F905
:1027400092C900F093C901F094C902F095C903F051
:102750001200090186C901F087C989F901C088F909
:1027600086C9E9FF87C9EAFFECCFA6F9ED52EFCFA2
:10277000A5F90001EEEC0BF089C9EAFF88C9E9FF71
:1027800002C0ECFFED5201C0EFFF020E09018625E9
:10279000016E000E8721036E01C088F9896F020E59
:1027A0008625E96E000E8721EA6EECCFA6F9ED5280
:1027B000EFCFA5F90001EEEC0BF089C9EAFF88C95B
:1027C000E9FF02C0ECFFED5201C0EFFF040E09016A
:1027D0008625016E000E8721036E01C088F9896F7E
:1027E000040E8625E96E000E8721EA6EEFCF8EF982
:1027F000ECCF8FF9ECCF90F9ECCF91F9000198DF95
:1028000089C9EAFF88C9E9FF00C0EFFF01C0ECFFFA
:1028100002C0ECFF03C0ECFF080E09018625016E23
:10282000000E8721036E01C088F9896F080E862586
:10283000E96E000E8721EA6EEFCF8EF9ECCF8FF9AB
:10284000ECCF90F9ECCF91F9000172DF89C9EAFF72
:1028500088C9E9FF00C0EFFF01C0ECFF02C0ECFF38
:1028600003C0ECFF0E0E09018625016E000E8721C4
:10287000036E01C088F9896F0E0E8625E96E000E81
:102880008721EA6EECCFA6F9ED52EFCFA5F9000152
:10289000EEEC0BF089C9EAFF88C9E9FF02C0ECFF42
:1028A000ED5201C0EFFF100E09018625016E000EEA
:1028B0008721036E01C088F9896F100E8625E96EA5
:1028C000000E8721EA6EECCFA6F9ED52EFCFA5F905
:1028D0000001EEEC0BF089C9EAFF88C9E9FF02C0EC
:1028E000ECFFED5201C0EFFF120E09018625016ECB
:1028F000000E8721036E01C088F9896F120E8625AC
:10290000E96E000E8721EA6EECCFA6F9ED52EFCF0B
:10291000A5F90001EEEC0BF089C9EAFF88C9E9FFCF
:1029200002C0ECFFED5201C0EFFF1200FE0E0901E4
:10293000336F326B32512208D8A083D04B6B32C92F
:102940004AF94D6B240E4C6F0001F4EC07F002C005
:1029500003F001509A0F016E030E032201C030F9FB
:10296000090103C031F930C9E9FF31C9EAFFEF506D
:102970000A0865E00B0E3025E96E000E3121EA6E83
:10298000ECCF35F9ED52EFCF34F9020E2C25E96E7C
:10299000000E2D21EA6EECCF03F0ED52EF50345DC6
:1029A0004EE10350355D4BE130C9E9FF31C9EAFF23
:1029B000EF5202E132C933F90D0E3025E96E000EF7
:1029C0003121EA6EECCF35F9ED52EFCF34F92CC955
:1029D000E9FF2DC9EAFFECCF03F0ED52EF50345D73
:1029E0002EE10350355D2BE1070E3025E96E000E18
:1029F0003121EA6EEFCF34F9ECCF35F9ECCF36F96F
:102A0000ECCF37F9060E2E25E96E000E2F21EA6E67
:102A1000EFCF00F0ECCF01F0ECCF02F0ECCF03F001
:102A20000050345D0CE10150355D09E10250365D26
:102A300006E10350375D03E132C901F075D0322B56
:102A400079D73351FE0803E1FE0E016E6DD04B6B5A
:102A500033C94AF94D6B240E4C6F0001F4EC07F0BA
:102A600002C003F001509A0F016E030E032201C051
:102A700030F9090103C031F9010E3025016E000E55
:102A80003121036E01C034F9356FEA6E01C0E9FFF0
:102A90002FC9E2FF2EC9E1FF0A0E016EE6CFEEFF5D
:102AA000012EFCD70D0E3025016E000E31212CC9F0
:102AB000E9FF2DC9EAFFECCF03F0ED52EFCF36F975
:102AC000EA6E01C0E9FF03C0ECFFED5236C9EFFF2B
:102AD000230E3025E96E000E3121EA6EEF960F0EBF
:102AE0003025E96E000E3121EA6EEF3C01D013D0A3
:102AF0000F0E3025E96E000E3121EA6EEFCF4DF951
:102B0000000102EC00F00F0E09013025E96E000E05
:102B10003121EA6EEF68230E3025E96E000E312177
:102B2000EA6EEF8233C901F000018EEF1EF0F29AD7
:102B30008CC34DF98BC34CF9F28A09014CC901F0E1
:102B40004DC902F0000112000F0E09014A25E96E7D
:102B5000000E4B21EA6EEF3C01D01AD00F0E4A2531
:102B6000E96E000E4B21EA6EEFCF4DF9000102EC49
:102B700000F00F0E09014A25E96E000E4B21EA6EA6
:102B8000EF68230E4A25E96E000E4B21EA6EEF82B4
:102B9000070E4A25E96E000E4B21EA6EEE52EE5208
:102BA000EC6AED52EF6AED52EF6AED52EF6A0D0EEC
:102BB0004A25E96E000E4B21EA6EEC6AED52EF6A8F
:102BC000230E4A25E96E000E4B21EA6EEFA604D0D3
:102BD000000183EC0BF00901230E4A25E96E000E7B
:102BE0004B21EA6EEF96210E4A25E96E000E4B212D
:102BF000EA6EEC6AED52240EEF6E230E4A25E96E62
:102C0000000E4B21EA6EEF98230E4A25E96E000E66
:102C10004B21EA6EEFA006D04AC9E9FF4BC9EAFF93
:102C2000EF6A06D04AC9E9FF4BC9EAFF0A0EEF6E08
:102C3000100E4A25E96E000E4B21EA6EEC6AED5249
:102C4000EF6A000112001F0E0901A56F000197EC49
:102C500005F001C087F9000E090101B6010E000A56
:102C600002E0000E01D0010E016E00011200010E03
:102C70000901A96F190EA86F0001E3EC05F0190E08
:102C80000901A56F000197EC05F001C086F9090163
:102C9000A96B0E0EA86F0001E3EC05F00E0E090102
:102CA000A56F000197EC05F001C088F90F0E09012E
:102CB000A56F000197EC05F001C089F9010E09012B
:102CC000A96F190EA86F0001E3EC05F0190E0901B8
:102CD000A56F000197EC05F001C08AF90901865142
:102CE000015CD8B402D00001CAD7A96B0C0EA86F42
:102CF0000001E3EC05F00C0E0901A56F000197EC53
:102D000005F001C086F90D0E0901A56F000197ECD1
:102D100005F001C087F909018751895D16E303E1D8
:102D20008851865D12E28651885D006E875189590F
:102D3000036E0050FF0AF80F006E1B0E035600C012
:102D400001F003C002F01CD01BD08651885D09E160
:102D50008751895D06E1F70E016E1B0E026E10D0E1
:102D60000FD08851865D8A6F895187598B6F010E0C
:102D70008A5D006E000E8B59036E00C001F0026E7A
:102D8000000102EF18F0060E09019F25A56F1C0E29
:102D9000A021A66F010EA525A36F000EA621A46F8A
:102DA000A96B100EA86F0001E3EC05F0100E0901ED
:102DB000AB6FA3C9ACF90001B6EC05F0110E090127
:102DC000AB6FA4C9ACF90001B6EC05F0010E090126
:102DD000A15D006E000EA259036E0050A3270350A0
:102DE000A423120EAB6FA3C9ACF90001B6EC05F039
:102DF000130E0901AB6FA4C9ACF90001B6EC05F0E4
:102E00001F0E0901AD6F300EAE6F0001D4EC05F05E
:102E10001F0E0901A56F000197EC05F001C0A5F98F
:102E2000000E090101BA010E000AD8B402D0000157
:102E3000EFD7160EA56F000197EC05F001C0A4F9BD
:102E4000170E0901A56F000197EC05F001C0A3F969
:102E50000901A3C901F0A4C902F000011200140E77
:102E60000301976F450E09018B6F8C6B140E89253A
:102E70008D6F000E8A218E6F0301952BD8B4962B8F
:102E800096C390F995C38FF90901926B916B640E0B
:102E9000936F88C994F9966B956B56C39AF955C38D
:102EA00099F954C398F953C397F9060E8625E96E2C
:102EB000000E8721EA6EEFCF9BF9ECCF9CF9ECCFA7
:102EC0009DF9ECCF9EF9090EA06F8B0E9F6F00014C
:102ED0006BEC11F0090186C901F087C903F001C04C
:102EE0009FF903C0A0F9140E8925A16F000E8A2155
:102EF000A26F03C0A4F901C0A3F9A56BA76FA1C974
:102F0000A6F9000113EC0EF0090E0901A06F8B0E5B
:102F10009F6FA0C9ABF9AA6FAD6B140EAC6F000127
:102F2000EEEC0DF00901A06B9F6BA26B140EA16F6C
:102F3000000129DF02C096F901C095F98AC39FF903
:102F40000901A16B0A0EA06F000190EC0DF0090EB3
:102F50000901A06F950E9F6FA0C9ABF9AA6FAD6B69
:102F6000020EAC6F0001EEEC0DF08AC39FF909016F
:102F7000A16B140EA06F000190EC0DF0000E016E1D
:102F8000026E1200010E0901866F00015CDE015223
:102F9000F9E009015D3D08D0010E866F00017CEC6F
:102FA0000DF001C05DF909015D3D01D0FBD05DC9A7
:102FB0009FF9A16B140EA06F000190EC0DF051C9A8
:102FC00063F950C962F953C965F952C964F957C91F
:102FD00069F956C968F955C967F954C966F95BC9F1
:102FE0006DF95AC96CF959C96BF958C96AF93F0E9C
:102FF00009016F156F6FF00E6E156E6F5CC96FF97A
:10300000000135D602C071F901C070F90901715390
:1030100003E17051280805E2280E705F000E715B15
:1030200002D0716B706B736B726B756B746B090E86
:10303000876F620E866F0001A9EC13F0140E090170
:103040005E27000E5F235CA30FD0040E5E27000EE8
:103050005F23020E766F040E776F786F796B0F0E19
:103060006E1560096E6F04D00F0E6E1550096E6FED
:1030700056C37DF955C37CF954C37BF953C37AF920
:10308000060E4E25E96E000E4F21EA6EEFCF7EF957
:10309000ECCF7FF9ECCF80F9ECCF81F9826B060E93
:1030A000836F5FC985F95EC984F985C9A6F984C9AA
:1030B000A5F90001EEEC0BF002C085F901C084F91E
:1030C000090E0901876F7A0E866F87C989F9886FA3
:1030D0008B6B0C0E8A6F000147EC12F001C072F985
:1030E0000901721F02C073F9731F73C961F972C9B4
:1030F00060F94FC987F94EC986F9060E886F5FC916
:103100008AF95EC989F90001AADE090E0901876FF3
:10311000620E866F87C9ABF9AA6FAD6B140EAC6FE8
:103120000001EEEC0DF009015CA30ED0090E876FD3
:10313000760E866F87C9ABF9AA6FAD6B040EAC6FC4
:103140000001EEEC0DF009015DC99FF9A16B140EB1
:10315000A06F000190EC0DF05FC987F95EC986F998
:10316000DEEC12F002C061F901C060F95DC99FF99F
:103170000901A16B240EA06F000190EC0DF061C954
:10318000AAF9DFEC0DF060C9AAF9DFEC0DF05DC91A
:103190009FF90901A16BA06B000190EC0DF07EEC92
:1031A0000EF009010001120009014B6B2CC94AF90C
:1031B0004D6B240E4C6F0001F4EC07F002C003F0DD
:1031C00001509A0F016E030E032201C043F9090159
:1031D00003C044F9456B1E0E4325E96E000E4421E1
:1031E000EA6EEF6A1F0E4325016E000E4421036E46
:1031F00001C04AF94B6F00019ADC4BC9EAFF4AC98A
:10320000E9FF02C0ECFFED5201C0EFFF210E090102
:103210004325E96E000E4421EA6EEC6AED52240E5D
:10322000EF6E0D0E2F25E96E000E3021EA6EEFA431
:103230001AD0000183EC0BF0090143C94AF944C9D3
:103240004BF9230E4325E96E000E4421EA6EEFA0F0
:1032500002D0000E01D0010E4BC9EAFF4AC9E9FFB6
:10326000EF6EDDEF1DF0160E4325E96E000E4421D2
:10327000EA6EEFCF37F9ECCF38F9ECCF39F9ECCF74
:103280003AF90E0E2F25E96E000E3021EA6EECCFD2
:103290004BF9ED52EFCF4AF94C6B4D6B080E2F25D1
:1032A000E96E000E3021EA6EEFCF00F0ECCF01F0B6
:1032B000ECCF02F0ECCF03F00050375D006E015010
:1032C0003859016E02503959026E03503A59036E53
:1032D00000504A5F01504B5B02504C5B03504D5B0A
:1032E000100E4325E96E000E4421EA6EECCF03F088
:1032F000ED52EFCF00F003C001F0026A036A005004
:103300004A5D466F01504B59476F02504C59486F08
:1033100003504D59496F49AF0AD0140E4325E96E49
:10332000000E4421EA6EEC6AED52EF6A0AD0140EE8
:103330004325E96E000E4421EA6E33C9EFFF34C91C
:10334000ECFF43C9E9FF44C9EAFFEF2CB5D00D0EED
:103350002F25E96E000E3021EA6EEFB212D0000187
:1033600083EC0BF00D0E09012F25E96E000E3021C4
:10337000EA6EEFA804D0040E456FA9EF1DF0DDEF53
:103380001DF01A0E4325016E000E442101C04AF9BA
:103390004B6F040E2F25E96E000E3021EA6EEFCF41
:1033A0004CF9ECCF4DF9ECCF4EF9ECCF4FF9315150
:1033B0004C2732514D23000E4E234F23010E4C2536
:1033C000006E000E4D21016E000E4E21026E000EA9
:1033D0004F214BC9EAFF4AC9E9FF00C0EFFF01C016
:1033E000ECFF02C0ECFFEC6E1A0E4325E96E000EF6
:1033F0004421EA6EEFCF33F9ECCF34F9ECCF35F955
:10340000ECCF36F90D0E2F25E96E000E3021EA6E55
:10341000EFB80DD043C9E9FF44C9EAFF020EEF6ED1
:10342000000183EC0BF0120E0901456F92D343C9E2
:10343000E9FF44C9EAFF030EEF6E100E456F140E4C
:103440004325016E000E4421036E4B6F0E0E2F2597
:10345000E96E000E3021EA6EECCF03F0ED52EFCFB3
:103460004CF94BC9EAFF01C0E9FF03C0ECFFED5284
:103470004CC9EFFF315132111AE0230E4325E96E9A
:10348000000E4421EA6EEF86120E4325E96E000E0F
:103490004421EA6E32C9ECFFED5231C9EFFF230E31
:1034A0004325E96E000E4421EA6EEF8404D000014A
:1034B00083EC0BF009014DD343C9E9FF44C9EAFF8E
:1034C000EF52D8A4BAD0000183EC0BF00D0E090125
:1034D0002F25E96E000E3021EA6EEFB203D0040E04
:1034E000456F37D31A0E4325016E000E442101C0EB
:1034F0004AF94B6F040E2F25E96E000E3021EA6E5B
:10350000EFCF4CF9ECCF4DF9ECCF4EF9ECCF4FF9B2
:1035100031514C2732514D23000E4E234F23010EC3
:103520004C25006E000E4D21016E000E4E21026EE4
:10353000000E4F214BC9EAFF4AC9E9FF00C0EFFF67
:1035400001C0ECFF02C0ECFFEC6E140E4325016ECF
:10355000000E4421036E4B6F0E0E2F25E96E000EF8
:103560003021EA6EECCF03F0ED52EFCF4CF94BC9AE
:10357000EAFF01C0E9FF03C0ECFFED524CC9EFFFC9
:10358000010E4325016E000E4421036E01C04AF96D
:103590004B6FEA6E01C0E9FF2EC9E2FF2DC9E1FFC2
:1035A0000A0E016EE6CFEEFF012EFCD70D0E43256D
:1035B000016E000E44212FC9E9FF30C9EAFFECCFAC
:1035C00003F0ED52EFCF4CF9EA6E01C0E9FF03C002
:1035D000ECFFED524CC9EFFF43C9E9FF44C9EAFFD4
:1035E000020EEF6E160E4325E96E000E4421EA6EC0
:1035F000EFCF37F9ECCF38F9ECCF39F9ECCF3AF916
:10360000160E4325E96E000E4421EA6E010EEE26E9
:10361000000EEE22EE22ED221A0E4325E96E000E78
:103620004421EA6EEFCF33F9ECCF34F9ECCF35F922
:10363000ECCF36F9120E456F8CD21A0E4325E96E87
:10364000000E4421EA6EEFCF3BF9ECCF3CF9ECCF12
:103650003DF9ECCF3EF9160E4325E96E000E4421EC
:10366000EA6EEFCF3FF9ECCF40F9ECCF41F9ECCF68
:1036700042F9040E2F25E96E000E3021EA6EEFCFDD
:1036800033F9ECCF34F9ECCF35F9ECCF36F931C959
:1036900000F032C901F0026A036A0050332701507A
:1036A00034230250352303503623160E4325E96E8A
:1036B000000E4421EA6EEFCF37F9ECCF38F9ECCFAA
:1036C00039F9ECCF3AF9040E2F25E96E000E3021BE
:1036D000EA6EEFCF4AF9ECCF4BF9ECCF4CF9ECCFD7
:1036E0004DF93B514A5DD8A426D23C514B5DD8A43C
:1036F00022D23D514C5DD8A41ED23E514D5DD8A47E
:103700001AD243C9E9FF44C9EAFFEF50020843E176
:103710000D0E2F25E96E000E3021EA6EEFA836D08F
:103720001A0E4325E96E000E4421EA6E33C9EFFFFD
:1037300034C9ECFF35C9ECFF36C9ECFF43C9E9FFDA
:1037400044C9EAFF030EEF6E315132111AE0230E25
:103750004325E96E000E4421EA6EEF86120E4325E2
:10376000E96E000E4421EA6E32C9ECFFED5231C918
:10377000EFFF230E4325E96E000E4421EA6EEF842D
:1037800004D0000183EC0BF0090104D0000183ECAC
:103790000BF00901CFD11A0E4325E96E000E44212A
:1037A000EA6E33C9EFFF34C9ECFF35C9ECFF36C907
:1037B000ECFF43C9E9FF44C9EAFFEF500308D8A46E
:1037C000D2D00D0E2F25E96E000E3021EA6EEFA843
:1037D0002BD0230E4325E96E000E4421EA6EEFB292
:1037E00023D00F0E4325E96E000E4421EA6EEF3C14
:1037F00001D01AD00F0E4325E96E000E4421EA6E67
:10380000EFCF4DF9000102EC00F00F0E0901432546
:10381000E96E000E4421EA6EEF68230E4325E96E3F
:10382000000E4421EA6EEF820D0E2F25E96E000E88
:103830003021EA6EEFA04BD0110E456F160E4325D6
:10384000E96E000E4421EA6EEFCF37F9ECCF38F97C
:10385000ECCF39F9ECCF3AF9160E4325E96E000E9C
:103860004421EA6E010EEE26000EEE22EE22ED223B
:103870001A0E4325E96E000E4421EA6E010EEF2474
:10388000006E000EEC20016E000EEC20026E000EA9
:10389000EC20ED52ED52ED5200C0EFFF01C0ECFF05
:1038A00002C0ECFFEC6E1A0E4325E96E000E4421B7
:1038B000EA6EEFCF33F9ECCF34F9ECCF35F9ECCF3A
:1038C00036F943C9E9FF44C9EAFF090EEF6E3151E9
:1038D000321144E0230E4325E96E000E4421EA6EC6
:1038E000EFB61BD0230E4325E96E000E4421EA6E8D
:1038F000EF86120E4325E96E000E4421EA6E32C9AE
:10390000ECFFED5231C9EFFF230E4325E96E000EA7
:103910004421EA6EEF84458920D0160E4325E96ED6
:10392000000E4421EA6E3FC9EFFF40C9ECFF41C9D8
:10393000ECFF42C9ECFF1A0E4325E96E000E44214C
:10394000EA6E3BC9EFFF3CC9ECFF3DC9ECFF3EC945
:10395000ECFF000183EC0BF0090104D0000183ECC3
:103960000BF00901E7D043C9E9FF44C9EAFFEF5072
:10397000090815E1000183EC0BF00D0E09012F255C
:10398000E96E000E3021EA6EEFA808D044C94BF969
:1039900043C94AF90001A4EC15F00901CBD043C991
:1039A000E9FF44C9EAFFEF50040862E1000183EC3B
:1039B0000BF00D0E09012F25E96E000E3021EA6E85
:1039C000EFA045D0100E456F1A0E4325E96E000E8C
:1039D0004421EA6E010EEF24006E000EEC20016E11
:1039E000000EEC20026E000EEC20ED52ED52ED5276
:1039F00000C0EFFF01C0ECFF02C0ECFFEC6E1A0E3E
:103A00004325E96E000E4421EA6EEFCF33F9ECCF87
:103A100034F9ECCF35F9ECCF36F90D0E2F25E96EE0
:103A2000000E3021EA6EEFA809D044C94BF943C912
:103A30004AF90001A4EC15F008D0090143C9E9FFD7
:103A400044C9EAFF060EEF6E000110D009010D0E09
:103A50002F25E96E000E3021EA6EEFA806D043C98B
:103A6000E9FF44C9EAFF050EEF6E000162D00901CB
:103A700043C9E9FF44C9EAFFEF50050840E10001EE
:103A800083EC0BF00D0E09012F25E96E000E30219D
:103A9000EA6EEFA033D0100E456F1A0E4325E96E83
:103AA000000E4421EA6E010EEF24006E000EEC20A1
:103AB000016E000EEC20026E000EEC20ED52ED5275
:103AC000ED5200C0EFFF01C0ECFF02C0ECFFEC6E56
:103AD0001A0E4325E96E000E4421EA6EEFCF33F94A
:103AE000ECCF34F9ECCF35F9ECCF36F944C94BF9CA
:103AF00043C94AF90001A4EC15F009011BD043C9E0
:103B0000E9FF44C9EAFFEF50060814E1000183EC25
:103B10000BF00D0E09012F25E96E000E3021EA6E23
:103B2000EFA808D044C94BF943C94AF90001A4ECF5
:103B300015F009010ED0000183EC0BF0100E090105
:103B4000456F3EC936F93DC935F93CC934F93BC921
:103B500033F90901455331E0020E2F25E96E000EBD
:103B60003021EA6EECCF51F9ED52EFCF50F92FC969
:103B7000E9FF30C9EAFFECCF53F9ED52EFCF52F92C
:103B80002EC94FF92DC94EF93AC957F939C956F915
:103B900038C955F937C954F936C95BF935C95AF9E5
:103BA00034C959F933C958F945C95CF95D695F6B86
:103BB0005E6B0001C2EC17F009010001A5EF1EF0D9
:103BC000060E0801FF25E96E000E09010021EA6ECC
:103BD000EFCF19F9ECCF1AF9ECCF1BF9ECCF1CF9A8
:103BE00002C903F001C9E9FF03C0EAFFEFCF1DF9E5
:103BF000ECCF1EF9ECCF1FF9ECCF20F9216B060EAC
:103C0000226F04C924F903C923F924C9A6F923C9D9
:103C1000A5F90001EEEC0BF002C024F901C023F974
:103C2000090E09012C6F190E2B6F2CC989F9886FA9
:103C30008B6B0C0E8A6F000147EC12F001C026F965
:103C40000901261F02C027F9271F04C987F903C9E4
:103C500086F90001DEEC12F002C029F901C028F952
:103C600009012951265D03E12851275D07E0000184
:103C700083EC0BF0010E016E6FD009012E6B2D6BE2
:103C800000018AEC13F0090E09012C6F050E2B6F51
:103C90002CC995F9946F976B140E966F0001BEECCA
:103CA0000BF0090E0901876F050E866F0001A9EC64
:103CB00013F0090111C900F000380F0B006E003637
:103CC0000036FC0E00160050EC0F2A6F2A51035DDF
:103CD0002B6F000E04592C6F140E2B5D036F000E1A
:103CE0002C59046F11C900F000380F0B006E00341E
:103CF0002B6F2B37FC0E2B172E6B2BC92DF90001C8
:103D00008AEC13F0090E09012D6F050E2C6F00C906
:103D10002FF9FFC82EF9000196EF14F001C025F924
:103D200009012551FE0813E025C92CF900C92EF917
:103D3000FFC82DF9090E306F050E2F6F04C932F937
:103D400003C931F90001D4EF18F004D009010001D2
:103D500083EC0BF0010E016ED1EF22F0040E09018D
:103D60005725016E000E5821036E01C059F95A6F94
:103D7000040E5725E96E000E5821EA6EECCFA6F925
:103D8000ED52EFCFA5F90001EEEC0BF05AC9EAFFB6
:103D900059C9E9FF02C0ECFFED5201C0EFFF060E6A
:103DA00009015725016E000E5821036E01C059F913
:103DB0005A6F060E5725E96E000E5821EA6EECCFB9
:103DC000A6F9ED52EFCFA5F90001EEEC0BF05AC9C0
:103DD000EAFF59C9E9FF02C0ECFFED5201C0EFFF55
:103DE000020E09015725016E000E5821036E01C015
:103DF00059F95A6F020E5725E96E000E5821EA6EE6
:103E0000ECCFA6F9ED52EFCFA5F90001EEEC0BF0E7
:103E10005AC9EAFF59C9E9FF02C0ECFFED5201C0DF
:103E2000EFFF1200090E0901586F0B0E576F58C9AA
:103E300095F9946F976B080E966F0001BEEC0BF02E
:103E40000901566B556B06C903F005C9E9FF03C0AC
:103E5000EAFFEFCF5AF9596B140E586F5B6B0001F4
:103E6000A3EC10F002C054F901C053F906C903F0E5
:103E7000090105C9E9FF03C0EAFF080EEF5CEF6E18
:103E800006C903F005C9E9FF03C0EAFFEFCF96F9C1
:103E900004C995F903C994F9976B0001BEEC0BF0C6
:103EA000090E0901586F0B0E576F000157DF02C949
:103EB00003F0090101C9E9FF03C0EAFF0BC9EFFFE5
:103EC00008C903F007C9E9FF03C0EAFF10C9ECFF06
:103ED000ED520FC9EFFF0AC903F009C9E9FF03C09A
:103EE000EAFF12C9ECFFED5211C9EFFF5551535DC6
:103EF00003E15651545D02E0000E01D0010E016E47
:103F00000001FCEF22F0010E0901866F00017CEC3C
:103F10000DF001C053F90901533D01D079D053C9C7
:103F20009FF9A16B140EA06F000190EC0DF0036AD5
:103F300009010451080F516F000E0320526F0A6BE4
:103F400001C909F90C6B0B6B06C90EF905C90DF90E
:103F500008C910F907C90FF9090EEA6E110EE96ECA
:103F600003C9E2FF02C9E1FF0451016E04E0E6CF9C
:103F7000EEFF012EFCD7090E586F576F0001EEDEE1
:103F8000080E09010425556B546F00C987F9FFC855
:103F900086F9010E886F55C98AF954C989F900015B
:103FA0002FEC17F0090E0901556F546FAB6FAA6F14
:103FB00052C9ADF951C9ACF90001EEEC0DF009019F
:103FC000A06B140E9F6F52C9A2F951C9A1F900014B
:103FD000C3EC16F002C00CF901C00BF953C99FF9EC
:103FE0000901A16B160EA06F000190EC0DF0090EF7
:103FF0000901556F0B0E546F55C9ABF9AA6FAD6B24
:10400000020EAC6F0001EEEC0DF07EEC0EF009013B
:1040100000012AEF23F009010A6B0801FF6BFF5131
:104020002208D8A028D209014B6BFFC84AF94D6B72
:10403000240E4C6F0001F4EC07F002C003F00150B5
:104040009A0F016E030E032201C004F9090103C097
:1040500005F9230E0425E96E000E0521EA6EEFB680
:1040600008D0230E0425E96E000E0521EA6EEFA8A4
:1040700001D0FED104C9E9FF05C9EAFFEF500A08E3
:1040800011E004C9E9FF05C9EAFFEF520CE1230E74
:104090000425016E000E0521036E01C0E9FFEA6EE2
:1040A000EFA001D0E5D104C9E9FF05C9EAFFEF504F
:1040B00003080CE1230E0425016E000E0521036E9A
:1040C00001C0E9FFEA6EEFA001D0D2D1000197EC68
:1040D00015F002C003F901C002F91F0E0901042501
:1040E000E96E000E0521EA6EECCF03F0ED52EFCF42
:1040F00001F00351035C04E305E10150025D02E3BA
:10410000000E01D0010E036A03101BE01F0E0425F0
:10411000E96E000E0521EA6EECCF03F0ED52EF5090
:10412000FF080B6FFF0E03540C6F02510B27035156
:104130000C23010E0B25016E000E0C21036E0150A5
:1041400010D01F0E0425E96E000E0521EA6EECCF9B
:1041500003F0ED52EF50025D006E03500359036E01
:104160000050006F03C001F9210E0425E96E000E16
:104170000521EA6EECCF03F0ED52EFCF01F00151D3
:10418000035C05E303E10051015C01E371D1010E21
:10419000866F000123EC16F0015201E16CD11F0E75
:1041A00009010425016E000E0521036E01C00BF903
:1041B0000C6F000197EC15F00CC9EAFF0BC9E9FF81
:1041C00002C0ECFFED5201C0EFFF210E09010425F2
:1041D000E96E000E0521EA6ED890EF34026EEC34E1
:1041E000036E0250ED52EF6E03C0ECFF1E0E04256D
:1041F000E96E000E0521EA6EEF2A04C9E9FF05C940
:10420000EAFF010EEF5CF70FD8B0C3D0090F000131
:104210003EEF22F0020E09010A6FBBD01E0E09010B
:104220000425E96E000E0521EA6EEF50030803E352
:10423000120E0A6F16D0230E0425E96E000E05211A
:10424000EA6EEFA006D004C9E9FF05C9EAFFEF6AEC
:1042500008D0020E0A6F04C9E9FF05C9EAFF010E82
:10426000EF6E97D01E0E09010425E96E000E0521A0
:10427000EA6EEF5003081FE30F0E0425E96E000EEF
:104280000521EA6EEF3C01D011D00F0E0425E96E36
:10429000000E0521EA6EEFCF9FF9A16BA06B000124
:1042A00090EC0DF07EEC0EF004D00901100E0A6FB8
:1042B000000126D009010F0E0425E96E000E05212C
:1042C000EA6EEF3C01D013D00F0E0425E96E000E0C
:1042D0000521EA6EEFCF4DF9000102EC00F00F0E60
:1042E00009010425E96E000E0521EA6EEF68110E42
:1042F0000A6F04C9E9FF05C9EAFF040EEF6E000169
:10430000090147D01E0E09010425E96E000E0521A2
:10431000EA6EEF50030803E3010E0A6F08D005C9E7
:104320004BF904C94AF90001A4EC15F0090131D098
:1043300005C94BF904C94AF9A4EC15F0090129D0C3
:1043400005C94BF904C94AF9A4EC15F0090121D0BB
:10435000010E09010A6F04C9E9FF05C9EAFF090E48
:10436000EF6E17D01E0E09010425E96E000E05211F
:10437000EA6EEF50030803E3010E0A6F08D005C987
:104380004BF904C94AF90001A4EC15F0090101D068
:1043900009010A536DE00AA90FD0160E0425E96E33
:1043A000000E0521EA6EEFCF06F9ECCF07F9ECCF4E
:1043B00008F9ECCF09F91AD0160E0425E96E000EA3
:1043C0000521EA6EEFCF06F9ECCF07F9ECCF08F93B
:1043D000ECCF09F9160E0425E96E000E0521EA6EF0
:1043E000010EEE26000EEE22EE22ED22010E042535
:1043F000016E000E0521036E01C00BF90C6F0B0E50
:104400000425E96E000E0521EA6EECCF51F9ED525C
:10441000EFCF50F90D0E0425E96E000E0521EA6E6E
:10442000ECCF53F9ED52EFCF52F91A0E0425E96E95
:10443000000E0521EA6EEFCF58F9ECCF59F9ECCF19
:104440005AF9ECCF5BF903C04FF901C04EF909C925
:1044500057F908C956F907C955F906C954F90AC9DF
:104460005CF95D695F6B5E6B0001C2EC17F00901DE
:104470000801FF2BD4D5000134EF23F0E824F76ABC
:10448000F736970FF66E440EF7220A00F550FA6ED3
:104490000800F550F96E14421C4264420443304354
:1044A00030434043504364430801FE91FE919251D2
:1044B000F90FD8B0D5D0070F000135EF23F0080E63
:1044C0000901006F930E0801FF6F080E0901026FCA
:1044D000FD0E016F0001F9EF0BF0015203E108013D
:1044E000BFD000010801FE81FD5303E1020E926F6F
:1044F0000AD0FD51060803E1050E926F04D00001B9
:1045000083EC0BF00801ACD058EF10F0015203E03F
:104510000801926B00010801A3D0080E0901006F89
:10452000F90E0801FF6F080E0901026F930E016F6B
:10453000080E046FFD0E036F080E066F9D0E056FCB
:104540000001CFEF11F0015215E00801FE81FD2DB1
:1045500003D0030E926F0CD0FD51060803E1060E46
:10456000926F06D0FE91000183EC0BF00801926B74
:1045700005D0000183EC0BF00801926B71D0080E9E
:104580000901006F930E0801FF6F080E0901026F09
:10459000F90E016F9EC804F99DC803F90001E0EF10
:1045A0001DF0015203E00801926B0001080158D090
:1045B0000801926B9E5329E19D51480826E3080E9D
:1045C0000901006F9D0E0801FF6F080E0901026FBF
:1045D000FD0E016F080E046F9F0E036F00C906F9F0
:1045E000FFC805F9080E086FDF0E076F080E0A6F87
:1045F000E10E096F000116D4015208E00801FD51D7
:10460000080803E1FE81040E926F000183EC0BF0B9
:10461000080126D0010E0901866F000123EC16F077
:1046200001521BE0080E0901006F930E0801FF6F95
:104630000901016B080E036F9F0E026F9DC804F9FC
:10464000E0C806F9DFC805F9E2C808F9E1C807F9CA
:10465000000159D40801926B0001080101D0080142
:10466000FEB124D70001D7D41200E824F76AF73648
:10467000850FF66E460EF7220A00F550FA6E080016
:10468000F550F96EBE44BE441A45B045144608457F
:104690007E45FDC803F00801FCC8E9FF03C0EAFF3E
:1046A000EFCF04F9ECCF05F9ECCF06F9ECCF07F921
:1046B000080E09010B6FFE0E0A6F010E0C6F000150
:1046C00096EC0FF0AFEF29F00801FCC8E9FFFDC838
:1046D000EAFFEFCF00F0ECCF01F0ECCF02F0ECCF2F
:1046E00003F000508E5D09E101508F5D06E102503C
:1046F000905D03E10350915D14E0030161510801F5
:104700008E5D22E10301625108018F5D1DE103010D
:1047100063510801905D18E1030164510801915D46
:1047200013E1FFC803F0FEC8E9FF03C0EAFF080E6B
:10473000E26E880EE16E060E016EE6CFEEFF012EF0
:10474000FCD7010E016E02D0000E016E0001C5EF14
:1047500029F009010391006B0051220820E34B6B03
:1047600000C94AF94D6B240E4C6F0001F4EC07F0C0
:1047700002C003F001509A0F016E030E032201C024
:1047800001F9090103C002F901C9E9FF02C9EAFF01
:10479000EF500A0802E1038102D0002BDDD703B1FC
:1047A00003D0FE0E016ED0D00B0E0125E96E000E77
:1047B0000221EA6E0301982BD8B4992B99C3ECFF20
:1047C000ED5298C3EFFF9951120808E2FF0A03E186
:1047D0009851870803E2030E996F9869230E090127
:1047E0000125E96E000E0221EA6EEF900D0E012503
:1047F000E96E000E0221EA6EFFC8ECFFED52FEC822
:10480000EFFF160E0125E96E000E0221EA6E010E81
:10481000EE26000EEE22EE22ED221A0E0125E96EA2
:10482000000E0221EA6EEE52EE52EC6AED52EF6A91
:10483000ED52EF6AED52EF6A010E0125016E000E96
:104840000221036E01C004F9056FEA6E01C0E9FFA1
:10485000FDC8E2FFFCC8E1FF0A0E016EE6CFEEFFE5
:10486000012EFCD7010E0125016E000E0221036E00
:1048700001C004F9056F0B0E0125E96E000E02213F
:10488000EA6EECCF51F9ED52EFCF50F90D0E012544
:10489000E96E000E0221EA6EECCF53F9ED52EFCF34
:1048A00052F9160E0125E96E000E0221EA6EEFCFD5
:1048B00054F9ECCF55F9ECCF56F9ECCF57F91A0E65
:1048C0000125E96E000E0221EA6EEFCF58F9ECCF18
:1048D00059F9ECCF5AF9ECCF5BF903C04FF901C09D
:1048E0004EF9020E5C6F5D695F6B5E6B0001C2EC9E
:1048F00017F0090101C9E9FF02C9EAFF010EEF6ED5
:10490000160E0125E96E000E0221EA6E010EEE265A
:10491000000EEE22EE22ED221F0E0125016E000E8A
:104920000221036E01C004F9056F000197EC15F038
:1049300005C9EAFF04C9E9FF02C0ECFFED5201C05E
:10494000EFFF090100C901F0000118EF2AF0090189
:104950004B6BFCC84AF94D6B240E4C6F0001F4EC14
:1049600007F002C0FEF801C0FDF89A0E080101240C
:10497000E96E030E0220EA6EEF50030802E0000E1B
:1049800001D0010E016E0001120009014B6BFEC83F
:104990004AF94D6B240E4C6F0001F4EC07F002C095
:1049A00000F901C0FFF8230E0801FF27000E0901DE
:1049B00000239A0E0801FF25E96E030E090100216C
:1049C000EA6E000EEFB6010E016E0001EAEF28F06C
:1049D00009014B6BFEC84AF94D6B240E4C6F000168
:1049E000F4EC07F002C003F001509A0F016E030EC1
:1049F000032201C001F9090103C002F9230E0125B8
:104A0000E96E000E0221EA6EEFA64FD0230E0125BB
:104A1000E96E000E0221EA6EEFA40ED02E6B140E8A
:104A20002D6F00018AEC13F0230E09010125E96EB8
:104A3000000E0221EA6EEF94120E0125E96E000EBF
:104A40000221EA6EECCF04F9ED52EFCF03F90353E4
:104A500010E104530EE1000183EC0BF0230E090179
:104A60000125E96E000E0221EA6EEF96000E016E3E
:104A70001ED0120E0125E96E000E0221EA6EFF0E15
:104A8000EF2602E2EE52ED0600C904F9FFC803F971
:104A90000001C8EC12F004C9EAFF03C9E9FF01C034
:104AA000EFFF010E016E090102D0000E016E000140
:104AB000FBEF28F009014B6B0EC94AF94D6B240E30
:104AC0004C6F0001F4EC07F001C00FF9140E09015E
:104AD0000124016E000E0220036E01509A0FE96E50
:104AE000030E0320EA6EECCF10F9ED52EFCF0FF971
:104AF0000F5305E1105303E1000E016E40D04B6BE4
:104B00000EC94AF94D6B240E4C6F0001F4EC07F00E
:104B100002C010F901C00FF90F0E09010124016E46
:104B2000000E0220036E01509A0FE96E030E03205F
:104B3000EA6EEF3C08D0866B000123EC16F00150C2
:104B400009011DD01CD04B6B0EC94AF94D6B240EC8
:104B50004C6F0001F4EC07F002C010F901C00FF92E
:104B6000230E09010F27000E10239A0E0F25E96E60
:104B7000030E1021EA6E000EEFB2010E016E00016D
:104B8000120009C90EF996DF015204E1000E016E10
:104B9000026E93D009014B6B09C94AF94D6B240E83
:104BA0004C6F0001F4EC07F002C00FF901C00EF9E0
:104BB0000F0E09010124016E000E0220036E015048
:104BC0009A0FE96E030E0320EA6EEF3C03D00B6BE5
:104BD0000A6B1DD04B6B09C94AF94D6B240E4C6F03
:104BE0000001F4EC07F001C00EF9100E09010124D8
:104BF000016E000E0220036E01509A0FE96E030E43
:104C00000320EA6EECCF0BF9ED52EFCF0AF9CA0E92
:104C1000D8800A550C6F030E0B550D6F4B6B09C9ED
:104C20004AF94D6B240E4C6F0001F4EC07F002C002
:104C30000FF901C00EF9140E09010124016E000ED6
:104C40000220036E01509A0FE96E030E0320EA6EF4
:104C5000ECCF03F0ED52EFCF01F003500D5D23E3F5
:104C600003E10C51015C1FE24B6B09C94AF94D6B22
:104C7000240E4C6F0001F4EC07F002C00FF901C0E4
:104C80000EF9140E09010124016E000E0220036EBC
:104C900001509A0FE96E030E0320EA6EECCF03F089
:104CA000ED52EF5003D00DC903F00C510C6F03C04F
:104CB0000DF90CC901F00DC902F000019DEF27F0BC
:104CC00009014B6B09C94AF94D6B240E4C6F000169
:104CD000F4EC07F002C003F001509A0F016E030ECE
:104CE000032201C00AF9090103C00BF90F0E0A25BE
:104CF000E96E000E0B21EA6EEF3C03D0000E016E50
:104D0000ADD0230E0A25016E000E0B21036E01C0EB
:104D1000E9FFEA6EEFB203D0000E016E9FD0010EE4
:104D20000A25016E000E0B21036E01C00CF90D6FF8
:104D30000B0E0A25E96E000E0B21EA6EECCF51F93D
:104D4000ED52EFCF50F90D0E0A25E96E000E0B2142
:104D5000EA6EECCF53F9ED52EFCF52F9160E0A2559
:104D6000E96E000E0B21EA6EEFCF54F9ECCF55F946
:104D7000ECCF56F9ECCF57F91A0E0A25E96E000E62
:104D80000B21EA6EEFCF58F9ECCF59F9ECCF5AF975
:104D9000ECCF5BF90F0E0A25E96E000E0B21EA6ECF
:104DA000EFCF5DF9100E0A25E96E000E0B21EA6EB9
:104DB000ECCF5FF9ED52EFCF5EF903C04FF901C0C0
:104DC0004EF9180E5C6F0001C2EC17F0160E0901C7
:104DD0000A25016E000E0B21036E01C00CF90D6F48
:104DE000EA6E01C0E9FFEFCF0EF9ECCF0FF9ECCF7F
:104DF00010F9ECCF11F9100E0A25E96E000E0B2107
:104E0000EA6EECCF03F0ED52EFCF00F003C001F0FB
:104E1000026A036A0E5100260F510122105102222C
:104E2000115103220DC9EAFF0CC9E9FF00C0EFFFD1
:104E300001C0ECFF02C0ECFF03C0ECFF230E0A250B
:104E4000E96E000E0B21EA6EEF92230E0A25E96E41
:104E5000000E0B21EA6EEF98010E016E00011200A8
:104E600009014B6BFEC84AF94D6B240E4C6F0001D3
:104E7000F4EC07F002C003F001509A0F016E030E2C
:104E8000032201C003F9090103C004F9140E03252C
:104E9000E96E000E0421EA6EECCF08F9ED52EFCF77
:104EA00007F9075306E1085304E1000E016E026E94
:104EB000BED00F0E0325E96E000E0421EA6EEF3C12
:104EC00038D00F0E0325016E000E0421036E01C0C1
:104ED00007F9086F866B00017CEC0DF008C9EAFF4A
:104EE00007C9E9FF01C0EFFF0F0E09010325E96EB5
:104EF000000E0421EA6EEF3C04D0000E016E026E3B
:104F000096D0100E0325E96E000E0421EA6EEC6ABD
:104F1000ED52EF6A0F0E0325E96E000E0421EA6ED2
:104F2000EFCF9FF9A16B280EA06F000190EC0DF060
:104F30000901FEC809F9000124D602C006F901C022
:104F400005F909010651025D08E303E10151055D20
:104F500004E206C903F0055103D002C903F0015170
:104F6000016F03C002F902C906F901C905F9230E50
:104F70000325E96E000E0421EA6EEF8806C903F0EE
:104F80000551D8B406070507031035E000C903F042
:104F90000801FF51FF2BD8A403D00901002B080101
:104FA000E96E03C0EAFFEFCFAAF90001DFEC0DF0D4
:104FB000140E09010325E96E000E0421EA6E010EAC
:104FC000EF5C006E000EEC58036E0050ED52EF6E79
:104FD00003C0ECFF100E0325E96E000E0421EA6EFB
:104FE000010EEF24016E000EEC20036EED5201C0A5
:104FF000EFFFEC6EC3D7100E0325E96E000E0421FF
:10500000EA6EECCF08F9ED52EFCF07F9085102082C
:105010000AE2FF0A03E10751C90805E2FEC809F9DF
:1050200000014EDE090101C901F002C902F00001D0
:105030004DEF29F009014B6B03C94AF94D6B240E62
:105040004C6F0001F4EC07F002C003F001509A0F1E
:10505000016E030E032201C004F9090103C005F922
:10506000230E0425E96E000E0521EA6EEFB603D08B
:10507000000E016E0DD0000183EC0BF0230E090130
:105080000425E96E000E0521EA6EEF96010E016E11
:1050900000017EEF28F009014B6BFEC84AF94D6B09
:1050A000240E4C6F0001F4EC07F002C003F0015035
:1050B0009A0F016E030E032201C0FFF8080103C01E
:1050C00000F9FFC8E9FF090100C9EAFFEF50030832
:1050D00011E0FFC8E9FF090100C9EAFFEF5002082B
:1050E00009E000C94BF9FFC84AF90001A4EC15F02A
:1050F0006CD00901FEC803F900019CD7010E08011C
:10510000FF25016E000E09010021036E01C001F9A7
:10511000026F0B0E0801FF25E96E000E0901002148
:10512000EA6EECCF51F9ED52EFCF50F90D0E0801B8
:10513000FF25E96E000E09010021EA6EECCF53F95C
:10514000ED52EFCF52F9160E0801FF25E96E000E61
:1051500009010021EA6EEFCF54F9ECCF55F9ECCFFD
:1051600056F9ECCF57F91A0E0801FF25E96E000E2B
:1051700009010021EA6EEFCF58F9ECCF59F9ECCFD5
:105180005AF9ECCF5BF903C04FF901C04EF9110E8B
:105190005C6F5D695F6B5E6B0001C2EC17F0160E11
:1051A0000801FF25E96E000E09010021EA6E010EDB
:1051B000EE26000EEE22EE22ED22FFC8E9FF0901E5
:1051C00000C9EAFF040EEF6E00011200FCC8FEF8F1
:1051D000C5EF24F0015243E0010E4E6E416A406A71
:1051E000FCC8FEF8080E0901006FFD0E0801FF6FF4
:1051F0000001E8EF24F0015232E041C003F04050DA
:10520000402AD8B4412A0801FE6F600EFE25E96EDF
:10521000010E0320EA6EFDC8EFFFFD5140080EE1CC
:105220004E6A140E0901006F040E016F000106ECB6
:1052300003F0FDC8FFF82FEC03F00801415203E131
:1052400040505A0803E2416A5A0E406E600E4024F4
:10525000E96E010E4120EA6EEF6A0001C1D71A52D1
:1052600022E00801E753D8B402D000011CD0FCC8EA
:105270000EF900011FDC015216E0010E0801E76F74
:10528000FCC8FEF80901006F060E0801FF6F090156
:10529000026B48C001F90001E3D5FCC809F910DD33
:1052A0004F6A1A6A16D01A5214E00801E753D8B4AC
:1052B00002D000010ED0FCC80EF900015AEC25F016
:1052C000015207E14F2A4F50090803E2FCC8FEF8DB
:1052D000E2DE1A5203E10801E76B0001010E016EE4
:1052E00097EF2AF097EC15F002C0FAF801C0F9F830
:1052F0000801EB51F80FD8B094D1080F000113EF5B
:105300002BF0E3C8F2F8E4C8F3F8E5C8F4F8E6C80F
:10531000F5F802017D530FE1010E0901006F040E43
:10532000016F000106EC03F02A0EF66E010EF76E17
:1053300061EC03F00201010E0801EB6F0001010EA8
:105340000901866F000123EC16F0015210E0080EEF
:105350000801FD6FF20EFC6F000149EF23F0FAC85F
:10536000E9F8F9C8E8F8020E0801EB6F000108013E
:1053700058D1080E0801FD6FF20EFC6F080EFF6F8A
:10538000EC0EFE6F000164EF23F0015216E0030EF5
:105390000801EB6F02017D530FE1010E0901006F5F
:1053A000040E016F000106EC03F0400EF66E010ED4
:1053B000F76E61EC03F002012DD00801FA51E95DAE
:1053C00004E305E1E851F95D02E3000E01D0010EAE
:1053D000036A031013E0FF0ED880E855FC6FFF0E40
:1053E000E955FD6FF951FC27FA51FD23010EFC250B
:1053F000016E000EFD21036E015007D0E851F95DEA
:10540000006EE951FA59036E0050180802E2010ECD
:10541000EB6F0201080105D1080E0801FD6FEC0ECB
:10542000FC6F1D0EFF6FE60EFE6F0001A9EF23F06B
:1054300001C0EAF8EAC851F00801EA51FE080BE0A1
:10544000000197EC15F002C0E9F801C0E8F8040E7D
:105450000801EB6F13D002017D530FE1010E09012A
:10546000006F040E016F000106EC03F0560EF66E9D
:10547000010EF76E61EC03F002010801D2D0EAC818
:10548000FCF8A7EC24F001521AE0050E0801EB6FBE
:1054900002017D530FE1010E0901006F040E016F3F
:1054A000000106EC03F06C0EF66E010EF76E61EC77
:1054B00003F0020194948B84010E506E2DD00801EC
:1054C000FA51E95D04E305E1E851F95D02E3000EFC
:1054D00001D0010E036A031013E0FF0ED880E855D7
:1054E000FC6FFF0EE955FD6FF951FC27FA51FD23C2
:1054F000010EFC25016E000EFD21036E015007D048
:10550000E851F95D006EE951FA59036E00507808D0
:1055100002E2070EEB6F0201080183D0EAC8FCF833
:10552000A7EC24F001520EE0EAC8FCF84FD601C007
:10553000FBF80801FB5304E0FAC8E9F8F9C8E8F8F9
:1055400004D00001060E0801EB6F6BD002017D5301
:105550000FE1010E0901006F040E016F000106EC5E
:1055600003F0820EF66E010EF76E61EC03F002019D
:1055700094948B94506AEAC80EF900015AEC25F015
:10558000015204E0070E0801EB6F2CD00801FA511C
:10559000E95D04E305E1E851F95D02E3000E01D0A5
:1055A000010E036A031013E0FF0ED880E855FC6F6C
:1055B000FF0EE955FD6FF951FC27FA51FD23010E4D
:1055C000FC25016E000EFD21036E015007D0E8514D
:1055D000F95D006EE951FA59036E0050780802E255
:1055E000070EEB6F1ED0EAC8FEF855DD030E08016A
:1055F000EB6F02017D530FE1010E0901006F040EF4
:10560000016F000106EC03F0960EF66E010EF76EC8
:1056100061EC03F0020194948B94506A080101D06C
:10562000080100011200E824F76AF736410FF66E10
:10563000560EF7220A00F550FA6E0800F550F96E82
:1056400002533E53725318547E541C554C55E65524
:105650000FC911F90EC910F911C903F0090110C9D8
:10566000E9FF03C0EAFFEF5206E0102BD8B4112B7C
:105670000001F2D709010E51105D006E0F51115952
:10568000036E00C001F0026E00011200010E1A6EDE
:1056900054EC22F027DE1200F7C8EAFFF6C8E9FF53
:1056A0000801FCC8EFFFE92AD8B4EA2AEF6AF62B12
:1056B000D8B4F72B000112000801FABF11D00F0E69
:1056C000006EF93900160A0E005C03E2300E002667
:1056D00002D0FA51002600C0FCF80001DDDF08010D
:1056E0000F0EF9170A0EF95D02E2300E02D0FA9F92
:1056F000FA51F927F9C8FCF80001CEDF12000900C1
:10570000F6CFFAF8F7CFFBF8F5CFFCF8C5DFFAC80B
:10571000F6FFFBC8F7FF0801F92F01D002D0000106
:10572000EED7000103EF2CF0016603D0026602D031
:1057300007D0022A00C0EEFF012EFCD7022EFAD7B6
:10574000120002011053D8B495D0156B146B136B73
:10575000126B416A010E406E010E0F5D415227E14E
:10576000405C25E2D89012350801FA6F020113352A
:105770000801FB6F020114350801FC6F02011535A9
:105780000801FD6F160E4024E96E020E4120EA6EFC
:10579000EF50FA110201126FFBC813F2FCC814F2A9
:1057A000FDC815F20201402AD8B4412AD5D7080114
:1057B000F76BAC0EF66F15C2F9F8370EFA6F0001F1
:1057C0007BDF14C2F9F8370E0801FA6F000174DFAD
:1057D00013C2F9F8370E0801FA6F00016DDF12C22B
:1057E000F9F8370E0801FA6F000166DF010E0801B3
:1057F000F76F060EF66F500EF66E030EF76E040E80
:10580000F96F00017CD715C2F9F8370E0801FA6F5D
:10581000000152DF14C2F9F8370E0801FA6F0001D7
:105820004BDF13C2F9F8370E0801FA6F000144DFAD
:1058300012C2F9F8370E0801FA6F00013DDF010EC0
:1058400009010F6F060E0E6F000102DF01C048F064
:105850001DDF0201106B0F6B0FC20CF2116B020EF9
:10586000EA6E160EE96E006A026A1A0E016E0001F7
:105870005BDF02010C2D24D01151020821E20D2B17
:10588000106B156B146B136B126B0A6B0B6B416A0D
:10589000406A40C00FF20FC20CF2116B416A406ABD
:1058A00041520EE1405019080BE3160E4024E96EF8
:1058B000020E4120EA6EEF6A402AD8B4412AF0D79E
:1058C0000001A4EF37F00900F5520CE0F6CFF9F82B
:1058D000F7CFFAF8F5CFFCF8DFDEF9C8F6FFFAC823
:1058E000F7FFF1D7CCEF2CF09588000E83B8010EAE
:1058F0000201835D25E0140E0901006F0001F2EC46
:1059000002F09588000E83B8010E0201835D18E055
:105910009588836B83B8832B832D0FD05A0EF66E38
:10592000030EF76E000161EC03F002018A6B0301C4
:10593000526B516B506B05D0020195968C968A6B19
:1059400003019580000E83B0010E0201865D2FE0F9
:105950009580000E83B0010E865D29E09580866BF0
:1059600083B0862B865323E0835321E08A531FE1C3
:1059700003015053D8B402D0020119D0010E506F68
:105980000201896B0801F76F060EF66F6C0EF66E5A
:10599000030EF76E000197D7010E09010F6F060E77
:1059A0000E6F000155DE01C048F070DE02010001FB
:1059B000A6EF37F0456A446A44C01BF0436A1BC037
:1059C00042F0436A0A0E426E416A406A455250E113
:1059D00044500E084DE31B524BE1416A406A442A91
:1059E000D8B4452A41523EE1405009083BE3220E1B
:1059F0004024E96E000E4120EA6E40504224080126
:105A0000FB6F41504320FC6FF2CFFDF8F29EFCC8C3
:105A1000AAFFFBC8A9FFA69CA69EA680A850FDBF12
:105A2000F28EEF6E220E4024E96E000E4120EA6EE7
:105A3000EFCFF9F8520E4024E96E000E4120EA6ED5
:105A4000EF50F95D03E000010DD00801402AD8B401
:105A5000412A40500A0804E1415202E1010E1B6E46
:105A60000001C0D70A0E4226000E43220400AED722
:105A7000B7EF37F0080E016E0E0E006E002EFED747
:105A80008D9296920E0E006E002EFED709011537EC
:105A90008C9CD8B0958CD8A0959C968284A2FED779
:105AA000012E01D002D00001E7D70E0E006E002EAD
:105AB000FED78D9296920000958C0E0E006E002EF1
:105AC000FED70E0E006E002EFED7968284A2FED761
:105AD000016A0E0E006E002EFED783BC01808D92EF
