:0600000049EF35F012008B
:08000800046ED8CF05F0E0CF33
:1000100006F00001E9CF0CF0EACF07F0E1CF08F0DD
:10002000E2CF09F0D9CF0AF0DACF0BF0F3CF12F01C
:10003000F4CF13F0FACF14F0F5CF15F0F6CF16F099
:10004000F7CF17F000C00EF001C00FF002C010F0A3
:1000500003C011F0F2AA30EF00F0F2B483EF00F029
:100060009DA036EF00F09EB0D5EF00F0F2A83CEF77
:1000700000F0F2B2E3EF00F0F0A642EF00F0F0B0D3
:10008000FDEF00F00EC000F00FC001F010C002F054
:1000900011C003F00CC0E9FF07C0EAFF078E08C0DB
:1000A000E1FF09C0E2FF0AC0D9FF0BC0DAFF12C0AE
:1000B000F3FF13C0F4FF14C0FAFF15C0F5FF16C01C
:1000C000F6FF17C0F7FF045006C0E0FF05C0D8FFD9
:1000D0001000F76AE20FF66E000EF7220900F550E5
:1000E0001200280C0106F76AF60FF66E000EF722D2
:1000F0000900F5501200424F4C45544552415F50A3
:10010000414741444F000301882BD8B4892B8B2BE6
:100110008B510B0802E28A2B8B6B340ED76E8C0E40
:10012000D66EF294000142EF00F0536F6C69636980
:10013000747564204152502E202020202020000081
:10014000434F4E454354414E444F2E2E2E202020E7
:100150002020202000004572726F7220656E20659D
:100160006C20736F636B65742E200000434F4E4507
:10017000435441444F2020202020202020202020B4
:100180000000444553434F4E45435441444F2020C3
:10019000202020202000444553434F4E45435441E6
:1001A000444F20202020202020000201112B1F2A54
:1001B000892B7C2B8B2B0B0ECF6EDC0ECE6E9E9084
:1001C000000142EF00F0938081A0FDD70201116B86
:1001D000010E0C6F036A0F51160FE96E020E032019
:1001E000EA6E010EEF6E0F2B0F511A0802E1010E9D
:1001F000106FF292000142EF00F0938281A2FDD7CE
:100200000201116B010E0C6F036A0F51160FE96E9C
:10021000020E0320EA6EEF6A0F2B0F511A0802E15B
:10022000010E106FF090000142EF00F00C494E49B2
:100230004349414E444F0000446961733A2575209B
:100240005041474F3A25640052657374616E3A25F8
:10025000752000005449454D504F204445205052D0
:100260005545424100002020484120455850495200
:1002700041444F20202000000C0A202020544F4DE4
:100280004520535520424F4C45544F0A2059204198
:1002900056414E434520504F52204641564F520042
:1002A0000C00202020202020202020202020202082
:1002B0002020202020200000202020253032642013
:1002C0002530326420253032642F253032642F25CA
:1002D0003032642020202000202020253032643A53
:1002E0002530326420253032642F253032642F25AA
:1002F00030326420202020002020205757572E41E4
:1003000043434553412E4D4520202020000020200E
:1003100020202020204143434553412020202020FD
:10032000202000002020202020202020202020200D
:10033000202020202020202000002020486F7261F3
:100340002041637475616C697A61646120200000EA
:100350005341312D2530384C5800424F544F4E5F99
:10036000424F4C45544F0000466F6C696F3A2573FD
:1003700000004D41524941205445524553412042CD
:1003800041455A204D4F4E524F5900005246433A74
:1003900042414D543937303532383834410A000043
:1003A0003420706F6E69656E746520313330322C85
:1003B00020636F6C6F6E69612043656E74726F208D
:1003C0002043502037323030300A507565626C61FE
:1003D0002C20507565626C610A00253032642F252F
:1003E0003032642F32302530326420253032643A86
:1003F000253032643A253032640054415249464136
:100400003A24313520486F7261206F204672616353
:1004100063696F6E2C20544F4C4552414E43494105
:100420003A35206D696E2E20200A0000486F7261F7
:1004300072696F733A646520383A30302061203237
:10044000313A30306872732E206465206C756E65A9
:1004500073206120766965726E65730A00005361CE
:100460006261646F7320646520383A303020612007
:1004700031343A30306872732E2020202020202022
:10048000202020202020202020202020200A0000C2
:100490002241434345534122206175746F6D61745D
:1004A000697A6163696F6E2000007777772E6163E8
:1004B000636573612E6D6520206175746F6D617465
:1004C000697A6163696F6E406163636573612E6D04
:1004D00065001D688C001D7701001D688C001D776C
:1004E00001000D0A5245494E4943494F2D574400DA
:1004F0000D0A5245494E4943494F2D4D434C520038
:100500000D0A5245494E4943494F2D564F4C5441CF
:100510004A455F42414A4F000D0A504F5745525FCE
:1005200055500000090104B102D0899801D0898892
:10053000929804B302D0899401D08984929404B52E
:1005400002D0899201D08982929204B702D0899018
:1005500001D089809290000092968986060E006EE6
:10056000002EFED700009296899600011200969404
:100570008D94C70E006E002EFED700D009010153E6
:1005800003E096948D8402D096948D940000929608
:1005900089960239036F0F0E031703C904F900018E
:1005A000C1DF090102510F0B036F046F0001BADFB5
:1005B0001200080EEA6EFD0EE96EEF500EE00C0E12
:1005C000016E006A002EFED7012EFBD7F70E006EDB
:1005D000002EFED700D0EF2EF2D712000801FE51F8
:1005E000010A000107E0030A08E0010A0AE0070A1D
:1005F0000CE010D00801FF6B0FD0400E0801FF6F18
:100600000BD0140E0801FF6F07D0540E0801FF6FC6
:1006100003D000010801FF6B010EFD5DFF27FF51B4
:1006200080090901006F016B026F0001A0DF120059
:100630000801FC510C0A000105E0060A12E0020A5A
:100640001AE020D00901016B010E026F00018FDF5B
:10065000010E02018C6F020E0801FD6F0001A9DF7F
:1006600018D002018C2B010E0801FD6F8CC2FEF820
:100670000001B4DF0ED00901016B100E026F000102
:1006800076DF07D0010E0901016FFCC802F90001F5
:100690006EDF12000900F5520CE0F6CFF9F8F7CF43
:1006A000FAF8F5CFFCF8C4DFF9C8F6FFFAC8F7FF8F
:1006B000F1D712009388938A18EF36F0010E0201E9
:1006C0008C6F96948D9492968996230E0801FD6FF7
:1006D00000016FDF0801F66BF65102080DE3030E0F
:1006E0000901046F00011EDF050E0801FD6F000106
:1006F00060DF0801F62BF0D7020E0901046F00013C
:1007000011DF0801F66BF651030813E3036AF65193
:100710000001DFDC0801F76F0901016B026F0001C6
:1007200026DF050E0801FD6F000143DF0801F62BEF
:10073000EAD700011AEF36F0010E0801F66FF65104
:100740000E08D8A05DD1010EF65DF20FD8B0D7D05B
:100750000E0F000103EF05F0080EEA6EF70EE96ECA
:10076000020EE26E8D0EE16EE752E6CFEEFFFCE187
:100770000801C5D00001080EEA6EF70EE96E020E00
:10078000E26E990EE16EE752E6CFEEFFFCE1080162
:10079000B6D00001080EEA6EF70EE96E020EE26EA8
:1007A000A50EE16EE752E6CFEEFFFCE10801A7D00F
:1007B0000001080EEA6EF70EE96E020EE26EB10E4F
:1007C000E16EE752E6CFEEFFFCE1080198D00001B0
:1007D000080EEA6EF70EE96E020EE26EBD0EE16ED5
:1007E000E752E6CFEEFFFCE1080189D00001080ED8
:1007F000EA6EF70EE96E020EE26EC90EE16EE75286
:10080000E6CFEEFFFCE108017AD00001080EEA6EA7
:10081000F70EE96E020EE26ED50EE16EE752E6CFFC
:10082000EEFFFCE108016BD00001080EEA6EF70E46
:10083000E96E020EE26EE10EE16EE752E6CFEEFFE8
:10084000FCE108015CD00001080EEA6EF70EE96ECB
:10085000020EE26EED0EE16EE752E6CFEEFFFCE136
:1008600008014DD00001080EEA6EF70EE96E020E87
:10087000E26EF90EE16EE752E6CFEEFFFCE1080111
:100880003ED00001080EEA6EF70EE96E030EE26E2E
:10089000050EE16EE752E6CFEEFFFCE108012FD036
:1008A0000001080EEA6EF70EE96E030EE26E110EFD
:1008B000E16EE752E6CFEEFFFCE1080120D0000137
:1008C000080EEA6EF70EE96E030EE26E1D0EE16E83
:1008D000E752E6CFEEFFFCE1080111D00001080E5F
:1008E000EA6EF70EE96E030EE26E290EE16EE75234
:1008F000E6CFEEFFFCE1080102D000010801416AE9
:10090000406A40C01BF0415240E1405009083DE3BD
:10091000220E4024E96E000E4120EA6EF6510A0DC7
:10092000F35040240901056F000E4120066FF2CFFD
:1009300007F9F29E06C9AAFF05C9A9FFA69CA69EB3
:10094000A680A85007BFF28EEF6E220E4024E96EFB
:10095000000E4120EA6EEFCF03F9F70E4024E96E56
:10096000080E4120EA6EEF50035D03E008010DD050
:100970000901402AD8B4412A40500A0804E14152F2
:1009800002E1010E1B6E0801BED71B5237E1416A1E
:10099000406AF70E4024E96E080E4120EA6EEF52DD
:1009A0002DE0F6510A0DF35040240901036F000EAB
:1009B0004120046FF70E4024E96E080E4120EA6ED4
:1009C000EFCF05F9F250006EF29E04C9AAFF03C9E9
:1009D000A9FF05C9A8FFA69CA69EA6840F01550ED7
:1009E000A76EAA0EA76EA682A6B2FED7A694005046
:1009F000F212402AD8B4412A0801CBD7F62B9FD651
:100A000000011CEF36F0E824F76AF736210FF66E86
:100A10000A0EF7220A00F550FA6E0800F550F96E3A
:100A2000580776079407B207D007EE070C082A0884
:100A3000480866088408A208C008DE080301546B51
:100A4000040E556FA30E566F576B586B220E596FDD
:100A500000011EEF36F0C00E0301506FA80E516F5B
:100A6000010E526F980E536FC00E5E6FA80E5F6F2F
:100A7000010E606FFE0E616F5A695B695C695D6BA8
:100A8000000120EF36F0C00E0801E06FA80EE16F04
:100A9000010EE26F960EE36F000122EF36F0830E37
:100AA000D56E340ED76E8C0ED66EF28AC00EF21250
:100AB0003AEF09F094968B96948894928B82949056
:100AC0008B80E6EF06F00901AD6BAD51070814E32A
:100AD000D890AC3702E28B9A01D08B8A949A949684
:100AE0008B86948882B802D0D89001D0D880AE3757
:100AF00094968B96AD2BE9D7AEC901F00001120098
:100B000094928B92A1C9A3F9A1C9ACF90001DBDFD2
:100B10000901AC6B0001D7DF01C0A2F994928B826E
:100B20000901A2C901F00001120094928B920901FF
:100B3000AC690001C8DF94928B82FBEF06F09492BF
:100B40008B920901A7514009A96FAC6F0001BBDF6F
:100B5000A8C9ACF9B8DF94928B82120094928B9260
:100B60000901A651A009A86FAC6F0001ACDFA7C9AD
:100B7000ACF9A9DF94928B82120094928B920901B6
:100B8000A9518009AB6FAC6F00019DDFAAC9ACF918
:100B90009ADF94928B8212001F0E0901A66F030E3A
:100BA000A76F0001DBDF090E0901A76FA40EA66F76
:100BB000010EA625E96E000EA721EA6EEFCFAAF975
:100BC0001F0EA96F0001D9DF120094928B92FEC80C
:100BD00000F9FEC8ACF9000176DF0901AC6B000139
:100BE00072DF0901AC6B00016EDF01C0FFF8949267
:100BF0008B820801FFC801F000011200020E0901FA
:100C0000A56F140EA46F0001C7DF140E0901A76FB2
:100C1000FBC8A8F9000193DF080E0801FF6FFC0E66
:100C2000FE6FE96EFFC8EAFFEFCFA8F9160E0901C3
:100C3000A76F000184DF080E0801FF6FFC0EFE6F36
:100C4000010EFE25E96E000EFF21EA6EEFCFA8F936
:100C5000170E0901A76F000172DF030E0901A56FCE
:100C60000A0EA46F000198DF0A0E0801FE6F000152
:100C7000ACDF01C0FEF8000E080101B0010E000A51
:100C8000D8B402D00001F0D700011200020E090111
:100C9000A56F140EA46F00017FDF140E0901A76F6A
:100CA000FBC8A8F900014BDF120E0901A76F010E66
:100CB000A86F000144DF030E0901A56F0A0EA46F9F
:100CC00000016ADF0A0E0801FE6F00017EDF01C02D
:100CD000FEF8000E080101B0010E000AD8B402D0DF
:100CE0000001F0D7020E0901A56F140EA46F0001D8
:100CF00053DF120E0901A76FA86B000120DF180E49
:100D00000801FE6F000161DF01C0FCF8190E080147
:100D1000FE6F00015ADF01C0FDF80801FCC801F0B8
:100D2000FDC802F0000112001F0E0901A66F0C0E93
:100D3000A76F000113DF0801FB6B0001A7DF02C0F2
:100D4000FAF801C0F9F80801F751020804E1F76B5D
:100D5000FAB1F72B0BD0FA91F7B1FA81FB6BFAC815
:100D6000FDF8F9C8FCF8000149DF0801020E09018D
:100D7000A56FA46F000110DF020E0801FE6F0001D5
:100D800024DF01C0F8F80801F891F7B1F881020EEC
:100D90000901A76FF8C8A8F90001D1DE0801F753CF
:100DA00002E0150E01D0120EFB6F040E0901A76FB1
:100DB000FBC8A8F90001C3DE1F0E0901A96F040ECC
:100DC000AA6F0001DADEC5EF07F074D61D0E090127
:100DD000A16F000195DE01C0F6F80801F6A702D068
:100DE0000001F4D7F651FF0A010BD8B402D000017C
:100DF000EDD700019AD6010E0801FD6F0001D9EC74
:100E000002F00301876B90818D6B8C6B080E0901DA
:100E1000A76FA86B000193DE090E0901A76FA86BED
:100E200000018DDE0C0E0901A76FF70EA86F0001FF
:100E300086DE0D0E0901A76F1B0EA86F00017FDE75
:100E40000A0E0901A76FF70EA86F000178DE0B0EDE
:100E50000901A76F1B0EA86F000171DE040E0901C6
:100E6000A76FF80EA86F00016ADE050E0901A76FD3
:100E70001B0EA86F000163DE020E0901A56FA46BB3
:100E800000018ADE0901A76B0D0EA86F000157DE75
:100E9000020E0901A76F320EA86F000150DE030E8B
:100EA0000901A76F400EA86F000149DE090E090174
:100EB000A76F3F0EA86F000142DE060E0901A76F63
:100EC000120EA86F00013BDE070E0901A76F0C0E82
:100ED000A86F000134DE0A0E0901A76FEE0EA86F9D
:100EE00000012DDE0B0E0901A76F050EA86F000192
:100EF00026DE030E0901A56F040EA46F00014CDE6F
:100F0000040E0901A76F54C3A8F9000118DE050EED
:100F10000901A76F55C3A8F9000111DE020E0901EE
:100F2000A76F56C3A8F900010ADE030E0901A76FD7
:100F300057C3A8F9000103DE0901A76B58C3A8F93C
:100F40000001FDDD010E0901A76F59C3A8F90001D9
:100F5000F6DD120E0901A16F0001D2DD01C091F38F
:100F6000100E0801FB6F010EFD6FFC6B000146DEE9
:100F7000140E0801FB6F040EFD6F720EFC6F000172
:100F80003DDE0801F76B0001CFD61F0E0901A96FE6
:100F9000040EAA6F0001F1DD3BEF09F0030190930D
:100FA0000801856986698769886989698A698E6B9C
:100FB0008D6B8C6B8B6B00013CEF09F00901465186
:100FC0004803F3CF01F0F4CF00F04903F3500026BB
:100FD00047514803F3500020026E00011200FCC884
:100FE00086F3FBC885F3FAC884F3F9C883F319EFD5
:100FF00009F00901016B026B010E036FDA6AD96A0D
:10100000080E066FF90E056F080EEA6EFD0EE96E0A
:1010100006C9E2FF05C9E1FF03C904F9D890E5500C
:10102000EE02F3500123F4500223042FF7D701C935
:10103000DEFF02C901F9026BD8B0022B052BD8B430
:10104000062B032B03510508DFE100015FEF08F0D9
:10105000016A026A006A036A09010B5102E10A513E
:1010600018E0100E0C6FD890083709370036033699
:101070000B51035C02E10A51005C07E30A51005E78
:10108000D8A003060B51035ED880013602360C2F20
:10109000EAD70001120086C3FCF885C3FBF884C3BD
:1010A000FAF883C3F9F8410E0901006FC60E080172
:1010B000FF6F4E0EFE6F6D0EFD6F00019AD7390E59
:1010C000080100240301836F300E08010120030191
:1010D000846F000E080102200301856F000E0801D5
:1010E00003200301866F85C300F086C301F0026A06
:1010F000036A86C3FBF885C3FAF886C309F985C37A
:1011000008F97F0E09010B6F0A690001A1DF00C019
:1011100001F003C002F01AEF09F00801F66BF65176
:1011200022086FE30901476BF6C846F9496B240EA4
:10113000486F000143DF02C003F00150970F016EBA
:10114000030E032201C0F7F8080103C0F8F8F7C83E
:10115000E9FFF8C8EAFF0A0EEF6E230EF725E96EE5
:10116000000EF821EA6EEF90230EF725E96E000ECF
:10117000F821EA6EEF82230EF725E96E000EF821C2
:10118000EA6EEF84230EF725E96E000EF821EA6E71
:10119000EF98230EF725E96E000EF821EA6EEF9620
:1011A0000F0EF725E96E000EF821EA6EEF3C01D034
:1011B00013D00F0EF725E96E000EF821EA6EEFCF7F
:1011C00049F9000102EC00F00F0E0801F725E96E65
:1011D000000EF821EA6EEF68210EF725E96E000E89
:1011E000F821EA6EEC6AED52240EEF6E100EF72530
:1011F000E96E000EF821EA6EEC6AED52EF6AF62B0A
:101200008ED7D6508327D7508423CE508327CF50F4
:101210008423CC508327000E8423B2508327B350FD
:101220008423FC6BFB6B84C8FAF883C8F9F80001CF
:10123000D6D631D702C096F301C095F3040E030150
:101240009627965112080AE2FF0A03E19551870892
:1012500005E2880E955F130E965BF3D7965103084F
:1012600002E3040E962700013DEF09F008018F6BA1
:10127000000115D4AAD592D650D724EF36F0080E27
:10128000016E0E0E006E002EFED78A9893980E0EF9
:10129000006E002EFED709010C378A9AD8B0938AC7
:1012A000D8A0939A938881A8FED7012E01D002D0AE
:1012B0000001E7D70E0E006E002EFED78A98939895
:1012C0000000938A0E0E006E002EFED70E0E006EEA
:1012D000002EFED7938881A8FED7016A0E0E006EFD
:1012E000002EFED781BA01808A9893988A9A939AA1
:1012F00000011200080E09010A6F00C00BF9938A61
:101300000E0E006E002EFED7938881A8FED781BAFC
:10131000D88081AAD89001360E0E006E002EFED71E
:1013200093988A980A2FEBD7938A0E0E006E002EA0
:10133000FED78A9A0B51D8A4939A0000938881A86B
:10134000FED70E0E006E002EFED78A9893980E0ED2
:10135000006E002EFED78A9A939A0001EDEF09F0F5
:10136000938A0E0E006E002EFED793880E0E006E2E
:10137000002EFED78A9A939A0E0E006E002EFED78C
:101380008A989398A00E09010C6F000178DF07C9B5
:1013900009F909010A6B07C90CF9000170DF06C9D8
:1013A0000CF96DDF938A0E0E006E002EFED7938827
:1013B0000E0E006E002EFED781A8FED78A9A939A51
:1013C0000E0E006E002EFED78A989398A10E09018A
:1013D0000C6F000154DF006A8DD701C008F9939AA1
:1013E0000000938881A8FED70E0E006E002EFED757
:1013F00000D00000938A0E0E006E002EFED7090169
:1014000008C901F000011200938A0E0E006E002E32
:10141000FED793880E0E006E002EFED78A9A939AFE
:101420000E0E006E002EFED78A989398A00E09012A
:101430000C6F000124DF07C90AF909010B6B07C90A
:101440000CF900011CDF06C90CF919DF08C90CF9F9
:1014500016DF939A0000938881A8FED70E0E006EC7
:10146000002EFED700D00000938A0E0E006E002ED4
:10147000FED7938A0E0E006E002EFED793880E0EB6
:10148000006E002EFED78A9A939A0E0E006E002EE2
:10149000FED78A989398A00E09010C6F0001EFDE29
:1014A00001500901099101B0098109A11ED0938A57
:1014B0000E0E006E002EFED793880E0E006E002ECC
:1014C000FED781A8FED78A9A939A0E0E006E002E40
:1014D000FED78A989398A00E0C6F0001D0DE0150C1
:1014E0000901099101B00981E0D7939A000093881E
:1014F00081A8FED70E0E006E002EFED700D0000091
:10150000938A0E0E006E002EFED700011200090015
:10151000F6CFF8F8F7CFF9F8F5CFFCF818EC03F0B0
:10152000F8C8F6FFF9C8F7FF0801F72F01D002D07D
:101530000001EDD70001120009011151016A105D8F
:1015400003E210C900F00CD0006A080E126F1037C9
:1015500000361151005CD8B0006E0136122FF7D75B
:10156000000112000150F7C810F9640E0901116F53
:101570000001E2DF00C0F7F80150300E08E1080179
:10158000F8A30FD0F8B70DD0F8B9200E04D0080199
:10159000F897F899F881012601C0FCF8000118ECD1
:1015A00003F0F7C810F90A0E0901116F0001C4DF3A
:1015B00000C0F7F80150300E08E10801F8B70BD071
:1015C000F8A109D0F8B9200E0001012601C0FCF8ED
:1015D00018EC03F00801300EF727F7C8FCF80001FB
:1015E00018EC03F01200200E0801F7A9300EF86F76
:1015F000F6C800F0F6AF08D0001E002A00C0F6F8CA
:101600002D0EF86FF78FF7810150F6C810F9640EB0
:101610000901116F000190DF00C0F6F8300E0124BF
:101620000801F96FF6C810F90A0E0901116F0001DF
:1016300083DF300E00240801FB6F300E0124FA6FA7
:10164000F8C800F0300EF95D04E0F783F7BFF785C6
:1016500012D0F8C8F9F8200EF86F300EFA5D04E0E9
:10166000F781F7BFF78307D0D8A4F78104E1F9C861
:10167000FAF8200EF96FF7B505D0F7B308D0F7B137
:101680000BD00FD0F8C8FCF8000118EC03F0F9C833
:10169000FCF8000118EC03F0FAC8FCF8000118ECA3
:1016A00003F0FBC8FCF8000118EC03F0ACEF36F0D7
:1016B00004009EA8FDD7090110C9ADFF000112006A
:1016C0000900F5520CE0F6CF0BF9F7CF0CF9F5CF86
:1016D00010F9EEDF0BC9F6FF0CC9F7FFF1D71200C6
:1016E000D0500F0BD0A8000ED080D082D088D886E2
:1016F000D888070A07E0080A0BE0010A0FE0020A8F
:1017000013E017D0E20EF66E040EF76ED9DF11D09B
:10171000F00EF66E040EF76ED3DF0BD0000EF66EF1
:10172000050EF76ECDDF05D0180EF66E050EF76EBE
:10173000C7DFE6EF36F0030190A101D035D09081EC
:10174000010E8C5D0901486F000E03018D590901DE
:10175000496F49511A0809E2FF0A03E14851F708A5
:1017600004E21B0E496FF70E486F1E0EA96F400E64
:10177000AA6F0001BDEC05F00901A56B0C0EA46F6A
:101780000001CCEC05F00C0E0901A76F48C9A8F9BF
:1017900000019FEC05F00D0E0901A76F49C9A8F9DA
:1017A00000019FEC05F00301000112000901956B97
:1017B000946B94928B923A0EAC6F000163EC05F03F
:1017C00009019551935D1CE303E19251945D18E288
:1017D00091C903F090C996F991C997F9AC6B0001D2
:1017E00063EC05F097C9EAFF96C9E9FF01C0EFFF76
:1017F0000901902BD8B4912B942BD8B4952BE1D719
:1018000094928B8294C901F095C902F000011200F4
:10181000A2C9A3F9A1C9A4F90901A3C901F0A4C9E6
:1018200002F000011200010E0901A56F190EA46F4C
:101830000001CCEC05F0190E0901A16F000180EC4C
:1018400005F001C014F90901145303E1000E016E03
:101850008ED0030190B107D000016DDF000E016E44
:10186000090185D003018DC38FF38CC38EF3090169
:10187000A56BA46B0001CCEC05F00901A76B8CC330
:10188000A8F900019FEC05F0010E0901A76F8DC3B7
:10189000A8F900019FEC05F0090E0901156F146B02
:1018A000916F14C990F9936B140E926F00017EDF53
:1018B00013C9A2F912C9A1F9ABDF02C013F901C023
:1018C00012F9090101511A0805E2FF0A18E1005155
:1018D000F70815E3090E146B14C9E9FFEA6EEFB0BF
:1018E0000ED005BF0CD004B90AD00351040805E29C
:1018F000FF0A05E10251EE0802E304BF01D0FF0038
:1019000001C98DF300C98CF3FDC803F0FCC814F9BC
:101910000901FDC815F9FDC8EAFFFCC8E9FF090E79
:10192000E26E0C0EE16E060E016EE6CFEEFF012EAA
:10193000FCD7FFC803F00801FEC8E9FF03C0EAFFB7
:10194000EF680901135108080DE1125303E0125129
:10195000060808E10801FEC8E9FFFFC8EAFF12C94E
:10196000EFFF090103019091010E016E09010001D1
:101970007EEF22F0090127C901F028C903F027C929
:1019800029F928C92AF927C9E9FF28C9EAFFECCFB4
:10199000A2F9ED52EFCFA1F900013ADF2AC9EAFF1F
:1019A00029C9E9FF02C0ECFFED5201C0EFFF020EB2
:1019B00009012725016E000E2821036E01C029F9B7
:1019C0002A6F020E2725E96E000E2821EA6EECCF61
:1019D000A2F9ED52EFCFA1F900011ADF2AC9EAFFFF
:1019E00029C9E9FF02C0ECFFED5201C0EFFF060E6E
:1019F00009012725016E000E2821036E01C029F977
:101A00002A6F060E2725E96E000E2821EA6EECCF1C
:101A1000A2F9ED52EFCFA1F90001FADE2AC9EAFFDF
:101A200029C9E9FF02C0ECFFED5201C0EFFF12002F
:101A3000090E0901916F0B0E906F936B1C0E926F44
:101A40000001B4DE78DE090E0901286F0B0E276F46
:101A5000000190DF09010B2D08D00C5306E10F5156
:101A6000060803E11051040803E0000E016E59D08E
:101A7000115102080AE1125308E10AC903F009C929
:101A8000E9FF0AC9EAFFEF6A16D0112D0BD01253F5
:101A900009E10AC903F009C9E9FF0AC9EAFF010E11
:101AA000EF6E09D009C9E9FF0AC9EAFF020EEF6E1D
:101AB000000E016E36D0030150510901235D2FE164
:101AC000030151510901245D2AE103015251090129
:101AD000255D25E1030153510901265D20E107C978
:101AE000E9FF08C9EAFF090EE26E130EE16E060E69
:101AF000016EE6CFEEFF012EFCD7060E0725E96E3C
:101B0000000E0821EA6E19C9EFFF1AC9ECFF1BC9C4
:101B1000ECFF1CC9ECFF010E016E03D002D0000ED9
:101B2000016E00017FEF10F01F0E0901A16F00018F
:101B300080EC05F001C083F9000E090101B6010E29
:101B4000000A02E1000E01D0FF0E016E000112003A
:101B50009BC987F3070E09019C271C0E9D23A56BCB
:101B6000020EA46F0001CCEC05F0090E09019F6F75
:101B70009C0E9E6FE96E9FC9EAFFEFCFA8F9A76B95
:101B800000019FEC05F0090E09019F6F9C0E9E6FEE
:101B9000010E9E25E96E000E9F21EA6EEFCFA8F997
:101BA000010EA76F00019FEC05F0090E09019F6F60
:101BB0009C0E9E6FE96E9FC9EAFFEFCFA8F9020E57
:101BC000A76F00019FEC05F0090E09019F6F9C0EA5
:101BD0009E6F010E9E25E96E000E9F21EA6EEFCFEB
:101BE000A8F9030EA76F00019FEC05F01200949274
:101BF0008B927A0E0901AC6F000163EC05F0A5C968
:101C0000ACF963EC05F094928B82120094928B9263
:101C10007A0E0901AC6F000163EC05F00901A9C956
:101C200003F0A851D8B4A907A807031010E0A7C96A
:101C300003F0A6C9E9FFA7C9EAFFEFCFACF900019D
:101C400063EC05F00901A62BD8B4A72BE8D7949232
:101C50008B82000112000901A56B020EA46F000126
:101C6000CCEC05F0020E0901A76FF80EA86F000179
:101C70009FEC05F0030E0901A76F1B0EA86F000172
:101C80009FEC05F0060E0901A2271C0EA323090EE6
:101C9000A56FA20EA46FE96EA5C9EAFFEFCFA8F960
:101CA000060EA76F00019FEC05F0090E0901A56F54
:101CB000A20EA46F010EA425E96E000EA521EA6E06
:101CC000EFCFA8F9070EA76F00019FEC05F00901FF
:101CD000A56B00018CDFA0C9A7F99FC9A6F909016E
:101CE000A96B060EA86F000191DF030E0901A56F15
:101CF000540EA46FA5C9A7F9A66FA96B060EA86F0D
:101D0000000184DF080E0901A56F000170DF0901E1
:101D1000A15302E1000E01D0060EA46FA56F0001D1
:101D200066DF12001C0E0901A16F000180EC05F0B6
:101D300001C08EF9000E090101B2010E000A10E087
:101D40001F0EA96F800EAA6F0001BDEC05F01F0EDB
:101D50000901A66F800EA76F0001AEEC05F0090126
:101D60001C0EA66F0A0EA76F0001AEEC05F01F0E49
:101D70000901A96F080EAA6F0001BDEC05F003016F
:101D800091510508D8A4E4D01C0E0901A16F0001EF
:101D900080EC05F001C08EF9090101500A0BD8A4AE
:101DA00002D00301F1D71C0EA16F000180EC05F0F9
:101DB00001C08EF9000E090101B2010E000AD8B46B
:101DC000C6D01F0EA66F080EA76F0001AEEC05F07F
:101DD0000901A56BA46B0001CCEC05F00901A16B16
:101DE000000180EC05F001C082F9010E0901A16F2C
:101DF000000180EC05F001C083F9060E0901A16F16
:101E0000000180EC05F001C084F9070E0901A16F03
:101E1000000180EC05F001C085F90901842BD8B4DC
:101E2000852BA76B84C9A8F900019FEC05F0010E72
:101E30000901A76F85C9A8F900019FEC05F0090EFB
:101E400009018F6F860E8E6F8FC991F9906F936B1A
:101E5000070E926F0001AADC09018D6B8D510F08EE
:101E600067E31C0EA16F000180EC05F001C08EF944
:101E7000000E090101B2010E000A55E089AB53D0F2
:101E80001F0EA96F800EAA6F0001BDEC05F01F0E9A
:101E90000901A66F800EA76F0001AEEC05F01C0EC5
:101EA0000901A66F0A0EA76F0001AEEC05F01F0E28
:101EB0000901A96F080EAA6F0001BDEC05F01C0E08
:101EC0000901A16F000180EC05F001C08EF9090144
:101ED00001500A0BD8A402D00001F1D71F0EA66F43
:101EE000080EA76F0001AEEC05F00901A76B84C9CD
:101EF000A8F900019FEC05F0010E0901A76F85C943
:101F0000A8F900019FEC05F0090E09018F6F860EFC
:101F10008E6F8FC991F9906F936B070E926F0001CE
:101F200045DC03D0090104D0000109018D2B96D7AF
:101F3000A76B82C9A8F900019FEC05F0010E090109
:101F4000A76F83C9A8F900019FEC05F009010301FF
:101F500000011200010E0901826F0001E5DD01C0E0
:101F600026F90901263D03D0000E016EB3D026C923
:101F70009BF99D6B9C6B0001EBDD09010B6B010E66
:101F80000A6F080E0D6F0C6B060E0E6F040E0F6FAE
:101F9000092D0AD0116B010E106F1C691D691E6995
:101FA0001F692069216911D0116B020E106F07C9DA
:101FB000E1FF08C9E2FF090EEA6E1C0EE96E060E8B
:101FC000016EE6CFEEFF012EFCD7090EEA6E120E6F
:101FD000E96E030EE26E540EE16E060E016EE6CF60
:101FE000EEFF012EFCD753C31BF952C31AF951C39C
:101FF00019F950C318F9060E0725E96E000E0821DD
:10200000EA6EEFCF00F0ECCF01F0ECCF02F0ECCFB6
:1020100003F000501819276F01501919286F02504A
:102020001A19296F03501B192A6F275103015A15DA
:10203000006E0901285103015B15016E0901295148
:1020400003015C15026E09012A5103015D15036E3F
:10205000005206E1015204E1025202E1035209E09A
:1020600061C325F960C324F95FC323F95EC322F974
:1020700010D0060E09010725E96E000E0821EA6E50
:10208000EFCF22F9ECCF23F9ECCF24F9ECCF25F9EF
:102090000301090E0901286F0A0E276F00016ADC8F
:1020A000090E0901A06F1C0E9F6F060EA16FA36B96
:1020B0001C0EA26F0001CFDD090E0901A76F0A0EE9
:1020C000A66FA96B1C0EA86F0001A0DD2BDE010E10
:1020D000016E090100011200000E030190B3010E10
:1020E000000A000101E030D0080E0901086FFC0E63
:1020F000076F090E0A6F060E096F000199D401528D
:1021000001E135D09BEC0BF0090106531AE1080EF2
:10211000EA6E850EE96E080EE26EFC0EE16E060EAA
:10212000016EE6CFEEFF012EFCD705C98EF804C97B
:102130008DF803C98CF802C98BF8000118D004D0BF
:102140000901030190830001080E0901086FFC0ECC
:10215000076F096B0001FEDE015204E0030190935A
:1021600005D00001000E016E04D003010001010E34
:10217000016E97EF22F0140E03018E2509015D6FA9
:10218000000E03018F2109015E6F57515D255B6FC2
:1021900058515E215C6F5C511A0809E2FF0A03E1A5
:1021A0005B51F70804E2F80E5B5F1B0E5C5BA56BEE
:1021B000100EA46F0001CCEC05F0100E0901A76F02
:1021C0005BC9A8F900019FEC05F0110E0901A76F8A
:1021D0005CC9A8F900019FEC05F0010E0901595DE9
:1021E000006E000E5A59036E00505B2703505C23AB
:1021F0005C511A0809E2FF0A03E15B51F70804E2A7
:10220000F80E5B5F1B0E5C5B120EA76F5BC9A8F933
:1022100000019FEC05F0130E0901A76F5CC9A8F936
:1022200000019FEC05F01F0E0901A96F300EAA6F87
:102230000001BDEC05F01F0E0901A16F000180EC4B
:1022400005F001C05DF9000E090101BA010E000A96
:10225000D8B402D00001EFD7160EA16F000180ECB8
:1022600005F001C05CF9170E0901A16F000180ECB7
:1022700005F001C05BF909015BC901F05CC902F01E
:1022800000011200140E03018E250901316F000EAA
:1022900003018F210901326F2D5131252F6F2E51EE
:1022A0003221306F30511A0809E2FF0A03E12F5141
:1022B000F70804E2F80E2F5F1B0E305BA56BA46BD2
:1022C0000001CCEC05F00901A76B2FC9A8F90001AA
:1022D0009FEC05F0010E0901A76F30C9A8F90001B4
:1022E0009FEC05F0020E0901A76F2FC9A8F90001A4
:1022F0009FEC05F0030E0901A76F30C9A8F9000192
:102300009FEC05F01200020E09019B25016E000EE4
:102310009C21036E01C09DF99E6F020E9B25E96E04
:10232000000E9C21EA6EECCFA2F9ED52EFCFA1F99D
:10233000000108EC0CF09EC9EAFF9DC9E9FF02C04C
:10234000ECFFED5201C0EFFF040E09019B25016E69
:10235000000E9C21036E01C09DF99E6F040E9B250B
:10236000E96E000E9C21EA6EECCFA2F9ED52EFCFA0
:10237000A1F9000108EC0CF09EC9EAFF9DC9E9FF34
:1023800002C0ECFFED5201C0EFFF0A0E09019B25D0
:10239000016E000E9C21036E01C09DF99E6F0A0E16
:1023A0009B25E96E000E9C21EA6EECCFA2F9ED525E
:1023B000EFCFA1F9000108EC0CF09EC9EAFF9DC91E
:1023C000E9FF02C0ECFFED5201C0EFFF1200090E61
:1023D00009011B6F060E1A6F1BC991F9906F936B61
:1023E000140E926F0001D6EC0BF009010651F00BB0
:1023F000400803E0000E016E5DD006510F0B006E29
:1024000000340301946F9437FC0E94170901586B44
:10241000576B5A6B94C359F90001ADDE02C005F940
:1024200001C004F909012E6B94C32DF900012ADFC4
:1024300009010451051103E0000E016E3BD0090EA5
:102440009C6F060E9B6F00015EDF0801FC51FD11C1
:102450000CE0FCC8E9FFFDC8EAFF16C9EFFF17C989
:10246000ECFF18C9ECFF19C9ECFF060EFE25E96E5A
:10247000000EFF21EA6E12C9EFFF13C9ECFF14C969
:10248000ECFF15C9ECFF090100C9E9FF01C9EAFF2A
:102490000FC9EFFF02C9E9FF03C9EAFF0301945125
:1024A0000901085D006E000E095900C0EFFFEC6ED7
:1024B000010E016E0001B3EF22F00901936B926BE4
:1024C000916B906BD8908731896F8631886F85C901
:1024D0008BF984C98AF989C903F08851D8B489076E
:1024E0008807031017E08BC903F08AC900F0020EB9
:1024F0008A27D8B08B2B00C0E9FF03C0EAFFECCFDE
:1025000003F0ED52EF50902703509123000E9223D9
:102510009323E1D78651010B006E036A005003102C
:102520000AE08AC9E9FF8BC9EAFFEF509027000E45
:1025300091239223932393C98FF992C98EF991C95C
:102540008DF990C98CF98FC989F98EC988F988539A
:1025500002E1895323E0936B926B976B966B91C961
:1025600095F990C994F9026A036A88519025906F91
:1025700089519121916F02509621926F03509721BA
:10258000936F93C98FF992C98EF991C98DF990C94A
:102590008CF98FC989F98EC988F9D9D791C903F007
:1025A000031E9051FF0A016E03C002F000011200E9
:1025B00094928B923A0E0901AC6F000163EC05F026
:1025C0000901AC6B000163EC05F001C086F994923F
:1025D0008B82090186C901F00001120009018253B2
:1025E00007E1835305E1FF0E016E026EA1D017D003
:1025F000822D15D0835313E10001DADF0901876BC7
:1026000001C086F901C003F0000E006A0006001A3E
:10261000FF0E031A00C001F003C002F089D0A56BC1
:10262000A46B0001CCEC05F00901A16B000180EC6A
:1026300005F001C084F9010E0901A16F000180ECD1
:1026400005F001C085F9100E0901A76F84C9A8F92A
:1026500000019FEC05F0110E0901A76F85C9A8F9CB
:1026600000019FEC05F0090185511B081BE303E104
:102670008451F70817E3010E825D006E000E835946
:10268000036E005084270350852385511A0809E200
:10269000FF0A03E18451F70804E2F80E845F1B0E81
:1026A000855B0AD0010E825D006E000E8359036EB9
:1026B0000050842703508523120EA76F84C9A8F900
:1026C00000019FEC05F0130E0901A76F85C9A8F959
:1026D00000019FEC05F01F0E0901A96F300EAA6FD3
:1026E0000001BDEC05F01F0E0901A16F000180EC97
:1026F00005F001C086F9000E090101BA010E000AB9
:10270000D8B402D00001EFD7160EA16F000180EC03
:1027100005F001C084F9170E0901A16F000180ECDA
:1027200005F001C085F9090184C901F085C902F0ED
:102730000001120003019451090129252B6F000E9D
:102740002A212C6F2E6F2BC92DF900019BDD120061
:102750008DC98EF98CC98FF98BC990F98AC991F905
:102760008EC900F08FC901F090C902F091C903F041
:102770001200090182C901F083C903F082C984F9FA
:1027800083C985F982C9E9FF83C9EAFFECCFA2F9C1
:10279000ED52EFCFA1F9000108EC0CF085C9EAFF7A
:1027A00084C9E9FF02C0ECFFED5201C0EFFF020E49
:1027B00009018225016E000E8321036E01C084F998
:1027C000856F020E8225E96E000E8321EA6EECCF42
:1027D000A2F9ED52EFCFA1F9000108EC0CF085C988
:1027E000EAFF84C9E9FF02C0ECFFED5201C0EFFF30
:1027F000040E09018225016E000E8321036E01C0C3
:1028000084F9856F040E8225E96E000E8321EA6E3D
:10281000EFCF8AF9ECCF8BF9ECCF8CF9ECCF8DF9B7
:10282000000196DF85C9EAFF84C9E9FF00C0EFFF18
:1028300001C0ECFF02C0ECFF03C0ECFF080E090171
:102840008225016E000E8321036E01C084F9856F1D
:10285000080E8225E96E000E8321EA6EEFCF8AF919
:10286000ECCF8BF9ECCF8CF9ECCF8DF9000170DF58
:1028700085C9EAFF84C9E9FF00C0EFFF01C0ECFF92
:1028800002C0ECFF03C0ECFF0E0E09018225016EB1
:10289000000E8321036E01C084F9856F0E0E822520
:1028A000E96E000E8321EA6EECCFA2F9ED52EFCF74
:1028B000A1F9000108EC0CF085C9EAFF84C9E9FF21
:1028C00002C0ECFFED5201C0EFFF100E090182259E
:1028D000016E000E8321036E01C084F9856F100E16
:1028E0008225E96E000E8321EA6EECCFA2F9ED524B
:1028F000EFCFA1F9000108EC0CF085C9EAFF84C90B
:10290000E9FF02C0ECFFED5201C0EFFF120E09011A
:102910008225016E000E8321036E01C084F9856F4C
:10292000120E8225E96E000E8321EA6EECCFA2F929
:10293000ED52EFCFA1F9000108EC0CF085C9EAFFD8
:1029400084C9E9FF02C0ECFFED5201C0EFFF1200A5
:10295000FE0E09012F6F2E6B2E512208D8A083D0B6
:10296000476B2EC946F9496B240E486F0001DEEC17
:1029700007F002C003F00150970F016E030E03220F
:1029800001C02CF9090103C02DF92CC9E9FF2DC99B
:10299000EAFFEF500A0865E00B0E2C25E96E000EE9
:1029A0002D21EA6EECCF31F9ED52EFCF30F9020E66
:1029B0002825E96E000E2921EA6EECCF03F0ED52D6
:1029C000EF50305D4EE10350315D4BE12CC9E9FF22
:1029D0002DC9EAFFEF5202E12EC92FF90D0E2C2569
:1029E000E96E000E2D21EA6EECCF31F9ED52EFCFFA
:1029F00030F928C9E9FF29C9EAFFECCF03F0ED520D
:102A0000EF50305D2EE10350315D2BE1070E2C2598
:102A1000E96E000E2D21EA6EEFCF30F9ECCF31F9DF
:102A2000ECCF32F9ECCF33F9060E2A25E96E000E11
:102A30002B21EA6EEFCF00F0ECCF01F0ECCF02F0EB
:102A4000ECCF03F00050305D0CE10150315D09E145
:102A50000250325D06E10350335D03E12EC901F0FF
:102A600075D02E2B79D72F51FE0803E1FE0E016E93
:102A70006DD0476B2FC946F9496B240E486F000192
:102A8000DEEC07F002C003F00150970F016E030E59
:102A9000032201C02CF9090103C02DF9010E2C25D8
:102AA000016E000E2D21036E01C030F9316FEA6E08
:102AB00001C0E9FF2BC9E2FF2AC9E1FF0A0E016E3E
:102AC000E6CFEEFF012EFCD70D0E2C25016E000E79
:102AD0002D2128C9E9FF29C9EAFFECCF03F0ED5207
:102AE000EFCF32F9EA6E01C0E9FF03C0ECFFED520F
:102AF00032C9EFFF230E2C25E96E000E2D21EA6E60
:102B0000EF960F0E2C25E96E000E2D21EA6EEF3C9C
:102B100001D013D00F0E2C25E96E000E2D21EA6E88
:102B2000EFCF49F9000102EC00F00F0E09012C254E
:102B3000E96E000E2D21EA6EEF68230E2C25E96E5A
:102B4000000E2D21EA6EEF822FC901F0000199EFEE
:102B50001EF0F29A89C349F988C348F9F28A09013B
:102B600048C901F049C902F0000112000F0E090125
:102B70004625E96E000E4721EA6EEF3C01D01AD0DF
:102B80000F0E4625E96E000E4721EA6EEFCF49F998
:102B9000000102EC00F00F0E09014625E96E000E5F
:102BA0004721EA6EEF68230E4625E96E000E4721A5
:102BB000EA6EEF82070E4625E96E000E4721EA6EA7
:102BC000EE52EE52EC6AED52EF6AED52EF6AED52C0
:102BD000EF6A0D0E4625E96E000E4721EA6EEC6A9B
:102BE000ED52EF6A230E4625E96E000E4721EA6E8C
:102BF000EFA604D000019BEC0BF00901230E462543
:102C0000E96E000E4721EA6EEF96210E4625E96E29
:102C1000000E4721EA6EEC6AED52240EEF6E230E91
:102C20004625E96E000E4721EA6EEF98230E4625F1
:102C3000E96E000E4721EA6EEFA006D046C9E9FF13
:102C400047C9EAFFEF6A06D046C9E9FF47C9EAFF6C
:102C50000A0EEF6E100E4625E96E000E4721EA6E51
:102C6000EC6AED52EF6A000112001F0E0901A16F1C
:102C7000000180EC05F001C083F9000E090101B6E6
:102C8000010E000A02E0000E01D0010E016E0001EB
:102C90001200010E0901A56F190EA46F0001CCEC02
:102CA00005F0190E0901A16F000180EC05F001C0CB
:102CB00082F90901A56B0E0EA46F0001CCEC05F0A2
:102CC0000E0E0901A16F000180EC05F001C084F92E
:102CD0000F0E0901A16F000180EC05F001C085F91C
:102CE000010E0901A56F190EA46F0001CCEC05F0CF
:102CF000190E0901A16F000180EC05F001C086F9F1
:102D000009018251015CD8B402D00001CAD7A56B79
:102D10000C0EA46F0001CCEC05F00C0E0901A16FA4
:102D2000000180EC05F001C082F90D0E0901A16FD0
:102D3000000180EC05F001C083F909018351855D34
:102D400016E303E18451825D12E28251845D006EDC
:102D500083518559036E0050FF0AF80F006E1B0E59
:102D6000035600C001F003C002F01CD01BD08251FA
:102D7000845D09E18351855D06E1F70E016E1B0E4E
:102D8000026E10D00FD08451825D866F85518359B9
:102D9000876F010E865D006E000E8759036E00C0BE
:102DA00001F0026E000114EF18F0060E09019B25D8
:102DB000A16F1C0E9C21A26F010EA1259F6F000E1A
:102DC000A221A06FA56B100EA46F0001CCEC05F042
:102DD000100E0901A76F9FC9A8F900019FEC05F02B
:102DE000110E0901A76FA0C9A8F900019FEC05F019
:102DF000010E09019D5D006E000E9E59036E00508C
:102E00009F270350A023120EA76F9FC9A8F90001A6
:102E10009FEC05F0130E0901A76FA0C9A8F90001E6
:102E20009FEC05F01F0E0901A96F300EAA6F00017B
:102E3000BDEC05F01F0E0901A16F000180EC05F04B
:102E400001C0A1F9000E090101BA010E000AD8B4AF
:102E500002D00001EFD7160EA16F000180EC05F043
:102E600001C0A0F9170E0901A16F000180EC05F067
:102E700001C09FF909019FC901F0A0C902F000013A
:102E80001200140E0301946F450E0901876F886BC1
:102E9000140E8525896F000E86218A6F0301922BFF
:102EA000D8B4932B93C38CF992C38BF909018E6B21
:102EB0008D6B640E8F6F84C990F9926B916B53C3C5
:102EC00096F952C395F951C394F950C393F9060E7C
:102ED0008225E96E000E8321EA6EEFCF97F9ECCFE1
:102EE00098F9ECCF99F9ECCF9AF9090E9C6F870EFF
:102EF0009B6F000183EC11F0090182C901F083C9C5
:102F000003F082C99BF983C99CF9140E85259D6F36
:102F1000000E86219E6F83C9A0F982C99FF9A16B1B
:102F2000A36F9DC9A2F900012BEC0EF0090E090157
:102F30009C6F870E9B6F9CC9A7F9A66FA96B140E97
:102F4000A86F000106EC0EF009019C6B9B6B9E6B59
:102F5000140E9D6F000129DF02C092F901C091F9A2
:102F600087C39BF909019D6B0A0E9C6F0001A8ECB9
:102F70000DF0090E09019C6F910E9B6F9CC9A7F97A
:102F8000A66FA96B020EA86F000106EC0EF087C3B6
:102F90009BF909019D6B140E9C6F0001A8EC0DF0CC
:102FA000000E016E026E1200010E0901826F000117
:102FB0005CDE0152F9E00901593D08D0010E826F33
:102FC000000194EC0DF001C059F90901593D01D0FF
:102FD000FBD059C99BF99D6B140E9C6F0001A8ECA6
:102FE0000DF04DC95FF94CC95EF94FC961F94EC981
:102FF00060F953C965F952C964F951C963F950C9F7
:1030000062F957C969F956C968F955C967F954C9C8
:1030100066F93F0E09016B156B6FF00E6A156A6F4A
:1030200058C96BF9000135D602C06DF901C06CF9C1
:1030300009016D5303E16C51280805E2280E6C5F0D
:10304000000E6D5B02D06D6B6C6B6F6B6E6B716B9A
:10305000706B090E836F5E0E826F0001B9EC13F086
:10306000140E09015A27000E5B2358A30FD0040E3B
:103070005A27000E5B23020E726F040E736F746F7B
:10308000756B0F0E6A1560096A6F04D00F0E6A1512
:1030900050096A6F53C379F952C378F951C377F96C
:1030A00050C376F9060E4A25E96E000E4B21EA6EF2
:1030B000EFCF7AF9ECCF7BF9ECCF7CF9ECCF7DF94F
:1030C0007E6B060E7F6F5BC981F95AC980F981C991
:1030D000A2F980C9A1F9000108EC0CF002C081F945
:1030E00001C080F9090E0901836F760E826F83C9D2
:1030F00085F9846F876B0C0E866F00015DEC12F012
:1031000001C06EF909016E1F02C06FF96F1F6FC910
:103110005DF96EC95CF94BC983F94AC982F9060E9B
:10312000846F5BC986F95AC985F90001AADE090EC8
:103130000901836F5E0E826F83C9A7F9A66FA96B21
:10314000140EA86F000106EC0EF0090158A30ED072
:10315000090E836F720E826F83C9A7F9A66FA96BE0
:10316000040EA86F000106EC0EF0090159C99BF985
:103170009D6B140E9C6F0001A8EC0DF05BC983F9E8
:103180005AC982F9EEEC12F002C05DF901C05CF997
:1031900059C99BF909019D6B240E9C6F0001A8EC95
:1031A0000DF05DC9A5F9F7EC0DF05CC9A5F9F7ECD8
:1031B0000DF059C99BF909019D6B9C6B0001A8ECAE
:1031C0000DF092EC0EF00901000112000901476BAD
:1031D00028C946F9496B240E486F0001DEEC07F060
:1031E00002C003F00150970F016E030E032201C0CD
:1031F0003FF9090103C040F9416B1E0E3F25E96EFE
:10320000000E4021EA6EEF6A1F0E3F25016E000E90
:103210004021036E01C046F9476F00019ADC47C99F
:10322000EAFF46C9E9FF02C0ECFFED5201C0EFFF23
:10323000210E09013F25E96E000E4021EA6EEC6A7D
:10324000ED52240EEF6E0D0E2B25E96E000E2C2193
:10325000EA6EEFA41ED000019BEC0BF009013FC900
:1032600001F040C903F03FC946F940C947F9230EB0
:103270003F25E96E000E4021EA6EEFA002D0000E5D
:1032800001D0010E47C9EAFF46C9E9FFEF6EEEEF34
:103290001DF0160E3F25E96E000E4021EA6EEFCFBD
:1032A00033F9ECCF34F9ECCF35F9ECCF36F90E0E1B
:1032B0002B25E96E000E2C21EA6EECCF47F9ED527A
:1032C000EFCF46F9486B496B080E2B25E96E000ECF
:1032D0002C21EA6EEFCF00F0ECCF01F0ECCF02F042
:1032E000ECCF03F00050335D006E01503459016E95
:1032F00002503559026E03503659036E0050465F36
:103300000150475B0250485B0350495B100E3F255C
:10331000E96E000E4021EA6EECCF03F0ED52EFCFE4
:1033200000F003C001F0026A036A0050465D426F7C
:1033300001504759436F02504859446F035049594F
:10334000456F45AF0AD0140E3F25E96E000E4021AF
:10335000EA6EEC6AED52EF6A0AD0140E3F25E96E70
:10336000000E4021EA6E2FC9EFFF30C9ECFF3FC9C4
:10337000E9FF40C9EAFFEF2CB5D00D0E2B25E96E11
:10338000000E2C21EA6EEFB212D000019BEC0BF084
:103390000D0E09012B25E96E000E2C21EA6EEFA817
:1033A00004D0040E416FBBEF1DF0EEEF1DF01A0EBE
:1033B0003F25016E000E402101C046F9476F040E03
:1033C0002B25E96E000E2C21EA6EEFCF48F9ECCFE9
:1033D00049F9ECCF4AF9ECCF4BF92D5148272E5142
:1033E0004923000E4A234B23010E4825006E000E90
:1033F0004921016E000E4A21026E000E4B2147C981
:10340000EAFF46C9E9FF00C0EFFF01C0ECFF02C0C0
:10341000ECFFEC6E1A0E3F25E96E000E4021EA6EBD
:10342000EFCF2FF9ECCF30F9ECCF31F9ECCF32F907
:103430000D0E2B25E96E000E2C21EA6EEFB80DD093
:103440003FC9E9FF40C9EAFF020EEF6E00019BECA5
:103450000BF0120E0901416F8ED33FC9E9FF40C93D
:10346000EAFF030EEF6E100E416F140E3F25016E42
:10347000000E4021036E476F0E0E2B25E96E000EE5
:103480002C21EA6EECCF03F0ED52EFCF48F947C99B
:10349000EAFF01C0E9FF03C0ECFFED5248C9EFFFAE
:1034A0002D512E111AE0230E3F25E96E000E40210A
:1034B000EA6EEF86120E3F25E96E000E4021EA6E9D
:1034C0002EC9ECFFED522DC9EFFF230E3F25E96E0B
:1034D000000E4021EA6EEF8404D000019BEC0BF05B
:1034E000090149D33FC9E9FF40C9EAFFEF52D8A417
:1034F000BAD000019BEC0BF00D0E09012B25E96EF3
:10350000000E2C21EA6EEFB203D0040E416F33D3CC
:103510001A0E3F25016E000E402101C046F9476F8B
:10352000040E2B25E96E000E2C21EA6EEFCF48F930
:10353000ECCF49F9ECCF4AF9ECCF4BF92D514827A4
:103540002E514923000E4A234B23010E4825006EBD
:10355000000E4921016E000E4A21026E000E4B2121
:1035600047C9EAFF46C9E9FF00C0EFFF01C0ECFF11
:1035700002C0ECFFEC6E140E3F25016E000E4021E0
:10358000036E476F0E0E2B25E96E000E2C21EA6E9E
:10359000ECCF03F0ED52EFCF48F947C9EAFF01C085
:1035A000E9FF03C0ECFFED5248C9EFFF010E3F25D4
:1035B000016E000E4021036E01C046F9476FEA6EAE
:1035C00001C0E9FF2AC9E2FF29C9E1FF0A0E016E25
:1035D000E6CFEEFF012EFCD70D0E3F25016E000E4B
:1035E00040212BC9E9FF2CC9EAFFECCF03F0ED52D3
:1035F000EFCF48F9EA6E01C0E9FF03C0ECFFED52DE
:1036000048C9EFFF3FC9E9FF40C9EAFF020EEF6E6C
:10361000160E3F25E96E000E4021EA6EEFCF33F91A
:10362000ECCF34F9ECCF35F9ECCF36F9160E3F2557
:10363000E96E000E4021EA6E010EEE26000EEE222B
:10364000EE22ED221A0E3F25E96E000E4021EA6EB1
:10365000EFCF2FF9ECCF30F9ECCF31F9ECCF32F9D5
:10366000120E416F88D21A0E3F25E96E000E4021DE
:10367000EA6EEFCF37F9ECCF38F9ECCF39F9ECCF70
:103680003AF9160E3F25E96E000E4021EA6EEFCFA3
:103690003BF9ECCF3CF9ECCF3DF9ECCF3EF9040E11
:1036A0002B25E96E000E2C21EA6EEFCF2FF9ECCF1F
:1036B00030F9ECCF31F9ECCF32F9026A036A2D51BF
:1036C0002F272E5130230250312303503223160E60
:1036D0003F25E96E000E4021EA6EEFCF33F9ECCFC3
:1036E00034F9ECCF35F9ECCF36F9040E2B25E96E21
:1036F000000E2C21EA6EEFCF46F9ECCF47F9ECCF64
:1037000048F9ECCF49F93751465DD8A426D2385153
:10371000475DD8A422D23951485DD8A41ED23A516F
:10372000495DD8A41AD23FC9E9FF40C9EAFFEF506A
:10373000020843E10D0E2B25E96E000E2C21EA6EE6
:10374000EFA836D01A0E3F25E96E000E4021EA6E32
:103750002FC9EFFF30C9ECFF31C9ECFF32C9ECFFD4
:103760003FC9E9FF40C9EAFF030EEF6E2D512E114C
:103770001AE0230E3F25E96E000E4021EA6EEF8627
:10378000120E3F25E96E000E4021EA6E2EC9ECFFB5
:10379000ED522DC9EFFF230E3F25E96E000E4021AB
:1037A000EA6EEF8404D000019BEC0BF0090104D019
:1037B00000019BEC0BF00901CFD11A0E3F25E96EF9
:1037C000000E4021EA6E2FC9EFFF30C9ECFF31C96E
:1037D000ECFF32C9ECFF3FC9E9FF40C9EAFFEF50F7
:1037E0000308D8A4D2D00D0E2B25E96E000E2C2193
:1037F000EA6EEFA82BD0230E3F25E96E000E402184
:10380000EA6EEFB223D00F0E3F25E96E000E402185
:10381000EA6EEF3C01D01AD00F0E3F25E96E000E84
:103820004021EA6EEFCF49F9000102EC00F00F0EE3
:1038300009013F25E96E000E4021EA6EEF68230E74
:103840003F25E96E000E4021EA6EEF820D0E2B251A
:10385000E96E000E2C21EA6EEFA04BD0110E416FE5
:10386000160E3F25E96E000E4021EA6EEFCF33F9C8
:10387000ECCF34F9ECCF35F9ECCF36F9160E3F2505
:10388000E96E000E4021EA6E010EEE26000EEE22D9
:10389000EE22ED221A0E3F25E96E000E4021EA6E5F
:1038A000010EEF24006E000EEC20016E000EEC20E5
:1038B000026E000EEC20ED52ED52ED5200C0EFFF13
:1038C00001C0ECFF02C0ECFFEC6E1A0E3F25E96E62
:1038D000000E4021EA6EEFCF2FF9ECCF30F9ECCF9C
:1038E00031F9ECCF32F93FC9E9FF40C9EAFF090ECF
:1038F000EF6E2D512E1144E0230E3F25E96E000E90
:103900004021EA6EEFB61BD0230E3F25E96E000E74
:103910004021EA6EEF86120E3F25E96E000E40212F
:10392000EA6E2EC9ECFFED522DC9EFFF230E3F25A5
:10393000E96E000E4021EA6EEF84418920D0160E18
:103940003F25E96E000E4021EA6E3BC9EFFF3CC9FE
:10395000ECFF3DC9ECFF3EC9ECFF1A0E3F25E96EB6
:10396000000E4021EA6E37C9EFFF38C9ECFF39C9B4
:10397000ECFF3AC9ECFF00019BEC0BF0090104D00D
:1039800000019BEC0BF00901E7D03FC9E9FF40C9FA
:10399000EAFFEF50090815E100019BEC0BF00D0E5A
:1039A00009012B25E96E000E2C21EA6EEFA808D044
:1039B00040C947F93FC946F90001B6EC15F00901C5
:1039C000CBD03FC9E9FF40C9EAFFEF50040862E1EC
:1039D00000019BEC0BF00D0E09012B25E96E000E8A
:1039E0002C21EA6EEFA045D0100E416F1A0E3F2534
:1039F000E96E000E4021EA6E010EEF24006E000E0B
:103A0000EC20016E000EEC20026E000EEC20ED5258
:103A1000ED52ED5200C0EFFF01C0ECFF02C0ECFF21
:103A2000EC6E1A0E3F25E96E000E4021EA6EEFCFD4
:103A30002FF9ECCF30F9ECCF31F9ECCF32F90D0E94
:103A40002B25E96E000E2C21EA6EEFA809D040C9A3
:103A500047F93FC946F90001B6EC15F008D0090155
:103A60003FC9E9FF40C9EAFF060EEF6E000110D022
:103A700009010D0E2B25E96E000E2C21EA6EEFA830
:103A800006D03FC9E9FF40C9EAFF050EEF6E00010D
:103A900062D009013FC9E9FF40C9EAFFEF500508BC
:103AA00040E100019BEC0BF00D0E09012B25E96EA6
:103AB000000E2C21EA6EEFA033D0100E416F1A0ECB
:103AC0003F25E96E000E4021EA6E010EEF24006EE4
:103AD000000EEC20016E000EEC20026E000EEC20B9
:103AE000ED52ED52ED5200C0EFFF01C0ECFF02C0FD
:103AF000ECFFEC6E1A0E3F25E96E000E4021EA6ED7
:103B0000EFCF2FF9ECCF30F9ECCF31F9ECCF32F920
:103B100040C947F93FC946F90001B6EC15F0090163
:103B20001BD03FC9E9FF40C9EAFFEF50060814E186
:103B300000019BEC0BF00D0E09012B25E96E000E28
:103B40002C21EA6EEFA808D040C947F93FC946F9D1
:103B50000001B6EC15F009010ED000019BEC0BF052
:103B6000100E0901416F3AC932F939C931F938C922
:103B700030F937C92FF9415331E0020E2B25E96E98
:103B8000000E2C21EA6EECCF4DF9ED52EFCF4CF93F
:103B90002BC9E9FF2CC9EAFFECCF4FF9ED52EFCF6B
:103BA0004EF92AC94BF929C94AF936C953F935C919
:103BB00052F934C951F933C950F932C957F931C9E9
:103BC00056F930C955F92FC954F941C958F95969FD
:103BD0005B6B5A6B0001D4EC17F009010001B0EFE8
:103BE0001EF0060E0801FC25E96E000EFD21EA6EAE
:103BF000EFCF16F9ECCF17F9ECCF18F9ECCF19F994
:103C0000FEC8E9FFFFC8EAFFEFCF1AF9ECCF1BF9B6
:103C1000ECCF1CF9ECCF1DF909011E6B060E1F6FCE
:103C200001C921F900C920F921C9A2F920C9A1F9C6
:103C3000000108EC0CF002C021F901C020F9090EC6
:103C40000901296F160E286F29C985F9846F876BC2
:103C50000C0E866F00015DEC12F001C023F9090122
:103C6000231F02C024F9241F01C983F900C982F966
:103C70000001EEEC12F002C026F901C025F909019D
:103C80002651235D03E12551245D07E000019BECF3
:103C90000BF0010E016E6BD009012A6B296B00013C
:103CA0009AEC13F0090E0901296F020E286F29C939
:103CB00091F9906F936B140E926F0001D6EC0BF09C
:103CC000090E0901836F020E826F0001B9EC13F037
:103CD00009010E390F0B006E00360036FC0E00167F
:103CE0000050EC0F276F2751005D286F000E01591F
:103CF000296F140E285D006F000E2959016F0E39CF
:103D00000F0B006E0034286F2837FC0E28172A6B23
:103D100028C929F900019AEC13F0090E0901296F4D
:103D2000020E286FFDC82BF9FCC82AF90001A8EF84
:103D300014F001C022F909012251FE0813E022C942
:103D400028F9FDC82AF9FCC829F9090E2C6F020EC2
:103D50002B6F01C92EF900C92DF90001E6EF18F00B
:103D600004D0090100019BEC0BF0010E016EDFEFA6
:103D700022F0040E09015625016E000E5721036E34
:103D800001C058F9596F040E5625E96E000E5721EF
:103D9000EA6EECCFA2F9ED52EFCFA1F9000108ECE9
:103DA0000CF059C9EAFF58C9E9FF02C0ECFFED5217
:103DB00001C0EFFF060E09015625016E000E5721C6
:103DC000036E01C058F9596F060E5625E96E000EB4
:103DD0005721EA6EECCFA2F9ED52EFCFA1F9000125
:103DE00008EC0CF059C9EAFF58C9E9FF02C0ECFF22
:103DF000ED5201C0EFFF020E09015625016E000EC3
:103E00005721036E01C058F9596F020E5625E96E0D
:103E1000000E5721EA6EECCFA2F9ED52EFCFA1F9D7
:103E2000000108EC0CF059C9EAFF58C9E9FF02C0CB
:103E3000ECFFED5201C0EFFF1200090E0901556FB2
:103E4000080E546F55C991F9906F936B926F0001F2
:103E5000D6EC0BF00901536B526B03C903F002C996
:103E6000E9FF03C9EAFFEFCF59F9586B140E576FFA
:103E70005A6B0001BBEC10F002C051F901C050F9BF
:103E8000090102C9E9FF03C9EAFF080EEF5CEF6E02
:103E900003C903F002C9E9FF03C9EAFFEFCF92F9B2
:103EA00001C991F900C990F9936B0001D6EC0BF0B0
:103EB000090E0901576F080E566F00015ADF0801FD
:103EC000FEC8E9FFFFC8EAFF08C9EFFF090104C9FE
:103ED000E9FF05C9EAFF0DC9ECFFED520CC9EFFF80
:103EE00006C9E9FF07C9EAFF0FC9ECFFED520EC989
:103EF000EFFF5251505D03E15351515D02E0000E5E
:103F000001D0010E016E000108EF23F0010E09013E
:103F1000826F000194EC0DF001C050F90901503D91
:103F200001D07CD050C99BF99D6B140E9C6F000191
:103F3000A8EC0DF0036A09010151080F4E6F000E45
:103F400003204F6F076BFEC806F9096B086B03C9A6
:103F50000BF902C90AF905C90DF904C90CF9090ED2
:103F6000EA6E0E0EE96E00C9E2FFFFC8E1FF0151E3
:103F7000016E04E0E6CFEEFF012EFCD7090E576F6D
:103F8000060E566F0001F5DE080E09010125526B81
:103F9000516FFDC883F9FCC882F9010E846F52C9C4
:103FA00086F951C985F9000141EC17F0090E0901A4
:103FB000526F060E516F52C9A7F9A66F4FC9A9F9E2
:103FC0004EC9A8F9000106EC0EF009019C6B140E15
:103FD0009B6F4FC99EF94EC99DF90001D5EC16F0B3
:103FE00002C009F901C008F950C99BF909019D6B8C
:103FF000160E9C6F0001A8EC0DF0090E0901526F1E
:10400000080E516F52C9A7F9A66FA96B020EA86FCF
:10401000000106EC0EF092EC0EF00901000136EF03
:1040200023F00901076B0801FC6BFC512208D8A0A2
:1040300035D20901476BFCC846F9496B240E486F1D
:104040000001DEEC07F002C003F00150970F016E93
:10405000030E032201C001F9090103C002F9230E76
:104060000125E96E000E0221EA6EEFB608D0230E9C
:104070000125E96E000E0221EA6EEFA801D00BD2F5
:1040800001C9E9FF02C9EAFFEF500A0810E001C9BF
:10409000E9FF02C9EAFFEF520BE1230E0125E96EA9
:1040A000000E0221EA6EEF50010B010801E1F3D18D
:1040B00001C9E9FF02C9EAFFEF5003080BE1230E33
:1040C0000125E96E000E0221EA6EEF50010B010896
:1040D00001E1E1D10001A9EC15F002C000F901C035
:1040E000FFF81F0E09010125E96E000E0221EA6E9C
:1040F000ECCF03F0ED52EFCF01F00051035C09E388
:104100000AE101500801FF5DD8B002D0090103D0D7
:104110000901000E01D0010E036A03101DE01F0EFD
:104120000125E96E000E0221EA6EECCF03F0ED529C
:10413000EF50FF08086FFF0E0354096F0801FF518D
:104140000901082700510923010E0825016E000E00
:104150000921036E015012D01F0E0125E96E000ED9
:104160000221EA6EECCF03F0ED52EF500801FF5D43
:10417000006E035009010059036E00500801FD6FE5
:1041800003C0FEF8210E09010125E96E000E02218F
:10419000EA6EECCF03F0ED52EFCF01F00801FE51D3
:1041A000035C07E303E1FD51015C03E3090173D103
:1041B0000801010E0901826F000135EC16F0015271
:1041C00001E16CD11F0E09010125016E000E0221D3
:1041D000036E01C008F9096F0001A9EC15F009C9C7
:1041E000EAFF08C9E9FF02C0ECFFED5201C0EFFF92
:1041F000210E09010125E96E000E0221EA6ED89018
:10420000EF34026EEC34036E0250ED52EF6E03C0D9
:10421000ECFF1E0E0125E96E000E0221EA6EEF2A68
:1042200001C9E9FF02C9EAFF010EEF5CF70FD8B040
:10423000C3D0090F000151EF22F0020E0901076FF0
:10424000BBD01E0E09010125E96E000E0221EA6EA7
:10425000EF50030803E3120E076F16D0230E01255B
:10426000E96E000E0221EA6EEFA006D001C9E9FF57
:1042700002C9EAFFEF6A08D0020E076F01C9E9FF21
:1042800002C9EAFF010EEF6E97D01E0E090101254B
:10429000E96E000E0221EA6EEF5003081FE30F0ED5
:1042A0000125E96E000E0221EA6EEF3C01D011D02B
:1042B0000F0E0125E96E000E0221EA6EEFCF9BF989
:1042C0009D6B9C6B0001A8EC0DF092EC0EF004D0FD
:1042D0000901100E076F000126D009010F0E0125FC
:1042E000E96E000E0221EA6EEF3C01D013D00F0EF2
:1042F0000125E96E000E0221EA6EEFCF49F90001B7
:1043000002EC00F00F0E09010125E96E000E0221FA
:10431000EA6EEF68110E076F01C9E9FF02C9EAFFF3
:10432000040EEF6E0001090147D01E0E09010125A0
:10433000E96E000E0221EA6EEF50030803E3010E5E
:10434000076F08D002C947F901C946F90001B6EC68
:1043500015F0090131D002C947F901C946F9B6EC97
:1043600015F0090129D002C947F901C946F9B6EC8F
:1043700015F0090121D0010E0901076F01C9E9FFFC
:1043800002C9EAFF090EEF6E17D01E0E09010125C2
:10439000E96E000E0221EA6EEF50030803E3010EFE
:1043A000076F08D002C947F901C946F90001B6EC08
:1043B00015F0090101D0090107536DE007A90FD0DD
:1043C000160E0125E96E000E0221EA6EEFCF03F909
:1043D000ECCF04F9ECCF05F9ECCF06F91AD0160EA4
:1043E0000125E96E000E0221EA6EEFCF03F9ECCF52
:1043F00004F9ECCF05F9ECCF06F9160E0125E96EAC
:10440000000E0221EA6E010EEE26000EEE22EE22D2
:10441000ED22010E0125016E000E0221036E01C086
:1044200008F9096F0B0E0125E96E000E0221EA6EF4
:10443000ECCF4DF9ED52EFCF4CF90D0E0125E96EA1
:10444000000E0221EA6EECCF4FF9ED52EFCF4EF99C
:104450001A0E0125E96E000E0221EA6EEFCF54F923
:10446000ECCF55F9ECCF56F9ECCF57F903C04BF927
:1044700001C04AF906C953F905C952F904C951F9ED
:1044800003C950F907C958F959695B6B5A6B0001A8
:10449000D4EC17F009010801FC2BC7D5000140EF4F
:1044A00023F0E824F76AF736BD0FF66E440EF722C4
:1044B0000A00F550FA6E0800F550F96E3A42424291
:1044C0008A422A4356435643664376438A43080149
:1044D000FB91FB918F51F90FD8B0CED0070F00019F
:1044E00041EF23F0080E0801FD6F900EFC6F080EDF
:1044F000FF6FFA0EFE6F000113EF0CF0015203E1A3
:104500000801BAD000010801FB81FA5303E1020E51
:104510008F6F0AD0FA51060803E1050E8F6F04D0A1
:1045200000019BEC0BF00801A7D06CEF10F00152DA
:1045300003E008018F6B000108019ED0080E0801FE
:10454000FD6FF60EFC6F080EFF6F900EFE6F080EEB
:104550000901016FFA0E006F080E036F9A0E026FC9
:104560000001E7EF11F0015215E00801FB81FA2D7F
:1045700003D0030E8F6F0CD0FA51060803E1060E2C
:104580008F6F06D0FB9100019BEC0BF008018F6B45
:1045900005D000019BEC0BF008018F6B6DD0080E6D
:1045A0000801FD6F900EFC6F080EFF6FF60EFE6F98
:1045B0009BC801F99AC800F90001F1EF1DF0015202
:1045C00003E008018F6B0001080156D008018F6BD2
:1045D0009B5327E19A51480824E3080EFD6F9A0E79
:1045E000FC6F080EFF6FFA0EFE6F080E0901016FD7
:1045F0009C0E006FFDC803F9FCC802F9080E056F98
:10460000DC0E046F080E076FDE0E066F000115D476
:10461000015208E00801FA51080803E1FB81040E89
:104620008F6F00019BEC0BF0080126D0010E0901F1
:10463000826F000135EC16F001521BE0080E0801F4
:10464000FD6F900EFC6FFE6B080E0901006F9C0E53
:104650000801FF6F9AC801F9DDC803F9DCC802F947
:10466000DFC805F9DEC804F9000150D408018F6BDA
:104670000001080101D00801FBB12BD70001D1D402
:104680001200E824F76AF7369D0FF66E460EF72201
:104690000A00F550FA6E0800F550F96EE444E4445F
:1046A0003C45CC452C462A459E450801F9C8E9FF02
:1046B000FAC8EAFFEFCF01F9ECCF02F9ECCF03F92A
:1046C000ECCF04F9080E0901086FFB0E076F010E0D
:1046D000096F0001AAEC0FF0BFEF29F00801F9C83B
:1046E000E9FFFAC8EAFFEFCF00F0ECCF01F0ECCF22
:1046F00002F0ECCF03F000508B5D09E101508C5DBE
:1047000006E102508D5D03E103508E5D14E003016C
:104710005E5108018B5D22E103015F5108018C5D50
:104720001DE10301605108018D5D18E10301615134
:1047300008018E5D13E1FCC803F0FBC8E9FFFCC86B
:10474000EAFF080EE26E850EE16E060E016EE6CF00
:10475000EEFF012EFCD7010E016E02D0000E016E9D
:104760000001D5EF29F0090100910801FD6BFD5111
:10477000220823E30901476BFDC846F9496B240E63
:10478000486F0001DEEC07F002C003F00150970F04
:10479000016E030E032201C0FEF8080103C0FFF8FA
:1047A000FEC8E9FFFFC8EAFFEF500A0804E109016B
:1047B0000081080102D0FD2BDAD7090100B103D036
:1047C000FE0E016ED8D00B0E0801FE25E96E000E1C
:1047D000FF21EA6E0301952BD8B4962B96C3ECFF0C
:1047E000ED5295C3EFFF9651120808E2FF0A03E16C
:1047F0009551870803E2030E966F9569230E080111
:10480000FE25E96E000EFF21EA6EEF900D0EFE25EB
:10481000E96E000EFF21EA6EFCC8ECFFED52FBC80A
:10482000EFFF160EFE25E96E000EFF21EA6E010E67
:10483000EE26000EEE22EE22ED221A0EFE25E96E85
:10484000000EFF21EA6EEE52EE52EC6AED52EF6A74
:10485000ED52EF6AED52EF6A010EFE25016E000E79
:10486000FF21036E01C001F90901026FEA6E01C068
:10487000E9FFFAC8E2FFF9C8E1FF0A0E016EE6CFD0
:10488000EEFF012EFCD7010E0801FE25016E000E81
:10489000FF21036E01C001F90901026F0B0E08012F
:1048A000FE25E96E000EFF21EA6EECCF4DF9ED52C8
:1048B000EFCF4CF90D0EFE25E96E000EFF21EA6EDA
:1048C000ECCF4FF9ED52EFCF4EF9160EFE25E96E03
:1048D000000EFF21EA6EEFCF50F9ECCF51F9ECCF8B
:1048E00052F9ECCF53F91A0EFE25E96E000EFF21A6
:1048F000EA6EEFCF54F9ECCF55F9ECCF56F9ECCF87
:1049000057F903C04BF901C04AF9020E0901586F6B
:1049100059695B6B5A6B0001D4EC17F00801FEC8B3
:10492000E9FFFFC8EAFF010EEF6E160EFE25E96EE5
:10493000000EFF21EA6E010EEE26000EEE22EE22A0
:10494000ED221F0EFE25016E000EFF21036E01C039
:1049500001F90901026F0001A9EC15F002C9EAFF93
:1049600001C9E9FF02C0ECFFED5201C0EFFF0801F1
:10497000FDC801F00901000128EF2AF00901476B89
:10498000F9C846F9496B240E486F0001DEEC07F0C8
:1049900002C0FBF801C0FAF8970E08010124E96E85
:1049A000030E0220EA6EEF50030802E0000E01D071
:1049B000010E016E000112000901476BFBC846F9A8
:1049C000496B240E486F0001DEEC07F002C0FDF8D1
:1049D00001C0FCF8230E0801FC27000EFD23970EF2
:1049E000FC25E96E030EFD21EA6E000EEFB6010E06
:1049F000016E000100EF29F00901476BFBC846F981
:104A0000496B240E486F0001DEEC07F002C003F092
:104A10000150970F016E030E032201C0FEF808013A
:104A200003C0FFF8230EFE25E96E000EFF21EA6E9B
:104A3000EFA653D0230EFE25E96E000EFF21EA6E8D
:104A4000EFA40FD009012A6B140E296F00019AEC14
:104A500013F0230E0801FE25E96E000EFF21EA6E19
:104A6000EF94120EFE25E96E000EFF21EA6EECCFE8
:104A700001F9ED52EFCF00F90901005311E10153A3
:104A80000FE100019BEC0BF0230E0801FE25E96EFF
:104A9000000EFF21EA6EEF96000E016E20D0090194
:104AA000120E0801FE25E96E000EFF21EA6EFF0ED0
:104AB000EF2602E2EE52ED06FDC801F9FCC800F94E
:104AC0000001D8EC12F001C9EAFF00C9E9FF01C0FA
:104AD000EFFF010E016E080102D0000E016E000111
:104AE00010EF29F00901476B09C946F9496B240EFB
:104AF000486F0001DEEC07F001C00AF9140E09014D
:104B00000124016E000E0220036E0150970FE96E22
:104B1000030E0320EA6EECCF0BF9ED52EFCF0AF94A
:104B20000A5305E10B5303E1000E016E40D0476BC1
:104B300009C946F9496B240E486F0001DEEC07F005
:104B400002C00BF901C00AF90F0E09010124016E20
:104B5000000E0220036E0150970FE96E030E032032
:104B6000EA6EEF3C08D0826B000135EC16F0015084
:104B700009011DD01CD0476B09C946F9496B240EA9
:104B8000486F0001DEEC07F002C00BF901C00AF922
:104B9000230E09010A27000E0B23970E0A25E96E42
:104BA000030E0B21EA6E000EEFB2010E016E000142
:104BB000120004C909F996DF015204E1000E016EEA
:104BC000026E93D00901476B04C946F9496B240E64
:104BD000486F0001DEEC07F002C00AF901C009F9D4
:104BE0000F0E09010124016E000E0220036E015018
:104BF000970FE96E030E0320EA6EEF3C03D0066BBD
:104C0000056B1DD0476B04C946F9496B240E486FEC
:104C10000001DEEC07F001C009F9100E09010124C2
:104C2000016E000E0220036E0150970FE96E030E15
:104C30000320EA6EECCF06F9ED52EFCF05F9CA0E6C
:104C4000D8800555076F030E0655086F476B04C9DA
:104C500046F9496B240E486F0001DEEC07F002C0F4
:104C60000AF901C009F9140E09010124016E000EB0
:104C70000220036E0150970FE96E030E0320EA6EC7
:104C8000ECCF03F0ED52EFCF01F00350085D23E3CA
:104C900003E10751015C1FE2476B04C946F9496B08
:104CA000240E486F0001DEEC07F002C00AF901C0D3
:104CB00009F9140E09010124016E000E0220036E91
:104CC0000150970FE96E030E0320EA6EECCF03F05C
:104CD000ED52EF5003D008C903F00751076F03C02E
:104CE00008F907C901F008C902F00001B5EF27F083
:104CF0000901476B04C946F9496B240E486F00014E
:104D0000DEEC07F002C003F00150970F016E030EB6
:104D1000032201C005F9090103C006F90F0E05259C
:104D2000E96E000E0621EA6EEF3C03D0000E016E24
:104D3000ADD0230E0525E96E000E0621EA6EEFCFF9
:104D400000F00030010B03E1000E016E9FD0010E58
:104D50000525016E000E0621036E01C007F9086FDC
:104D60000B0E0525E96E000E0621EA6EECCF4DF91B
:104D7000ED52EFCF4CF90D0E0525E96E000E062120
:104D8000EA6EECCF4FF9ED52EFCF4EF9160E052536
:104D9000E96E000E0621EA6EEFCF50F9ECCF51F923
:104DA000ECCF52F9ECCF53F91A0E0525E96E000E3F
:104DB0000621EA6EEFCF54F9ECCF55F9ECCF56F956
:104DC000ECCF57F90F0E0525E96E000E0621EA6EAD
:104DD000EFCF59F9100E0525E96E000E0621EA6E97
:104DE000ECCF5BF9ED52EFCF5AF903C04BF901C09C
:104DF0004AF9180E586F0001D4EC17F0160E09018D
:104E00000525016E000E0621036E01C007F9086F2B
:104E1000EA6E01C0E9FFEFCF09F9ECCF0AF9ECCF58
:104E20000BF9ECCF0CF9100E0525E96E000E0621EA
:104E3000EA6EECCF03F0ED52EFCF00F003C001F0CB
:104E4000026A036A095100260A5101220B5102220B
:104E50000C51032208C9EAFF07C9E9FF00C0EFFFB0
:104E600001C0ECFF02C0ECFF03C0ECFF230E0525E0
:104E7000E96E000E0621EA6EEF92230E0525E96E1B
:104E8000000E0621EA6EEF98010E016E000112007D
:104E90000901476BFBC846F9496B240E486F0001B6
:104EA000DEEC07F002C003F00150970F016E030E15
:104EB000032201C000F9090103C001F9140E002505
:104EC000E96E000E0121EA6EECCF05F9ED52EFCF4D
:104ED00004F9045306E1055304E1000E016E026E6D
:104EE000C6D00F0E0025E96E000E0121EA6EEF3CE0
:104EF00038D00F0E0025016E000E0121036E01C097
:104F000004F9056F826B000194EC0DF005C9EAFF0E
:104F100004C9E9FF01C0EFFF0F0E09010025E96E8A
:104F2000000E0121EA6EEF3C04D0000E016E026E0D
:104F30009ED0100E0025E96E000E0121EA6EEC6A8B
:104F4000ED52EF6A0F0E0025E96E000E0121EA6EA8
:104F5000EFCF9BF99D6B280E9C6F0001A8EC0DF024
:104F60000901FBC804F9000124D602C003F901C0FD
:104F700002F9090103510801FF5D0EE307E1FE514B
:104F80000901025DD8A002D0080106D003C903F0D0
:104F90000901025104D00801FFC803F0FE510801C5
:104FA000FE6F03C0FFF8FFC803F9FEC802F9230E25
:104FB00009010025E96E000E0121EA6EEF8803C9A0
:104FC00003F00251D8B403070207031032E00801CE
:104FD000FDC803F0FC51FC2BD8B4FD2BE96E03C0D7
:104FE000EAFFEFCFA5F90001F7EC0DF0140E09016F
:104FF0000025E96E000E0121EA6E010EEF5C006EE5
:10500000000EEC58036E0050ED52EF6E03C0ECFF43
:10501000100E0025E96E000E0121EA6E010EEF244C
:10502000016E000EEC20036EED5201C0EFFFEC6E3E
:10503000C6D7100E0025E96E000E0121EA6EECCFF6
:1050400005F9ED52EFCF04F9055102080AE2FF0A13
:1050500003E10451C90805E2FBC804F9000148DE78
:1050600009010801FEC801F0FFC802F009010001B2
:105070005EEF29F00901476B03C946F9496B240E1D
:10508000486F0001DEEC07F002C003F00150970FFB
:10509000016E030E032201C004F9090103C005F9E2
:1050A000230E0425E96E000E0521EA6EEFB603D04B
:1050B000000E016E0DD000019BEC0BF0230E0901D8
:1050C0000425E96E000E0521EA6EEF96010E016ED1
:1050D00000019CEF28F00901476BFBC846F9496BBA
:1050E000240E486F0001DEEC07F002C003F001500F
:1050F000970F016E030E032201C0FCF8080103C0E4
:10510000FDF8FCC8E9FFFDC8EAFFEF50030810E016
:10511000FCC8E9FFFDC8EAFFEF50020809E0FDC83E
:1051200047F9FCC846F90001B6EC15F064D0080157
:10513000FBC803F900019ED7010E0801FC25016E92
:10514000000EFD21036E01C000F90901016F0B0E75
:105150000801FC25E96E000EFD21EA6EECCF4DF949
:10516000ED52EFCF4CF90D0EFC25E96E000EFD213E
:10517000EA6EECCF4FF9ED52EFCF4EF9160EFC254B
:10518000E96E000EFD21EA6EEFCF50F9ECCF51F938
:10519000ECCF52F9ECCF53F91A0EFC25E96E000E54
:1051A000FD21EA6EEFCF54F9ECCF55F9ECCF56F96B
:1051B000ECCF57F903C04BF901C04AF9110E0901B0
:1051C000586F59695B6B5A6B0001D4EC17F0160EDF
:1051D0000801FC25E96E000EFD21EA6E010EEE26A7
:1051E000000EEE22EE22ED22FCC8E9FFFDC8EAFF28
:1051F000040EEF6E00011200F9C8FBF8DCEF24F09A
:10520000015241E0010E4E6E416A406AF9C8FBF856
:10521000080E0801FD6FFA0EFC6F0001FCEF24F090
:10522000015231E041C003F04050402AD8B4412A35
:105230000801FB6F600EFB25E96E010E0320EA6E8C
:10524000FAC8EFFFFA5140080DE14E6A140EFD6FE7
:10525000040EFE6F0001EEEC02F0FAC8FCF818EC48
:1052600003F00801415203E140505A0803E2416A49
:105270005A0E406E600E4024E96E010E4120EA6E27
:10528000EF6A0001C3D71A521FE00801E453D8B4F3
:1052900002D0000119D0F9C809F9000123DC01523C
:1052A00013E0010E0801E46FF9C8FBF8FD6F060E6C
:1052B000FC6FFF6B48C0FEF80001EAD5F9C804F99D
:1052C00017DD4F6A1A6A15D01A5213E00801E45329
:1052D000D8B402D000010DD0F9C809F9000102DCF0
:1052E000015207E14F2A4F50090803E2F9C8FBF8C1
:1052F000F2DE1A5203E10801E46B0001010E016EB7
:10530000A7EF2AF0A9EC15F002C0F7F801C0F6F8F3
:105310000801E851F80FD8B094D1080F000123EF2D
:105320002BF0E0C8EFF8E1C8F0F8E2C8F1F8E3C804
:10533000F2F802017D530FE1010E0801FD6F040E2A
:10534000FE6F0001EEEC02F02A0EF66E010EF76E13
:105350004AEC03F00201010E0801E86F0001010EA2
:105360000901826F000135EC16F0015210E0080EC1
:105370000801FA6FEF0EF96F000155EF23F0F7C83F
:10538000E6F8F6C8E5F8020E0801E86F000108012A
:1053900058D1080E0801FA6FEF0EF96F080EFC6F76
:1053A000E90EFB6F00016EEF23F0015216E0030ED1
:1053B0000801E86F02017D530FE1010E0801FD6F46
:1053C000040EFE6F0001EEEC02F0400EF66E010ED0
:1053D000F76E4AEC03F002012DD00801F751E65DAB
:1053E00004E305E1E551F65D02E3000E01D0010E94
:1053F000036A031013E0FF0ED880E555F96FFF0E26
:10540000E655FA6FF651F927F751FA23010EF925FF
:10541000016E000EFA21036E015007D0E551F65DD2
:10542000006EE651F759036E0050180802E2010EB3
:10543000E86F0201080105D1080E0801FA6FE90EB4
:10544000F96F1D0EFC6FE60EFB6F0001B3EF23F04A
:1054500001C0E7F8E7C851F00801E751FE080BE08A
:105460000001A9EC15F002C0E6F801C0E5F8040E51
:105470000801E86F13D002017D530FE1010E08010E
:10548000FD6F040EFE6F0001EEEC02F0560EF66E9C
:10549000010EF76E4AEC03F002010801D2D0E7C812
:1054A000F9F8BEEC24F001521AE0050E0801E86F8D
:1054B00002017D530FE1010E0801FD6F040EFE6F26
:1054C0000001EEEC02F06C0EF66E010EF76E4AEC87
:1054D00003F0020194948B84010E506E2DD00801CC
:1054E000F751E65D04E305E1E551F65D02E3000EE8
:1054F00001D0010E036A031013E0FF0ED880E555BA
:10550000F96FFF0EE655FA6FF651F927F751FA23B6
:10551000010EF925016E000EFA21036E015007D02D
:10552000E551F65D006EE651F759036E00507808BC
:1055300002E2070EE86F0201080183D0E7C8F9F81C
:10554000BEEC24F001520EE0E7C8F9F855D601C0D0
:10555000F8F80801F85304E0F7C8E6F8F6C8E5F8EB
:1055600004D00001060E0801E86F6BD002017D53E4
:105570000FE1010E0801FD6F040EFE6F0001EEEC5D
:1055800002F0820EF66E010EF76E4AEC03F0020195
:1055900094948B94506AE7C809F9000172EC25F0E5
:1055A000015204E0070E0801E86F2CD00801F75102
:1055B000E65D04E305E1E551F65D02E3000E01D08E
:1055C000010E036A031013E0FF0ED880E555F96F52
:1055D000FF0EE655FA6FF651F927F751FA23010E3F
:1055E000F925016E000EFA21036E015007D0E55136
:1055F000F65D006EE651F759036E0050780802E23E
:10560000070EE86F1ED0E7C8FBF865DD030E080142
:10561000E86F02017D530FE1010E0801FD6F040EDA
:10562000FE6F0001EEEC02F0960EF66E010EF76EC4
:105630004AEC03F0020194948B94506A080101D063
:10564000080100011200E824F76AF736610FF66ED0
:10565000560EF7220A00F550FA6E0800F550F96E62
:1056600022535E53925338549E543C556C55065603
:105670000CC90EF90BC90DF90EC903F009010DC9CA
:10568000E9FF0EC9EAFFEF5206E00D2BD8B40E2B4E
:105690000001F2D709010B510D5D006E0C510E593E
:1056A000036E00C001F0026E00011200010E1A6EBE
:1056B00067EC22F027DE1200F4C8EAFFF3C8E9FF26
:1056C0000801F9C8EFFFE92AD8B4EA2AEF6AF32BF8
:1056D000D8B4F42B000112000801F7BF11D00F0E4F
:1056E000006EF63900160A0E005C03E2300E00264A
:1056F00002D0F751002600C0F9F80001DDDF0801F3
:105700000F0EF6170A0EF65D02E2300E02D0F79F7A
:10571000F751F627F6C8F9F80001CEDF12000900AC
:10572000F6CFF7F8F7CFF8F8F5CFF9F8C5DFF7C8F7
:10573000F6FFF8C8F7FF0801F62F01D002D00001EC
:10574000EED7000113EF2CF0016603D0026602D001
:1057500007D0022A00C0EEFF012EFCD7022EFAD796
:10576000120002011053D8B495D0156B146B136B53
:10577000126B416A010E406E010E0F5D415227E12E
:10578000405C25E2D89012350801F76F020113350D
:105790000801F86F020114350801F96F020115358F
:1057A0000801FA6F160E4024E96E020E4120EA6EDF
:1057B000EF50F7110201126FF8C813F2F9C814F292
:1057C000FAC815F20201402AD8B4412AD5D70801F7
:1057D000F46BAC0EF36F15C2F6F8370EF76F0001DD
:1057E0007BDF14C2F6F8370E0801F76F000174DF93
:1057F00013C2F6F8370E0801F76F00016DDF12C211
:10580000F6F8370E0801F76F000166DF010E080198
:10581000F46F060EF36F500EF66E030EF76E040E65
:10582000F66F00017CD715C2F6F8370E0801F76F46
:10583000000152DF14C2F6F8370E0801F76F0001BD
:105840004BDF13C2F6F8370E0801F76F000144DF93
:1058500012C2F6F8370E0801F76F00013DDF010EA6
:1058600009010C6F060E0B6F000102DF01C048F04A
:105870001DDF0201106B0F6B0FC20CF2116B020ED9
:10588000EA6E160EE96E006A026A1A0E016E0001D7
:105890005BDF02010C2D24D01151020821E20D2BF7
:1058A000106B156B146B136B126B0A6B0B6B416AED
:1058B000406A40C00FF20FC20CF2116B416A406A9D
:1058C00041520EE1405019080BE3160E4024E96ED8
:1058D000020E4120EA6EEF6A402AD8B4412AF0D77E
:1058E000000158EF37F0456A446A44C01BF0436A30
:1058F0001BC042F0436A0A0E426E416A406A45523A
:1059000050E144500E084DE31B524BE1416A406A9E
:10591000442AD8B4452A41523EE1405009083BE3AD
:10592000220E4024E96E000E4120EA6E40504224CF
:105930000801F86F41504320F96FF2CFFAF8F29E58
:10594000F9C8AAFFF8C8A9FFA69CA69EA680A850E1
:10595000FABFF28EEF6E220E4024E96E000E412057
:10596000EA6EEFCFF6F8520E4024E96E000E4120A9
:10597000EA6EEF50F65D03E000010DD00801402A09
:10598000D8B4412A40500A0804E1415202E1010E14
:105990001B6E0001C0D70A0E4226000E43220400EF
:1059A000AED769EF37F0080E016E0E0E006E002EB6
:1059B000FED78D9296920E0E006E002EFED7090134
:1059C0000E378C9CD8B0958CD8A0959C968284A2DA
:1059D000FED7012E01D002D00001E7D70E0E006ED7
:1059E000002EFED78D9296920000958C0E0E006EC2
:1059F000002EFED70E0E006E002EFED7968284A2D9
:105A0000FED7016A0E0E006E002EFED783BC018009
:105A10008D9296928C9C959C00011200080E0901B3
:105A20000F6F00C010F9958C0E0E006E002EFED781
:105A3000968284A2FED783BCD88083ACD8900136EE
:105A40000E0E006E002EFED796928D920F2FEBD782
:105A5000958C0E0E006E002EFED78C9C1051D8A493
:105A6000959C0000968284A2FED70E0E006E002E3A
:105A7000FED78D9296920E0E006E002EFED78C9C55
:105A8000959C000112000FC910F9D890090110333C
:105A9000780E10171031006E00323F0E00160050C5
:105AA0001025116F0F510F0B1125016E000112000F
:105AB0000900F6CF0BF9F7CF0CF9F5CF10F958EC38
:105AC0000BF00BC9F6FF0CC9F7FF09010A2F01D033
:105AD00002D00001EDD700011200EF5210E0EACF32
